{
	"artifacts/Voting.sol": {
		"Voting": {
			"abi": [
				{
					"inputs": [
						{
							"internalType": "uint256",
							"name": "",
							"type": "uint256"
						}
					],
					"name": "candidateNames",
					"outputs": [
						{
							"internalType": "string",
							"name": "",
							"type": "string"
						}
					],
					"stateMutability": "view",
					"type": "function"
				},
				{
					"inputs": [
						{
							"internalType": "string",
							"name": "name",
							"type": "string"
						}
					],
					"name": "candidatesMapping",
					"outputs": [
						{
							"internalType": "int256",
							"name": "count",
							"type": "int256"
						}
					],
					"stateMutability": "view",
					"type": "function"
				},
				{
					"inputs": [
						{
							"internalType": "string",
							"name": "name",
							"type": "string"
						}
					],
					"name": "getVotes",
					"outputs": [
						{
							"internalType": "int256",
							"name": "",
							"type": "int256"
						}
					],
					"stateMutability": "view",
					"type": "function"
				},
				{
					"inputs": [
						{
							"internalType": "string",
							"name": "",
							"type": "string"
						}
					],
					"name": "hasVoted",
					"outputs": [
						{
							"internalType": "bool",
							"name": "",
							"type": "bool"
						}
					],
					"stateMutability": "view",
					"type": "function"
				},
				{
					"inputs": [],
					"name": "resetVotes",
					"outputs": [],
					"stateMutability": "nonpayable",
					"type": "function"
				},
				{
					"inputs": [
						{
							"internalType": "string",
							"name": "voterName",
							"type": "string"
						},
						{
							"internalType": "string",
							"name": "candidateName",
							"type": "string"
						}
					],
					"name": "vote",
					"outputs": [
						{
							"internalType": "bool",
							"name": "",
							"type": "bool"
						}
					],
					"stateMutability": "nonpayable",
					"type": "function"
				}
			],
			"devdoc": {
				"kind": "dev",
				"methods": {},
				"version": 1
			},
			"evm": {
				"assembly": "    /* \"artifacts/Voting.sol\":58:1603  contract Voting {... */\n  mstore(0x40, 0x80)\n  callvalue\n  dup1\n  iszero\n  tag_1\n  jumpi\n  revert(0x00, 0x00)\ntag_1:\n  pop\n  dataSize(sub_0)\n  dup1\n  dataOffset(sub_0)\n  0x00\n  codecopy\n  0x00\n  return\nstop\n\nsub_0: assembly {\n        /* \"artifacts/Voting.sol\":58:1603  contract Voting {... */\n      mstore(0x40, 0x80)\n      callvalue\n      dup1\n      iszero\n      tag_1\n      jumpi\n      revert(0x00, 0x00)\n    tag_1:\n      pop\n      jumpi(tag_2, lt(calldatasize, 0x04))\n      shr(0xe0, calldataload(0x00))\n      dup1\n      0x39bfeae3\n      eq\n      tag_3\n      jumpi\n      dup1\n      0x73d70d4d\n      eq\n      tag_4\n      jumpi\n      dup1\n      0x805265e5\n      eq\n      tag_5\n      jumpi\n      dup1\n      0x8287e42f\n      eq\n      tag_6\n      jumpi\n      dup1\n      0xb9830ff1\n      eq\n      tag_7\n      jumpi\n      dup1\n      0xe8d5940d\n      eq\n      tag_8\n      jumpi\n    tag_2:\n      revert(0x00, 0x00)\n        /* \"artifacts/Voting.sol\":181:220  mapping(string =>bool ) public hasVoted */\n    tag_3:\n      tag_9\n      0x04\n      dup1\n      calldatasize\n      sub\n      dup2\n      add\n      swap1\n      tag_10\n      swap2\n      swap1\n      tag_11\n      jump\t// in\n    tag_10:\n      tag_12\n      jump\t// in\n    tag_9:\n      mload(0x40)\n      tag_13\n      swap2\n      swap1\n      tag_14\n      jump\t// in\n    tag_13:\n      mload(0x40)\n      dup1\n      swap2\n      sub\n      swap1\n      return\n        /* \"artifacts/Voting.sol\":99:156  mapping(string name=>int count ) public candidatesMapping */\n    tag_4:\n      tag_15\n      0x04\n      dup1\n      calldatasize\n      sub\n      dup2\n      add\n      swap1\n      tag_16\n      swap2\n      swap1\n      tag_11\n      jump\t// in\n    tag_16:\n      tag_17\n      jump\t// in\n    tag_15:\n      mload(0x40)\n      tag_18\n      swap2\n      swap1\n      tag_19\n      jump\t// in\n    tag_18:\n      mload(0x40)\n      dup1\n      swap2\n      sub\n      swap1\n      return\n        /* \"artifacts/Voting.sol\":1268:1379  function getVotes(string memory name)public view returns (int){... */\n    tag_5:\n      tag_20\n      0x04\n      dup1\n      calldatasize\n      sub\n      dup2\n      add\n      swap1\n      tag_21\n      swap2\n      swap1\n      tag_11\n      jump\t// in\n    tag_21:\n      tag_22\n      jump\t// in\n    tag_20:\n      mload(0x40)\n      tag_23\n      swap2\n      swap1\n      tag_19\n      jump\t// in\n    tag_23:\n      mload(0x40)\n      dup1\n      swap2\n      sub\n      swap1\n      return\n        /* \"artifacts/Voting.sol\":275:305  string[] public candidateNames */\n    tag_6:\n      tag_24\n      0x04\n      dup1\n      calldatasize\n      sub\n      dup2\n      add\n      swap1\n      tag_25\n      swap2\n      swap1\n      tag_26\n      jump\t// in\n    tag_25:\n      tag_27\n      jump\t// in\n    tag_24:\n      mload(0x40)\n      tag_28\n      swap2\n      swap1\n      tag_29\n      jump\t// in\n    tag_28:\n      mload(0x40)\n      dup1\n      swap2\n      sub\n      swap1\n      return\n        /* \"artifacts/Voting.sol\":1391:1600  function resetVotes() public {... */\n    tag_7:\n      tag_30\n      tag_31\n      jump\t// in\n    tag_30:\n      stop\n        /* \"artifacts/Voting.sol\":356:1218  function vote(string memory voterName,string memory candidateName)public  returns (bool){... */\n    tag_8:\n      tag_32\n      0x04\n      dup1\n      calldatasize\n      sub\n      dup2\n      add\n      swap1\n      tag_33\n      swap2\n      swap1\n      tag_34\n      jump\t// in\n    tag_33:\n      tag_35\n      jump\t// in\n    tag_32:\n      mload(0x40)\n      tag_36\n      swap2\n      swap1\n      tag_14\n      jump\t// in\n    tag_36:\n      mload(0x40)\n      dup1\n      swap2\n      sub\n      swap1\n      return\n        /* \"artifacts/Voting.sol\":181:220  mapping(string =>bool ) public hasVoted */\n    tag_12:\n      0x01\n      dup2\n      dup1\n      mload\n      0x20\n      dup2\n      add\n      dup3\n      add\n      dup1\n      mload\n      dup5\n      dup3\n      mstore\n      0x20\n      dup4\n      add\n      0x20\n      dup6\n      add\n      keccak256\n      dup2\n      dup4\n      mstore\n      dup1\n      swap6\n      pop\n      pop\n      pop\n      pop\n      pop\n      pop\n      0x00\n      swap2\n      pop\n      sload\n      swap1\n      0x0100\n      exp\n      swap1\n      div\n      0xff\n      and\n      dup2\n      jump\t// out\n        /* \"artifacts/Voting.sol\":99:156  mapping(string name=>int count ) public candidatesMapping */\n    tag_17:\n      0x00\n      dup2\n      dup1\n      mload\n      0x20\n      dup2\n      add\n      dup3\n      add\n      dup1\n      mload\n      dup5\n      dup3\n      mstore\n      0x20\n      dup4\n      add\n      0x20\n      dup6\n      add\n      keccak256\n      dup2\n      dup4\n      mstore\n      dup1\n      swap6\n      pop\n      pop\n      pop\n      pop\n      pop\n      pop\n      0x00\n      swap2\n      pop\n      swap1\n      pop\n      sload\n      dup2\n      jump\t// out\n        /* \"artifacts/Voting.sol\":1268:1379  function getVotes(string memory name)public view returns (int){... */\n    tag_22:\n        /* \"artifacts/Voting.sol\":1326:1329  int */\n      0x00\n        /* \"artifacts/Voting.sol\":1348:1365  candidatesMapping */\n      0x00\n        /* \"artifacts/Voting.sol\":1366:1370  name */\n      dup3\n        /* \"artifacts/Voting.sol\":1348:1371  candidatesMapping[name] */\n      mload(0x40)\n      tag_38\n      swap2\n      swap1\n      tag_39\n      jump\t// in\n    tag_38:\n      swap1\n      dup2\n      mstore\n      0x20\n      add\n      mload(0x40)\n      dup1\n      swap2\n      sub\n      swap1\n      keccak256\n      sload\n        /* \"artifacts/Voting.sol\":1341:1371  return candidatesMapping[name] */\n      swap1\n      pop\n        /* \"artifacts/Voting.sol\":1268:1379  function getVotes(string memory name)public view returns (int){... */\n      swap2\n      swap1\n      pop\n      jump\t// out\n        /* \"artifacts/Voting.sol\":275:305  string[] public candidateNames */\n    tag_27:\n      0x02\n      dup2\n      dup2\n      sload\n      dup2\n      lt\n      tag_40\n      jumpi\n      0x00\n      dup1\n      revert\n    tag_40:\n      swap1\n      0x00\n      mstore\n      keccak256(0x00, 0x20)\n      add\n      0x00\n      swap2\n      pop\n      swap1\n      pop\n      dup1\n      sload\n      tag_42\n      swap1\n      tag_43\n      jump\t// in\n    tag_42:\n      dup1\n      0x1f\n      add\n      0x20\n      dup1\n      swap2\n      div\n      mul\n      0x20\n      add\n      mload(0x40)\n      swap1\n      dup2\n      add\n      0x40\n      mstore\n      dup1\n      swap3\n      swap2\n      swap1\n      dup2\n      dup2\n      mstore\n      0x20\n      add\n      dup3\n      dup1\n      sload\n      tag_44\n      swap1\n      tag_43\n      jump\t// in\n    tag_44:\n      dup1\n      iszero\n      tag_45\n      jumpi\n      dup1\n      0x1f\n      lt\n      tag_46\n      jumpi\n      0x0100\n      dup1\n      dup4\n      sload\n      div\n      mul\n      dup4\n      mstore\n      swap2\n      0x20\n      add\n      swap2\n      jump(tag_45)\n    tag_46:\n      dup3\n      add\n      swap2\n      swap1\n      0x00\n      mstore\n      keccak256(0x00, 0x20)\n      swap1\n    tag_47:\n      dup2\n      sload\n      dup2\n      mstore\n      swap1\n      0x01\n      add\n      swap1\n      0x20\n      add\n      dup1\n      dup4\n      gt\n      tag_47\n      jumpi\n      dup3\n      swap1\n      sub\n      0x1f\n      and\n      dup3\n      add\n      swap2\n    tag_45:\n      pop\n      pop\n      pop\n      pop\n      pop\n      dup2\n      jump\t// out\n        /* \"artifacts/Voting.sol\":1391:1600  function resetVotes() public {... */\n    tag_31:\n        /* \"artifacts/Voting.sol\":1482:1488  uint i */\n      0x00\n        /* \"artifacts/Voting.sol\":1491:1492  0 */\n      0x00\n        /* \"artifacts/Voting.sol\":1482:1492  uint i = 0 */\n      swap1\n      pop\n        /* \"artifacts/Voting.sol\":1477:1593  for (uint i = 0; i < candidateNames.length; i++) {... */\n    tag_49:\n        /* \"artifacts/Voting.sol\":1498:1512  candidateNames */\n      0x02\n        /* \"artifacts/Voting.sol\":1498:1519  candidateNames.length */\n      dup1\n      sload\n      swap1\n      pop\n        /* \"artifacts/Voting.sol\":1494:1495  i */\n      dup2\n        /* \"artifacts/Voting.sol\":1494:1519  i < candidateNames.length */\n      lt\n        /* \"artifacts/Voting.sol\":1477:1593  for (uint i = 0; i < candidateNames.length; i++) {... */\n      iszero\n      tag_50\n      jumpi\n        /* \"artifacts/Voting.sol\":1580:1581  0 */\n      0x00\n        /* \"artifacts/Voting.sol\":1541:1558  candidatesMapping */\n      0x00\n        /* \"artifacts/Voting.sol\":1559:1573  candidateNames */\n      0x02\n        /* \"artifacts/Voting.sol\":1574:1575  i */\n      dup4\n        /* \"artifacts/Voting.sol\":1559:1576  candidateNames[i] */\n      dup2\n      sload\n      dup2\n      lt\n      tag_52\n      jumpi\n      tag_53\n      tag_54\n      jump\t// in\n    tag_53:\n    tag_52:\n      swap1\n      0x00\n      mstore\n      keccak256(0x00, 0x20)\n      add\n        /* \"artifacts/Voting.sol\":1541:1577  candidatesMapping[candidateNames[i]] */\n      mload(0x40)\n      tag_56\n      swap2\n      swap1\n      tag_57\n      jump\t// in\n    tag_56:\n      swap1\n      dup2\n      mstore\n      0x20\n      add\n      mload(0x40)\n      dup1\n      swap2\n      sub\n      swap1\n      keccak256\n        /* \"artifacts/Voting.sol\":1541:1581  candidatesMapping[candidateNames[i]] = 0 */\n      dup2\n      swap1\n      sstore\n      pop\n        /* \"artifacts/Voting.sol\":1521:1524  i++ */\n      dup1\n      dup1\n      0x01\n      add\n      swap2\n      pop\n      pop\n        /* \"artifacts/Voting.sol\":1477:1593  for (uint i = 0; i < candidateNames.length; i++) {... */\n      jump(tag_49)\n    tag_50:\n      pop\n        /* \"artifacts/Voting.sol\":1391:1600  function resetVotes() public {... */\n      jump\t// out\n        /* \"artifacts/Voting.sol\":356:1218  function vote(string memory voterName,string memory candidateName)public  returns (bool){... */\n    tag_35:\n        /* \"artifacts/Voting.sol\":439:443  bool */\n      0x00\n        /* \"artifacts/Voting.sol\":455:474  bool isNewCandidate */\n      0x00\n        /* \"artifacts/Voting.sol\":477:481  true */\n      0x01\n        /* \"artifacts/Voting.sol\":455:481  bool isNewCandidate = true */\n      swap1\n      pop\n        /* \"artifacts/Voting.sol\":543:549  uint i */\n      0x00\n        /* \"artifacts/Voting.sol\":552:553  0 */\n      0x00\n        /* \"artifacts/Voting.sol\":543:553  uint i = 0 */\n      swap1\n      pop\n        /* \"artifacts/Voting.sol\":538:851  for (uint i = 0; i < candidateNames.length; i++) {... */\n    tag_59:\n        /* \"artifacts/Voting.sol\":559:573  candidateNames */\n      0x02\n        /* \"artifacts/Voting.sol\":559:580  candidateNames.length */\n      dup1\n      sload\n      swap1\n      pop\n        /* \"artifacts/Voting.sol\":555:556  i */\n      dup2\n        /* \"artifacts/Voting.sol\":555:580  i < candidateNames.length */\n      lt\n        /* \"artifacts/Voting.sol\":538:851  for (uint i = 0; i < candidateNames.length; i++) {... */\n      iszero\n      tag_60\n      jumpi\n        /* \"artifacts/Voting.sol\":740:753  candidateName */\n      dup4\n        /* \"artifacts/Voting.sol\":723:754  abi.encodePacked(candidateName) */\n      add(0x20, mload(0x40))\n      tag_62\n      swap2\n      swap1\n      tag_39\n      jump\t// in\n    tag_62:\n      mload(0x40)\n      0x20\n      dup2\n      dup4\n      sub\n      sub\n      dup2\n      mstore\n      swap1\n      0x40\n      mstore\n        /* \"artifacts/Voting.sol\":713:755  keccak256(abi.encodePacked(candidateName)) */\n      dup1\n      mload\n      swap1\n      0x20\n      add\n      keccak256\n        /* \"artifacts/Voting.sol\":690:704  candidateNames */\n      0x02\n        /* \"artifacts/Voting.sol\":705:706  i */\n      dup3\n        /* \"artifacts/Voting.sol\":690:707  candidateNames[i] */\n      dup2\n      sload\n      dup2\n      lt\n      tag_63\n      jumpi\n      tag_64\n      tag_54\n      jump\t// in\n    tag_64:\n    tag_63:\n      swap1\n      0x00\n      mstore\n      keccak256(0x00, 0x20)\n      add\n        /* \"artifacts/Voting.sol\":673:708  abi.encodePacked(candidateNames[i]) */\n      add(0x20, mload(0x40))\n      tag_66\n      swap2\n      swap1\n      tag_57\n      jump\t// in\n    tag_66:\n      mload(0x40)\n      0x20\n      dup2\n      dup4\n      sub\n      sub\n      dup2\n      mstore\n      swap1\n      0x40\n      mstore\n        /* \"artifacts/Voting.sol\":663:709  keccak256(abi.encodePacked(candidateNames[i])) */\n      dup1\n      mload\n      swap1\n      0x20\n      add\n      keccak256\n        /* \"artifacts/Voting.sol\":663:755  keccak256(abi.encodePacked(candidateNames[i])) == keccak256(abi.encodePacked(candidateName)) */\n      sub\n        /* \"artifacts/Voting.sol\":659:840  if (keccak256(abi.encodePacked(candidateNames[i])) == keccak256(abi.encodePacked(candidateName))) {... */\n      tag_67\n      jumpi\n        /* \"artifacts/Voting.sol\":795:800  false */\n      0x00\n        /* \"artifacts/Voting.sol\":778:800  isNewCandidate = false */\n      swap2\n      pop\n        /* \"artifacts/Voting.sol\":819:824  break */\n      jump(tag_60)\n        /* \"artifacts/Voting.sol\":659:840  if (keccak256(abi.encodePacked(candidateNames[i])) == keccak256(abi.encodePacked(candidateName))) {... */\n    tag_67:\n        /* \"artifacts/Voting.sol\":582:585  i++ */\n      dup1\n      dup1\n      0x01\n      add\n      swap2\n      pop\n      pop\n        /* \"artifacts/Voting.sol\":538:851  for (uint i = 0; i < candidateNames.length; i++) {... */\n      jump(tag_59)\n    tag_60:\n      pop\n        /* \"artifacts/Voting.sol\":920:934  isNewCandidate */\n      dup1\n        /* \"artifacts/Voting.sol\":916:997  if (isNewCandidate) {... */\n      iszero\n      tag_68\n      jumpi\n        /* \"artifacts/Voting.sol\":951:965  candidateNames */\n      0x02\n        /* \"artifacts/Voting.sol\":971:984  candidateName */\n      dup4\n        /* \"artifacts/Voting.sol\":951:985  candidateNames.push(candidateName) */\n      swap1\n      dup1\n      0x01\n      dup2\n      sload\n      add\n      dup1\n      dup3\n      sstore\n      dup1\n      swap2\n      pop\n      pop\n      0x01\n      swap1\n      sub\n      swap1\n      0x00\n      mstore\n      keccak256(0x00, 0x20)\n      add\n      0x00\n      swap1\n      swap2\n      swap1\n      swap2\n      swap1\n      swap2\n      pop\n      swap1\n      dup2\n      tag_70\n      swap2\n      swap1\n      tag_71\n      jump\t// in\n    tag_70:\n      pop\n        /* \"artifacts/Voting.sol\":916:997  if (isNewCandidate) {... */\n    tag_68:\n        /* \"artifacts/Voting.sol\":1042:1050  hasVoted */\n      0x01\n        /* \"artifacts/Voting.sol\":1051:1060  voterName */\n      dup5\n        /* \"artifacts/Voting.sol\":1042:1061  hasVoted[voterName] */\n      mload(0x40)\n      tag_72\n      swap2\n      swap1\n      tag_39\n      jump\t// in\n    tag_72:\n      swap1\n      dup2\n      mstore\n      0x20\n      add\n      mload(0x40)\n      dup1\n      swap2\n      sub\n      swap1\n      keccak256\n      0x00\n      swap1\n      sload\n      swap1\n      0x0100\n      exp\n      swap1\n      div\n      0xff\n      and\n        /* \"artifacts/Voting.sol\":1038:1211  if (hasVoted[voterName]) {... */\n      iszero\n      tag_73\n      jumpi\n        /* \"artifacts/Voting.sol\":1085:1090  false */\n      0x00\n        /* \"artifacts/Voting.sol\":1078:1090  return false */\n      swap2\n      pop\n      pop\n      jump(tag_58)\n        /* \"artifacts/Voting.sol\":1038:1211  if (hasVoted[voterName]) {... */\n    tag_73:\n        /* \"artifacts/Voting.sol\":1145:1149  true */\n      0x01\n        /* \"artifacts/Voting.sol\":1123:1131  hasVoted */\n      dup1\n        /* \"artifacts/Voting.sol\":1132:1141  voterName */\n      dup6\n        /* \"artifacts/Voting.sol\":1123:1142  hasVoted[voterName] */\n      mload(0x40)\n      tag_75\n      swap2\n      swap1\n      tag_39\n      jump\t// in\n    tag_75:\n      swap1\n      dup2\n      mstore\n      0x20\n      add\n      mload(0x40)\n      dup1\n      swap2\n      sub\n      swap1\n      keccak256\n      0x00\n        /* \"artifacts/Voting.sol\":1123:1149  hasVoted[voterName] = true */\n      0x0100\n      exp\n      dup2\n      sload\n      dup2\n      0xff\n      mul\n      not\n      and\n      swap1\n      dup4\n      iszero\n      iszero\n      mul\n      or\n      swap1\n      sstore\n      pop\n        /* \"artifacts/Voting.sol\":1164:1181  candidatesMapping */\n      0x00\n        /* \"artifacts/Voting.sol\":1182:1195  candidateName */\n      dup4\n        /* \"artifacts/Voting.sol\":1164:1196  candidatesMapping[candidateName] */\n      mload(0x40)\n      tag_76\n      swap2\n      swap1\n      tag_39\n      jump\t// in\n    tag_76:\n      swap1\n      dup2\n      mstore\n      0x20\n      add\n      mload(0x40)\n      dup1\n      swap2\n      sub\n      swap1\n      keccak256\n      0x00\n        /* \"artifacts/Voting.sol\":1164:1199  candidatesMapping[candidateName] ++ */\n      dup2\n      sload\n      dup1\n      swap3\n      swap2\n      swap1\n      tag_77\n      swap1\n      tag_78\n      jump\t// in\n    tag_77:\n      swap2\n      swap1\n      pop\n      sstore\n      pop\n        /* \"artifacts/Voting.sol\":444:1218  {... */\n      pop\n        /* \"artifacts/Voting.sol\":356:1218  function vote(string memory voterName,string memory candidateName)public  returns (bool){... */\n    tag_58:\n      swap3\n      swap2\n      pop\n      pop\n      jump\t// out\n        /* \"#utility.yul\":7:82   */\n    tag_79:\n        /* \"#utility.yul\":40:46   */\n      0x00\n        /* \"#utility.yul\":73:75   */\n      0x40\n        /* \"#utility.yul\":67:76   */\n      mload\n        /* \"#utility.yul\":57:76   */\n      swap1\n      pop\n        /* \"#utility.yul\":7:82   */\n      swap1\n      jump\t// out\n        /* \"#utility.yul\":88:205   */\n    tag_80:\n        /* \"#utility.yul\":197:198   */\n      0x00\n        /* \"#utility.yul\":194:195   */\n      0x00\n        /* \"#utility.yul\":187:199   */\n      revert\n        /* \"#utility.yul\":211:328   */\n    tag_81:\n        /* \"#utility.yul\":320:321   */\n      0x00\n        /* \"#utility.yul\":317:318   */\n      0x00\n        /* \"#utility.yul\":310:322   */\n      revert\n        /* \"#utility.yul\":334:451   */\n    tag_82:\n        /* \"#utility.yul\":443:444   */\n      0x00\n        /* \"#utility.yul\":440:441   */\n      0x00\n        /* \"#utility.yul\":433:445   */\n      revert\n        /* \"#utility.yul\":457:574   */\n    tag_83:\n        /* \"#utility.yul\":566:567   */\n      0x00\n        /* \"#utility.yul\":563:564   */\n      0x00\n        /* \"#utility.yul\":556:568   */\n      revert\n        /* \"#utility.yul\":580:682   */\n    tag_84:\n        /* \"#utility.yul\":621:627   */\n      0x00\n        /* \"#utility.yul\":672:674   */\n      0x1f\n        /* \"#utility.yul\":668:675   */\n      not\n        /* \"#utility.yul\":663:665   */\n      0x1f\n        /* \"#utility.yul\":656:661   */\n      dup4\n        /* \"#utility.yul\":652:666   */\n      add\n        /* \"#utility.yul\":648:676   */\n      and\n        /* \"#utility.yul\":638:676   */\n      swap1\n      pop\n        /* \"#utility.yul\":580:682   */\n      swap2\n      swap1\n      pop\n      jump\t// out\n        /* \"#utility.yul\":688:868   */\n    tag_85:\n        /* \"#utility.yul\":736:813   */\n      0x4e487b7100000000000000000000000000000000000000000000000000000000\n        /* \"#utility.yul\":733:734   */\n      0x00\n        /* \"#utility.yul\":726:814   */\n      mstore\n        /* \"#utility.yul\":833:837   */\n      0x41\n        /* \"#utility.yul\":830:831   */\n      0x04\n        /* \"#utility.yul\":823:838   */\n      mstore\n        /* \"#utility.yul\":857:861   */\n      0x24\n        /* \"#utility.yul\":854:855   */\n      0x00\n        /* \"#utility.yul\":847:862   */\n      revert\n        /* \"#utility.yul\":874:1155   */\n    tag_86:\n        /* \"#utility.yul\":957:984   */\n      tag_132\n        /* \"#utility.yul\":979:983   */\n      dup3\n        /* \"#utility.yul\":957:984   */\n      tag_84\n      jump\t// in\n    tag_132:\n        /* \"#utility.yul\":949:955   */\n      dup2\n        /* \"#utility.yul\":945:985   */\n      add\n        /* \"#utility.yul\":1087:1093   */\n      dup2\n        /* \"#utility.yul\":1075:1085   */\n      dup2\n        /* \"#utility.yul\":1072:1094   */\n      lt\n        /* \"#utility.yul\":1051:1069   */\n      0xffffffffffffffff\n        /* \"#utility.yul\":1039:1049   */\n      dup3\n        /* \"#utility.yul\":1036:1070   */\n      gt\n        /* \"#utility.yul\":1033:1095   */\n      or\n        /* \"#utility.yul\":1030:1118   */\n      iszero\n      tag_133\n      jumpi\n        /* \"#utility.yul\":1098:1116   */\n      tag_134\n      tag_85\n      jump\t// in\n    tag_134:\n        /* \"#utility.yul\":1030:1118   */\n    tag_133:\n        /* \"#utility.yul\":1138:1148   */\n      dup1\n        /* \"#utility.yul\":1134:1136   */\n      0x40\n        /* \"#utility.yul\":1127:1149   */\n      mstore\n        /* \"#utility.yul\":917:1155   */\n      pop\n        /* \"#utility.yul\":874:1155   */\n      pop\n      pop\n      jump\t// out\n        /* \"#utility.yul\":1161:1290   */\n    tag_87:\n        /* \"#utility.yul\":1195:1201   */\n      0x00\n        /* \"#utility.yul\":1222:1242   */\n      tag_136\n      tag_79\n      jump\t// in\n    tag_136:\n        /* \"#utility.yul\":1212:1242   */\n      swap1\n      pop\n        /* \"#utility.yul\":1251:1284   */\n      tag_137\n        /* \"#utility.yul\":1279:1283   */\n      dup3\n        /* \"#utility.yul\":1271:1277   */\n      dup3\n        /* \"#utility.yul\":1251:1284   */\n      tag_86\n      jump\t// in\n    tag_137:\n        /* \"#utility.yul\":1161:1290   */\n      swap2\n      swap1\n      pop\n      jump\t// out\n        /* \"#utility.yul\":1296:1604   */\n    tag_88:\n        /* \"#utility.yul\":1358:1362   */\n      0x00\n        /* \"#utility.yul\":1448:1466   */\n      0xffffffffffffffff\n        /* \"#utility.yul\":1440:1446   */\n      dup3\n        /* \"#utility.yul\":1437:1467   */\n      gt\n        /* \"#utility.yul\":1434:1490   */\n      iszero\n      tag_139\n      jumpi\n        /* \"#utility.yul\":1470:1488   */\n      tag_140\n      tag_85\n      jump\t// in\n    tag_140:\n        /* \"#utility.yul\":1434:1490   */\n    tag_139:\n        /* \"#utility.yul\":1508:1537   */\n      tag_141\n        /* \"#utility.yul\":1530:1536   */\n      dup3\n        /* \"#utility.yul\":1508:1537   */\n      tag_84\n      jump\t// in\n    tag_141:\n        /* \"#utility.yul\":1500:1537   */\n      swap1\n      pop\n        /* \"#utility.yul\":1592:1596   */\n      0x20\n        /* \"#utility.yul\":1586:1590   */\n      dup2\n        /* \"#utility.yul\":1582:1597   */\n      add\n        /* \"#utility.yul\":1574:1597   */\n      swap1\n      pop\n        /* \"#utility.yul\":1296:1604   */\n      swap2\n      swap1\n      pop\n      jump\t// out\n        /* \"#utility.yul\":1610:1758   */\n    tag_89:\n        /* \"#utility.yul\":1708:1714   */\n      dup3\n        /* \"#utility.yul\":1703:1706   */\n      dup2\n        /* \"#utility.yul\":1698:1701   */\n      dup4\n        /* \"#utility.yul\":1685:1715   */\n      calldatacopy\n        /* \"#utility.yul\":1749:1750   */\n      0x00\n        /* \"#utility.yul\":1740:1746   */\n      dup4\n        /* \"#utility.yul\":1735:1738   */\n      dup4\n        /* \"#utility.yul\":1731:1747   */\n      add\n        /* \"#utility.yul\":1724:1751   */\n      mstore\n        /* \"#utility.yul\":1610:1758   */\n      pop\n      pop\n      pop\n      jump\t// out\n        /* \"#utility.yul\":1764:2189   */\n    tag_90:\n        /* \"#utility.yul\":1842:1847   */\n      0x00\n        /* \"#utility.yul\":1867:1933   */\n      tag_144\n        /* \"#utility.yul\":1883:1932   */\n      tag_145\n        /* \"#utility.yul\":1925:1931   */\n      dup5\n        /* \"#utility.yul\":1883:1932   */\n      tag_88\n      jump\t// in\n    tag_145:\n        /* \"#utility.yul\":1867:1933   */\n      tag_87\n      jump\t// in\n    tag_144:\n        /* \"#utility.yul\":1858:1933   */\n      swap1\n      pop\n        /* \"#utility.yul\":1956:1962   */\n      dup3\n        /* \"#utility.yul\":1949:1954   */\n      dup2\n        /* \"#utility.yul\":1942:1963   */\n      mstore\n        /* \"#utility.yul\":1994:1998   */\n      0x20\n        /* \"#utility.yul\":1987:1992   */\n      dup2\n        /* \"#utility.yul\":1983:1999   */\n      add\n        /* \"#utility.yul\":2032:2035   */\n      dup5\n        /* \"#utility.yul\":2023:2029   */\n      dup5\n        /* \"#utility.yul\":2018:2021   */\n      dup5\n        /* \"#utility.yul\":2014:2030   */\n      add\n        /* \"#utility.yul\":2011:2036   */\n      gt\n        /* \"#utility.yul\":2008:2120   */\n      iszero\n      tag_146\n      jumpi\n        /* \"#utility.yul\":2039:2118   */\n      tag_147\n      tag_83\n      jump\t// in\n    tag_147:\n        /* \"#utility.yul\":2008:2120   */\n    tag_146:\n        /* \"#utility.yul\":2129:2183   */\n      tag_148\n        /* \"#utility.yul\":2176:2182   */\n      dup5\n        /* \"#utility.yul\":2171:2174   */\n      dup3\n        /* \"#utility.yul\":2166:2169   */\n      dup6\n        /* \"#utility.yul\":2129:2183   */\n      tag_89\n      jump\t// in\n    tag_148:\n        /* \"#utility.yul\":1848:2189   */\n      pop\n        /* \"#utility.yul\":1764:2189   */\n      swap4\n      swap3\n      pop\n      pop\n      pop\n      jump\t// out\n        /* \"#utility.yul\":2209:2549   */\n    tag_91:\n        /* \"#utility.yul\":2265:2270   */\n      0x00\n        /* \"#utility.yul\":2314:2317   */\n      dup3\n        /* \"#utility.yul\":2307:2311   */\n      0x1f\n        /* \"#utility.yul\":2299:2305   */\n      dup4\n        /* \"#utility.yul\":2295:2312   */\n      add\n        /* \"#utility.yul\":2291:2318   */\n      slt\n        /* \"#utility.yul\":2281:2403   */\n      tag_150\n      jumpi\n        /* \"#utility.yul\":2322:2401   */\n      tag_151\n      tag_82\n      jump\t// in\n    tag_151:\n        /* \"#utility.yul\":2281:2403   */\n    tag_150:\n        /* \"#utility.yul\":2439:2445   */\n      dup2\n        /* \"#utility.yul\":2426:2446   */\n      calldataload\n        /* \"#utility.yul\":2464:2543   */\n      tag_152\n        /* \"#utility.yul\":2539:2542   */\n      dup5\n        /* \"#utility.yul\":2531:2537   */\n      dup3\n        /* \"#utility.yul\":2524:2528   */\n      0x20\n        /* \"#utility.yul\":2516:2522   */\n      dup7\n        /* \"#utility.yul\":2512:2529   */\n      add\n        /* \"#utility.yul\":2464:2543   */\n      tag_90\n      jump\t// in\n    tag_152:\n        /* \"#utility.yul\":2455:2543   */\n      swap2\n      pop\n        /* \"#utility.yul\":2271:2549   */\n      pop\n        /* \"#utility.yul\":2209:2549   */\n      swap3\n      swap2\n      pop\n      pop\n      jump\t// out\n        /* \"#utility.yul\":2555:3064   */\n    tag_11:\n        /* \"#utility.yul\":2624:2630   */\n      0x00\n        /* \"#utility.yul\":2673:2675   */\n      0x20\n        /* \"#utility.yul\":2661:2670   */\n      dup3\n        /* \"#utility.yul\":2652:2659   */\n      dup5\n        /* \"#utility.yul\":2648:2671   */\n      sub\n        /* \"#utility.yul\":2644:2676   */\n      slt\n        /* \"#utility.yul\":2641:2760   */\n      iszero\n      tag_154\n      jumpi\n        /* \"#utility.yul\":2679:2758   */\n      tag_155\n      tag_80\n      jump\t// in\n    tag_155:\n        /* \"#utility.yul\":2641:2760   */\n    tag_154:\n        /* \"#utility.yul\":2827:2828   */\n      0x00\n        /* \"#utility.yul\":2816:2825   */\n      dup3\n        /* \"#utility.yul\":2812:2829   */\n      add\n        /* \"#utility.yul\":2799:2830   */\n      calldataload\n        /* \"#utility.yul\":2857:2875   */\n      0xffffffffffffffff\n        /* \"#utility.yul\":2849:2855   */\n      dup2\n        /* \"#utility.yul\":2846:2876   */\n      gt\n        /* \"#utility.yul\":2843:2960   */\n      iszero\n      tag_156\n      jumpi\n        /* \"#utility.yul\":2879:2958   */\n      tag_157\n      tag_81\n      jump\t// in\n    tag_157:\n        /* \"#utility.yul\":2843:2960   */\n    tag_156:\n        /* \"#utility.yul\":2984:3047   */\n      tag_158\n        /* \"#utility.yul\":3039:3046   */\n      dup5\n        /* \"#utility.yul\":3030:3036   */\n      dup3\n        /* \"#utility.yul\":3019:3028   */\n      dup6\n        /* \"#utility.yul\":3015:3037   */\n      add\n        /* \"#utility.yul\":2984:3047   */\n      tag_91\n      jump\t// in\n    tag_158:\n        /* \"#utility.yul\":2974:3047   */\n      swap2\n      pop\n        /* \"#utility.yul\":2770:3057   */\n      pop\n        /* \"#utility.yul\":2555:3064   */\n      swap3\n      swap2\n      pop\n      pop\n      jump\t// out\n        /* \"#utility.yul\":3070:3160   */\n    tag_92:\n        /* \"#utility.yul\":3104:3111   */\n      0x00\n        /* \"#utility.yul\":3147:3152   */\n      dup2\n        /* \"#utility.yul\":3140:3153   */\n      iszero\n        /* \"#utility.yul\":3133:3154   */\n      iszero\n        /* \"#utility.yul\":3122:3154   */\n      swap1\n      pop\n        /* \"#utility.yul\":3070:3160   */\n      swap2\n      swap1\n      pop\n      jump\t// out\n        /* \"#utility.yul\":3166:3275   */\n    tag_93:\n        /* \"#utility.yul\":3247:3268   */\n      tag_161\n        /* \"#utility.yul\":3262:3267   */\n      dup2\n        /* \"#utility.yul\":3247:3268   */\n      tag_92\n      jump\t// in\n    tag_161:\n        /* \"#utility.yul\":3242:3245   */\n      dup3\n        /* \"#utility.yul\":3235:3269   */\n      mstore\n        /* \"#utility.yul\":3166:3275   */\n      pop\n      pop\n      jump\t// out\n        /* \"#utility.yul\":3281:3491   */\n    tag_14:\n        /* \"#utility.yul\":3368:3372   */\n      0x00\n        /* \"#utility.yul\":3406:3408   */\n      0x20\n        /* \"#utility.yul\":3395:3404   */\n      dup3\n        /* \"#utility.yul\":3391:3409   */\n      add\n        /* \"#utility.yul\":3383:3409   */\n      swap1\n      pop\n        /* \"#utility.yul\":3419:3484   */\n      tag_163\n        /* \"#utility.yul\":3481:3482   */\n      0x00\n        /* \"#utility.yul\":3470:3479   */\n      dup4\n        /* \"#utility.yul\":3466:3483   */\n      add\n        /* \"#utility.yul\":3457:3463   */\n      dup5\n        /* \"#utility.yul\":3419:3484   */\n      tag_93\n      jump\t// in\n    tag_163:\n        /* \"#utility.yul\":3281:3491   */\n      swap3\n      swap2\n      pop\n      pop\n      jump\t// out\n        /* \"#utility.yul\":3497:3573   */\n    tag_94:\n        /* \"#utility.yul\":3533:3540   */\n      0x00\n        /* \"#utility.yul\":3562:3567   */\n      dup2\n        /* \"#utility.yul\":3551:3567   */\n      swap1\n      pop\n        /* \"#utility.yul\":3497:3573   */\n      swap2\n      swap1\n      pop\n      jump\t// out\n        /* \"#utility.yul\":3579:3694   */\n    tag_95:\n        /* \"#utility.yul\":3664:3687   */\n      tag_166\n        /* \"#utility.yul\":3681:3686   */\n      dup2\n        /* \"#utility.yul\":3664:3687   */\n      tag_94\n      jump\t// in\n    tag_166:\n        /* \"#utility.yul\":3659:3662   */\n      dup3\n        /* \"#utility.yul\":3652:3688   */\n      mstore\n        /* \"#utility.yul\":3579:3694   */\n      pop\n      pop\n      jump\t// out\n        /* \"#utility.yul\":3700:3918   */\n    tag_19:\n        /* \"#utility.yul\":3791:3795   */\n      0x00\n        /* \"#utility.yul\":3829:3831   */\n      0x20\n        /* \"#utility.yul\":3818:3827   */\n      dup3\n        /* \"#utility.yul\":3814:3832   */\n      add\n        /* \"#utility.yul\":3806:3832   */\n      swap1\n      pop\n        /* \"#utility.yul\":3842:3911   */\n      tag_168\n        /* \"#utility.yul\":3908:3909   */\n      0x00\n        /* \"#utility.yul\":3897:3906   */\n      dup4\n        /* \"#utility.yul\":3893:3910   */\n      add\n        /* \"#utility.yul\":3884:3890   */\n      dup5\n        /* \"#utility.yul\":3842:3911   */\n      tag_95\n      jump\t// in\n    tag_168:\n        /* \"#utility.yul\":3700:3918   */\n      swap3\n      swap2\n      pop\n      pop\n      jump\t// out\n        /* \"#utility.yul\":3924:4001   */\n    tag_96:\n        /* \"#utility.yul\":3961:3968   */\n      0x00\n        /* \"#utility.yul\":3990:3995   */\n      dup2\n        /* \"#utility.yul\":3979:3995   */\n      swap1\n      pop\n        /* \"#utility.yul\":3924:4001   */\n      swap2\n      swap1\n      pop\n      jump\t// out\n        /* \"#utility.yul\":4007:4129   */\n    tag_97:\n        /* \"#utility.yul\":4080:4104   */\n      tag_171\n        /* \"#utility.yul\":4098:4103   */\n      dup2\n        /* \"#utility.yul\":4080:4104   */\n      tag_96\n      jump\t// in\n    tag_171:\n        /* \"#utility.yul\":4073:4078   */\n      dup2\n        /* \"#utility.yul\":4070:4105   */\n      eq\n        /* \"#utility.yul\":4060:4123   */\n      tag_172\n      jumpi\n        /* \"#utility.yul\":4119:4120   */\n      0x00\n        /* \"#utility.yul\":4116:4117   */\n      0x00\n        /* \"#utility.yul\":4109:4121   */\n      revert\n        /* \"#utility.yul\":4060:4123   */\n    tag_172:\n        /* \"#utility.yul\":4007:4129   */\n      pop\n      jump\t// out\n        /* \"#utility.yul\":4135:4274   */\n    tag_98:\n        /* \"#utility.yul\":4181:4186   */\n      0x00\n        /* \"#utility.yul\":4219:4225   */\n      dup2\n        /* \"#utility.yul\":4206:4226   */\n      calldataload\n        /* \"#utility.yul\":4197:4226   */\n      swap1\n      pop\n        /* \"#utility.yul\":4235:4268   */\n      tag_174\n        /* \"#utility.yul\":4262:4267   */\n      dup2\n        /* \"#utility.yul\":4235:4268   */\n      tag_97\n      jump\t// in\n    tag_174:\n        /* \"#utility.yul\":4135:4274   */\n      swap3\n      swap2\n      pop\n      pop\n      jump\t// out\n        /* \"#utility.yul\":4280:4609   */\n    tag_26:\n        /* \"#utility.yul\":4339:4345   */\n      0x00\n        /* \"#utility.yul\":4388:4390   */\n      0x20\n        /* \"#utility.yul\":4376:4385   */\n      dup3\n        /* \"#utility.yul\":4367:4374   */\n      dup5\n        /* \"#utility.yul\":4363:4386   */\n      sub\n        /* \"#utility.yul\":4359:4391   */\n      slt\n        /* \"#utility.yul\":4356:4475   */\n      iszero\n      tag_176\n      jumpi\n        /* \"#utility.yul\":4394:4473   */\n      tag_177\n      tag_80\n      jump\t// in\n    tag_177:\n        /* \"#utility.yul\":4356:4475   */\n    tag_176:\n        /* \"#utility.yul\":4514:4515   */\n      0x00\n        /* \"#utility.yul\":4539:4592   */\n      tag_178\n        /* \"#utility.yul\":4584:4591   */\n      dup5\n        /* \"#utility.yul\":4575:4581   */\n      dup3\n        /* \"#utility.yul\":4564:4573   */\n      dup6\n        /* \"#utility.yul\":4560:4582   */\n      add\n        /* \"#utility.yul\":4539:4592   */\n      tag_98\n      jump\t// in\n    tag_178:\n        /* \"#utility.yul\":4529:4592   */\n      swap2\n      pop\n        /* \"#utility.yul\":4485:4602   */\n      pop\n        /* \"#utility.yul\":4280:4609   */\n      swap3\n      swap2\n      pop\n      pop\n      jump\t// out\n        /* \"#utility.yul\":4615:4714   */\n    tag_99:\n        /* \"#utility.yul\":4667:4673   */\n      0x00\n        /* \"#utility.yul\":4701:4706   */\n      dup2\n        /* \"#utility.yul\":4695:4707   */\n      mload\n        /* \"#utility.yul\":4685:4707   */\n      swap1\n      pop\n        /* \"#utility.yul\":4615:4714   */\n      swap2\n      swap1\n      pop\n      jump\t// out\n        /* \"#utility.yul\":4720:4889   */\n    tag_100:\n        /* \"#utility.yul\":4804:4815   */\n      0x00\n        /* \"#utility.yul\":4838:4844   */\n      dup3\n        /* \"#utility.yul\":4833:4836   */\n      dup3\n        /* \"#utility.yul\":4826:4845   */\n      mstore\n        /* \"#utility.yul\":4878:4882   */\n      0x20\n        /* \"#utility.yul\":4873:4876   */\n      dup3\n        /* \"#utility.yul\":4869:4883   */\n      add\n        /* \"#utility.yul\":4854:4883   */\n      swap1\n      pop\n        /* \"#utility.yul\":4720:4889   */\n      swap3\n      swap2\n      pop\n      pop\n      jump\t// out\n        /* \"#utility.yul\":4895:5034   */\n    tag_101:\n        /* \"#utility.yul\":4984:4990   */\n      dup3\n        /* \"#utility.yul\":4979:4982   */\n      dup2\n        /* \"#utility.yul\":4974:4977   */\n      dup4\n        /* \"#utility.yul\":4968:4991   */\n      mcopy\n        /* \"#utility.yul\":5025:5026   */\n      0x00\n        /* \"#utility.yul\":5016:5022   */\n      dup4\n        /* \"#utility.yul\":5011:5014   */\n      dup4\n        /* \"#utility.yul\":5007:5023   */\n      add\n        /* \"#utility.yul\":5000:5027   */\n      mstore\n        /* \"#utility.yul\":4895:5034   */\n      pop\n      pop\n      pop\n      jump\t// out\n        /* \"#utility.yul\":5040:5417   */\n    tag_102:\n        /* \"#utility.yul\":5128:5131   */\n      0x00\n        /* \"#utility.yul\":5156:5195   */\n      tag_183\n        /* \"#utility.yul\":5189:5194   */\n      dup3\n        /* \"#utility.yul\":5156:5195   */\n      tag_99\n      jump\t// in\n    tag_183:\n        /* \"#utility.yul\":5211:5282   */\n      tag_184\n        /* \"#utility.yul\":5275:5281   */\n      dup2\n        /* \"#utility.yul\":5270:5273   */\n      dup6\n        /* \"#utility.yul\":5211:5282   */\n      tag_100\n      jump\t// in\n    tag_184:\n        /* \"#utility.yul\":5204:5282   */\n      swap4\n      pop\n        /* \"#utility.yul\":5291:5356   */\n      tag_185\n        /* \"#utility.yul\":5349:5355   */\n      dup2\n        /* \"#utility.yul\":5344:5347   */\n      dup6\n        /* \"#utility.yul\":5337:5341   */\n      0x20\n        /* \"#utility.yul\":5330:5335   */\n      dup7\n        /* \"#utility.yul\":5326:5342   */\n      add\n        /* \"#utility.yul\":5291:5356   */\n      tag_101\n      jump\t// in\n    tag_185:\n        /* \"#utility.yul\":5381:5410   */\n      tag_186\n        /* \"#utility.yul\":5403:5409   */\n      dup2\n        /* \"#utility.yul\":5381:5410   */\n      tag_84\n      jump\t// in\n    tag_186:\n        /* \"#utility.yul\":5376:5379   */\n      dup5\n        /* \"#utility.yul\":5372:5411   */\n      add\n        /* \"#utility.yul\":5365:5411   */\n      swap2\n      pop\n        /* \"#utility.yul\":5132:5417   */\n      pop\n        /* \"#utility.yul\":5040:5417   */\n      swap3\n      swap2\n      pop\n      pop\n      jump\t// out\n        /* \"#utility.yul\":5423:5736   */\n    tag_29:\n        /* \"#utility.yul\":5536:5540   */\n      0x00\n        /* \"#utility.yul\":5574:5576   */\n      0x20\n        /* \"#utility.yul\":5563:5572   */\n      dup3\n        /* \"#utility.yul\":5559:5577   */\n      add\n        /* \"#utility.yul\":5551:5577   */\n      swap1\n      pop\n        /* \"#utility.yul\":5623:5632   */\n      dup2\n        /* \"#utility.yul\":5617:5621   */\n      dup2\n        /* \"#utility.yul\":5613:5633   */\n      sub\n        /* \"#utility.yul\":5609:5610   */\n      0x00\n        /* \"#utility.yul\":5598:5607   */\n      dup4\n        /* \"#utility.yul\":5594:5611   */\n      add\n        /* \"#utility.yul\":5587:5634   */\n      mstore\n        /* \"#utility.yul\":5651:5729   */\n      tag_188\n        /* \"#utility.yul\":5724:5728   */\n      dup2\n        /* \"#utility.yul\":5715:5721   */\n      dup5\n        /* \"#utility.yul\":5651:5729   */\n      tag_102\n      jump\t// in\n    tag_188:\n        /* \"#utility.yul\":5643:5729   */\n      swap1\n      pop\n        /* \"#utility.yul\":5423:5736   */\n      swap3\n      swap2\n      pop\n      pop\n      jump\t// out\n        /* \"#utility.yul\":5742:6576   */\n    tag_34:\n        /* \"#utility.yul\":5830:5836   */\n      0x00\n        /* \"#utility.yul\":5838:5844   */\n      0x00\n        /* \"#utility.yul\":5887:5889   */\n      0x40\n        /* \"#utility.yul\":5875:5884   */\n      dup4\n        /* \"#utility.yul\":5866:5873   */\n      dup6\n        /* \"#utility.yul\":5862:5885   */\n      sub\n        /* \"#utility.yul\":5858:5890   */\n      slt\n        /* \"#utility.yul\":5855:5974   */\n      iszero\n      tag_190\n      jumpi\n        /* \"#utility.yul\":5893:5972   */\n      tag_191\n      tag_80\n      jump\t// in\n    tag_191:\n        /* \"#utility.yul\":5855:5974   */\n    tag_190:\n        /* \"#utility.yul\":6041:6042   */\n      0x00\n        /* \"#utility.yul\":6030:6039   */\n      dup4\n        /* \"#utility.yul\":6026:6043   */\n      add\n        /* \"#utility.yul\":6013:6044   */\n      calldataload\n        /* \"#utility.yul\":6071:6089   */\n      0xffffffffffffffff\n        /* \"#utility.yul\":6063:6069   */\n      dup2\n        /* \"#utility.yul\":6060:6090   */\n      gt\n        /* \"#utility.yul\":6057:6174   */\n      iszero\n      tag_192\n      jumpi\n        /* \"#utility.yul\":6093:6172   */\n      tag_193\n      tag_81\n      jump\t// in\n    tag_193:\n        /* \"#utility.yul\":6057:6174   */\n    tag_192:\n        /* \"#utility.yul\":6198:6261   */\n      tag_194\n        /* \"#utility.yul\":6253:6260   */\n      dup6\n        /* \"#utility.yul\":6244:6250   */\n      dup3\n        /* \"#utility.yul\":6233:6242   */\n      dup7\n        /* \"#utility.yul\":6229:6251   */\n      add\n        /* \"#utility.yul\":6198:6261   */\n      tag_91\n      jump\t// in\n    tag_194:\n        /* \"#utility.yul\":6188:6261   */\n      swap3\n      pop\n        /* \"#utility.yul\":5984:6271   */\n      pop\n        /* \"#utility.yul\":6338:6340   */\n      0x20\n        /* \"#utility.yul\":6327:6336   */\n      dup4\n        /* \"#utility.yul\":6323:6341   */\n      add\n        /* \"#utility.yul\":6310:6342   */\n      calldataload\n        /* \"#utility.yul\":6369:6387   */\n      0xffffffffffffffff\n        /* \"#utility.yul\":6361:6367   */\n      dup2\n        /* \"#utility.yul\":6358:6388   */\n      gt\n        /* \"#utility.yul\":6355:6472   */\n      iszero\n      tag_195\n      jumpi\n        /* \"#utility.yul\":6391:6470   */\n      tag_196\n      tag_81\n      jump\t// in\n    tag_196:\n        /* \"#utility.yul\":6355:6472   */\n    tag_195:\n        /* \"#utility.yul\":6496:6559   */\n      tag_197\n        /* \"#utility.yul\":6551:6558   */\n      dup6\n        /* \"#utility.yul\":6542:6548   */\n      dup3\n        /* \"#utility.yul\":6531:6540   */\n      dup7\n        /* \"#utility.yul\":6527:6549   */\n      add\n        /* \"#utility.yul\":6496:6559   */\n      tag_91\n      jump\t// in\n    tag_197:\n        /* \"#utility.yul\":6486:6559   */\n      swap2\n      pop\n        /* \"#utility.yul\":6281:6569   */\n      pop\n        /* \"#utility.yul\":5742:6576   */\n      swap3\n      pop\n      swap3\n      swap1\n      pop\n      jump\t// out\n        /* \"#utility.yul\":6582:6730   */\n    tag_103:\n        /* \"#utility.yul\":6684:6695   */\n      0x00\n        /* \"#utility.yul\":6721:6724   */\n      dup2\n        /* \"#utility.yul\":6706:6724   */\n      swap1\n      pop\n        /* \"#utility.yul\":6582:6730   */\n      swap3\n      swap2\n      pop\n      pop\n      jump\t// out\n        /* \"#utility.yul\":6736:7126   */\n    tag_104:\n        /* \"#utility.yul\":6842:6845   */\n      0x00\n        /* \"#utility.yul\":6870:6909   */\n      tag_200\n        /* \"#utility.yul\":6903:6908   */\n      dup3\n        /* \"#utility.yul\":6870:6909   */\n      tag_99\n      jump\t// in\n    tag_200:\n        /* \"#utility.yul\":6925:7014   */\n      tag_201\n        /* \"#utility.yul\":7007:7013   */\n      dup2\n        /* \"#utility.yul\":7002:7005   */\n      dup6\n        /* \"#utility.yul\":6925:7014   */\n      tag_103\n      jump\t// in\n    tag_201:\n        /* \"#utility.yul\":6918:7014   */\n      swap4\n      pop\n        /* \"#utility.yul\":7023:7088   */\n      tag_202\n        /* \"#utility.yul\":7081:7087   */\n      dup2\n        /* \"#utility.yul\":7076:7079   */\n      dup6\n        /* \"#utility.yul\":7069:7073   */\n      0x20\n        /* \"#utility.yul\":7062:7067   */\n      dup7\n        /* \"#utility.yul\":7058:7074   */\n      add\n        /* \"#utility.yul\":7023:7088   */\n      tag_101\n      jump\t// in\n    tag_202:\n        /* \"#utility.yul\":7113:7119   */\n      dup1\n        /* \"#utility.yul\":7108:7111   */\n      dup5\n        /* \"#utility.yul\":7104:7120   */\n      add\n        /* \"#utility.yul\":7097:7120   */\n      swap2\n      pop\n        /* \"#utility.yul\":6846:7126   */\n      pop\n        /* \"#utility.yul\":6736:7126   */\n      swap3\n      swap2\n      pop\n      pop\n      jump\t// out\n        /* \"#utility.yul\":7132:7407   */\n    tag_39:\n        /* \"#utility.yul\":7264:7267   */\n      0x00\n        /* \"#utility.yul\":7286:7381   */\n      tag_204\n        /* \"#utility.yul\":7377:7380   */\n      dup3\n        /* \"#utility.yul\":7368:7374   */\n      dup5\n        /* \"#utility.yul\":7286:7381   */\n      tag_104\n      jump\t// in\n    tag_204:\n        /* \"#utility.yul\":7279:7381   */\n      swap2\n      pop\n        /* \"#utility.yul\":7398:7401   */\n      dup2\n        /* \"#utility.yul\":7391:7401   */\n      swap1\n      pop\n        /* \"#utility.yul\":7132:7407   */\n      swap3\n      swap2\n      pop\n      pop\n      jump\t// out\n        /* \"#utility.yul\":7413:7593   */\n    tag_105:\n        /* \"#utility.yul\":7461:7538   */\n      0x4e487b7100000000000000000000000000000000000000000000000000000000\n        /* \"#utility.yul\":7458:7459   */\n      0x00\n        /* \"#utility.yul\":7451:7539   */\n      mstore\n        /* \"#utility.yul\":7558:7562   */\n      0x22\n        /* \"#utility.yul\":7555:7556   */\n      0x04\n        /* \"#utility.yul\":7548:7563   */\n      mstore\n        /* \"#utility.yul\":7582:7586   */\n      0x24\n        /* \"#utility.yul\":7579:7580   */\n      0x00\n        /* \"#utility.yul\":7572:7587   */\n      revert\n        /* \"#utility.yul\":7599:7919   */\n    tag_43:\n        /* \"#utility.yul\":7643:7649   */\n      0x00\n        /* \"#utility.yul\":7680:7681   */\n      0x02\n        /* \"#utility.yul\":7674:7678   */\n      dup3\n        /* \"#utility.yul\":7670:7682   */\n      div\n        /* \"#utility.yul\":7660:7682   */\n      swap1\n      pop\n        /* \"#utility.yul\":7727:7728   */\n      0x01\n        /* \"#utility.yul\":7721:7725   */\n      dup3\n        /* \"#utility.yul\":7717:7729   */\n      and\n        /* \"#utility.yul\":7748:7766   */\n      dup1\n        /* \"#utility.yul\":7738:7819   */\n      tag_207\n      jumpi\n        /* \"#utility.yul\":7804:7808   */\n      0x7f\n        /* \"#utility.yul\":7796:7802   */\n      dup3\n        /* \"#utility.yul\":7792:7809   */\n      and\n        /* \"#utility.yul\":7782:7809   */\n      swap2\n      pop\n        /* \"#utility.yul\":7738:7819   */\n    tag_207:\n        /* \"#utility.yul\":7866:7868   */\n      0x20\n        /* \"#utility.yul\":7858:7864   */\n      dup3\n        /* \"#utility.yul\":7855:7869   */\n      lt\n        /* \"#utility.yul\":7835:7853   */\n      dup2\n        /* \"#utility.yul\":7832:7870   */\n      sub\n        /* \"#utility.yul\":7829:7913   */\n      tag_208\n      jumpi\n        /* \"#utility.yul\":7885:7903   */\n      tag_209\n      tag_105\n      jump\t// in\n    tag_209:\n        /* \"#utility.yul\":7829:7913   */\n    tag_208:\n        /* \"#utility.yul\":7650:7919   */\n      pop\n        /* \"#utility.yul\":7599:7919   */\n      swap2\n      swap1\n      pop\n      jump\t// out\n        /* \"#utility.yul\":7925:8105   */\n    tag_54:\n        /* \"#utility.yul\":7973:8050   */\n      0x4e487b7100000000000000000000000000000000000000000000000000000000\n        /* \"#utility.yul\":7970:7971   */\n      0x00\n        /* \"#utility.yul\":7963:8051   */\n      mstore\n        /* \"#utility.yul\":8070:8074   */\n      0x32\n        /* \"#utility.yul\":8067:8068   */\n      0x04\n        /* \"#utility.yul\":8060:8075   */\n      mstore\n        /* \"#utility.yul\":8094:8098   */\n      0x24\n        /* \"#utility.yul\":8091:8092   */\n      0x00\n        /* \"#utility.yul\":8084:8099   */\n      revert\n        /* \"#utility.yul\":8111:8252   */\n    tag_106:\n        /* \"#utility.yul\":8160:8164   */\n      0x00\n        /* \"#utility.yul\":8183:8186   */\n      dup2\n        /* \"#utility.yul\":8175:8186   */\n      swap1\n      pop\n        /* \"#utility.yul\":8206:8209   */\n      dup2\n        /* \"#utility.yul\":8203:8204   */\n      0x00\n        /* \"#utility.yul\":8196:8210   */\n      mstore\n        /* \"#utility.yul\":8240:8244   */\n      0x20\n        /* \"#utility.yul\":8237:8238   */\n      0x00\n        /* \"#utility.yul\":8227:8245   */\n      keccak256\n        /* \"#utility.yul\":8219:8245   */\n      swap1\n      pop\n        /* \"#utility.yul\":8111:8252   */\n      swap2\n      swap1\n      pop\n      jump\t// out\n        /* \"#utility.yul\":8282:9156   */\n    tag_107:\n        /* \"#utility.yul\":8385:8388   */\n      0x00\n        /* \"#utility.yul\":8422:8427   */\n      dup2\n        /* \"#utility.yul\":8416:8428   */\n      sload\n        /* \"#utility.yul\":8451:8487   */\n      tag_213\n        /* \"#utility.yul\":8477:8486   */\n      dup2\n        /* \"#utility.yul\":8451:8487   */\n      tag_43\n      jump\t// in\n    tag_213:\n        /* \"#utility.yul\":8503:8592   */\n      tag_214\n        /* \"#utility.yul\":8585:8591   */\n      dup2\n        /* \"#utility.yul\":8580:8583   */\n      dup7\n        /* \"#utility.yul\":8503:8592   */\n      tag_103\n      jump\t// in\n    tag_214:\n        /* \"#utility.yul\":8496:8592   */\n      swap5\n      pop\n        /* \"#utility.yul\":8623:8624   */\n      0x01\n        /* \"#utility.yul\":8612:8621   */\n      dup3\n        /* \"#utility.yul\":8608:8625   */\n      and\n        /* \"#utility.yul\":8639:8640   */\n      0x00\n        /* \"#utility.yul\":8634:8800   */\n      dup2\n      eq\n      tag_216\n      jumpi\n        /* \"#utility.yul\":8814:8815   */\n      0x01\n        /* \"#utility.yul\":8809:9150   */\n      dup2\n      eq\n      tag_217\n      jumpi\n        /* \"#utility.yul\":8601:9150   */\n      jump(tag_215)\n        /* \"#utility.yul\":8634:8800   */\n    tag_216:\n        /* \"#utility.yul\":8718:8722   */\n      0xff\n        /* \"#utility.yul\":8714:8723   */\n      not\n        /* \"#utility.yul\":8703:8712   */\n      dup4\n        /* \"#utility.yul\":8699:8724   */\n      and\n        /* \"#utility.yul\":8694:8697   */\n      dup7\n        /* \"#utility.yul\":8687:8725   */\n      mstore\n        /* \"#utility.yul\":8780:8786   */\n      dup2\n        /* \"#utility.yul\":8773:8787   */\n      iszero\n        /* \"#utility.yul\":8766:8788   */\n      iszero\n        /* \"#utility.yul\":8758:8764   */\n      dup3\n        /* \"#utility.yul\":8754:8789   */\n      mul\n        /* \"#utility.yul\":8749:8752   */\n      dup7\n        /* \"#utility.yul\":8745:8790   */\n      add\n        /* \"#utility.yul\":8738:8790   */\n      swap4\n      pop\n        /* \"#utility.yul\":8634:8800   */\n      jump(tag_215)\n        /* \"#utility.yul\":8809:9150   */\n    tag_217:\n        /* \"#utility.yul\":8876:8914   */\n      tag_218\n        /* \"#utility.yul\":8908:8913   */\n      dup6\n        /* \"#utility.yul\":8876:8914   */\n      tag_106\n      jump\t// in\n    tag_218:\n        /* \"#utility.yul\":8936:8937   */\n      0x00\n        /* \"#utility.yul\":8950:9104   */\n    tag_219:\n        /* \"#utility.yul\":8964:8970   */\n      dup4\n        /* \"#utility.yul\":8961:8962   */\n      dup2\n        /* \"#utility.yul\":8958:8971   */\n      lt\n        /* \"#utility.yul\":8950:9104   */\n      iszero\n      tag_221\n      jumpi\n        /* \"#utility.yul\":9038:9045   */\n      dup2\n        /* \"#utility.yul\":9032:9046   */\n      sload\n        /* \"#utility.yul\":9028:9029   */\n      dup2\n        /* \"#utility.yul\":9023:9026   */\n      dup10\n        /* \"#utility.yul\":9019:9030   */\n      add\n        /* \"#utility.yul\":9012:9047   */\n      mstore\n        /* \"#utility.yul\":9088:9089   */\n      0x01\n        /* \"#utility.yul\":9079:9086   */\n      dup3\n        /* \"#utility.yul\":9075:9090   */\n      add\n        /* \"#utility.yul\":9064:9090   */\n      swap2\n      pop\n        /* \"#utility.yul\":8986:8990   */\n      0x20\n        /* \"#utility.yul\":8983:8984   */\n      dup2\n        /* \"#utility.yul\":8979:8991   */\n      add\n        /* \"#utility.yul\":8974:8991   */\n      swap1\n      pop\n        /* \"#utility.yul\":8950:9104   */\n      jump(tag_219)\n    tag_221:\n        /* \"#utility.yul\":9133:9139   */\n      dup4\n        /* \"#utility.yul\":9128:9131   */\n      dup9\n        /* \"#utility.yul\":9124:9140   */\n      add\n        /* \"#utility.yul\":9117:9140   */\n      swap6\n      pop\n        /* \"#utility.yul\":8816:9150   */\n      pop\n      pop\n        /* \"#utility.yul\":8601:9150   */\n    tag_215:\n      pop\n        /* \"#utility.yul\":8389:9156   */\n      pop\n      pop\n        /* \"#utility.yul\":8282:9156   */\n      swap3\n      swap2\n      pop\n      pop\n      jump\t// out\n        /* \"#utility.yul\":9162:9431   */\n    tag_57:\n        /* \"#utility.yul\":9291:9294   */\n      0x00\n        /* \"#utility.yul\":9313:9405   */\n      tag_223\n        /* \"#utility.yul\":9401:9404   */\n      dup3\n        /* \"#utility.yul\":9392:9398   */\n      dup5\n        /* \"#utility.yul\":9313:9405   */\n      tag_107\n      jump\t// in\n    tag_223:\n        /* \"#utility.yul\":9306:9405   */\n      swap2\n      pop\n        /* \"#utility.yul\":9422:9425   */\n      dup2\n        /* \"#utility.yul\":9415:9425   */\n      swap1\n      pop\n        /* \"#utility.yul\":9162:9431   */\n      swap3\n      swap2\n      pop\n      pop\n      jump\t// out\n        /* \"#utility.yul\":9437:9530   */\n    tag_108:\n        /* \"#utility.yul\":9474:9480   */\n      0x00\n        /* \"#utility.yul\":9521:9523   */\n      0x20\n        /* \"#utility.yul\":9516:9518   */\n      0x1f\n        /* \"#utility.yul\":9509:9514   */\n      dup4\n        /* \"#utility.yul\":9505:9519   */\n      add\n        /* \"#utility.yul\":9501:9524   */\n      div\n        /* \"#utility.yul\":9491:9524   */\n      swap1\n      pop\n        /* \"#utility.yul\":9437:9530   */\n      swap2\n      swap1\n      pop\n      jump\t// out\n        /* \"#utility.yul\":9536:9643   */\n    tag_109:\n        /* \"#utility.yul\":9580:9588   */\n      0x00\n        /* \"#utility.yul\":9630:9635   */\n      dup3\n        /* \"#utility.yul\":9624:9628   */\n      dup3\n        /* \"#utility.yul\":9620:9636   */\n      shl\n        /* \"#utility.yul\":9599:9636   */\n      swap1\n      pop\n        /* \"#utility.yul\":9536:9643   */\n      swap3\n      swap2\n      pop\n      pop\n      jump\t// out\n        /* \"#utility.yul\":9649:10042   */\n    tag_110:\n        /* \"#utility.yul\":9718:9724   */\n      0x00\n        /* \"#utility.yul\":9768:9769   */\n      0x08\n        /* \"#utility.yul\":9756:9766   */\n      dup4\n        /* \"#utility.yul\":9752:9770   */\n      mul\n        /* \"#utility.yul\":9791:9888   */\n      tag_227\n        /* \"#utility.yul\":9821:9887   */\n      0xffffffffffffffffffffffffffffffffffffffffffffffffffffffffffffffff\n        /* \"#utility.yul\":9810:9819   */\n      dup3\n        /* \"#utility.yul\":9791:9888   */\n      tag_109\n      jump\t// in\n    tag_227:\n        /* \"#utility.yul\":9909:9948   */\n      tag_228\n        /* \"#utility.yul\":9939:9947   */\n      dup7\n        /* \"#utility.yul\":9928:9937   */\n      dup4\n        /* \"#utility.yul\":9909:9948   */\n      tag_109\n      jump\t// in\n    tag_228:\n        /* \"#utility.yul\":9897:9948   */\n      swap6\n      pop\n        /* \"#utility.yul\":9981:9985   */\n      dup1\n        /* \"#utility.yul\":9977:9986   */\n      not\n        /* \"#utility.yul\":9970:9975   */\n      dup5\n        /* \"#utility.yul\":9966:9987   */\n      and\n        /* \"#utility.yul\":9957:9987   */\n      swap4\n      pop\n        /* \"#utility.yul\":10030:10034   */\n      dup1\n        /* \"#utility.yul\":10020:10028   */\n      dup7\n        /* \"#utility.yul\":10016:10035   */\n      and\n        /* \"#utility.yul\":10009:10014   */\n      dup5\n        /* \"#utility.yul\":10006:10036   */\n      or\n        /* \"#utility.yul\":9996:10036   */\n      swap3\n      pop\n        /* \"#utility.yul\":9725:10042   */\n      pop\n      pop\n        /* \"#utility.yul\":9649:10042   */\n      swap4\n      swap3\n      pop\n      pop\n      pop\n      jump\t// out\n        /* \"#utility.yul\":10048:10108   */\n    tag_111:\n        /* \"#utility.yul\":10076:10079   */\n      0x00\n        /* \"#utility.yul\":10097:10102   */\n      dup2\n        /* \"#utility.yul\":10090:10102   */\n      swap1\n      pop\n        /* \"#utility.yul\":10048:10108   */\n      swap2\n      swap1\n      pop\n      jump\t// out\n        /* \"#utility.yul\":10114:10256   */\n    tag_112:\n        /* \"#utility.yul\":10164:10173   */\n      0x00\n        /* \"#utility.yul\":10197:10250   */\n      tag_231\n        /* \"#utility.yul\":10215:10249   */\n      tag_232\n        /* \"#utility.yul\":10224:10248   */\n      tag_233\n        /* \"#utility.yul\":10242:10247   */\n      dup5\n        /* \"#utility.yul\":10224:10248   */\n      tag_96\n      jump\t// in\n    tag_233:\n        /* \"#utility.yul\":10215:10249   */\n      tag_111\n      jump\t// in\n    tag_232:\n        /* \"#utility.yul\":10197:10250   */\n      tag_96\n      jump\t// in\n    tag_231:\n        /* \"#utility.yul\":10184:10250   */\n      swap1\n      pop\n        /* \"#utility.yul\":10114:10256   */\n      swap2\n      swap1\n      pop\n      jump\t// out\n        /* \"#utility.yul\":10262:10337   */\n    tag_113:\n        /* \"#utility.yul\":10305:10308   */\n      0x00\n        /* \"#utility.yul\":10326:10331   */\n      dup2\n        /* \"#utility.yul\":10319:10331   */\n      swap1\n      pop\n        /* \"#utility.yul\":10262:10337   */\n      swap2\n      swap1\n      pop\n      jump\t// out\n        /* \"#utility.yul\":10343:10612   */\n    tag_114:\n        /* \"#utility.yul\":10453:10492   */\n      tag_236\n        /* \"#utility.yul\":10484:10491   */\n      dup4\n        /* \"#utility.yul\":10453:10492   */\n      tag_112\n      jump\t// in\n    tag_236:\n        /* \"#utility.yul\":10514:10605   */\n      tag_237\n        /* \"#utility.yul\":10563:10604   */\n      tag_238\n        /* \"#utility.yul\":10587:10603   */\n      dup3\n        /* \"#utility.yul\":10563:10604   */\n      tag_113\n      jump\t// in\n    tag_238:\n        /* \"#utility.yul\":10555:10561   */\n      dup5\n        /* \"#utility.yul\":10548:10552   */\n      dup5\n        /* \"#utility.yul\":10542:10553   */\n      sload\n        /* \"#utility.yul\":10514:10605   */\n      tag_110\n      jump\t// in\n    tag_237:\n        /* \"#utility.yul\":10508:10512   */\n      dup3\n        /* \"#utility.yul\":10501:10606   */\n      sstore\n        /* \"#utility.yul\":10419:10612   */\n      pop\n        /* \"#utility.yul\":10343:10612   */\n      pop\n      pop\n      pop\n      jump\t// out\n        /* \"#utility.yul\":10618:10691   */\n    tag_115:\n        /* \"#utility.yul\":10663:10666   */\n      0x00\n        /* \"#utility.yul\":10684:10685   */\n      0x00\n        /* \"#utility.yul\":10677:10685   */\n      swap1\n      pop\n        /* \"#utility.yul\":10618:10691   */\n      swap1\n      jump\t// out\n        /* \"#utility.yul\":10697:10886   */\n    tag_116:\n        /* \"#utility.yul\":10774:10806   */\n      tag_241\n      tag_115\n      jump\t// in\n    tag_241:\n        /* \"#utility.yul\":10815:10880   */\n      tag_242\n        /* \"#utility.yul\":10873:10879   */\n      dup2\n        /* \"#utility.yul\":10865:10871   */\n      dup5\n        /* \"#utility.yul\":10859:10863   */\n      dup5\n        /* \"#utility.yul\":10815:10880   */\n      tag_114\n      jump\t// in\n    tag_242:\n        /* \"#utility.yul\":10750:10886   */\n      pop\n        /* \"#utility.yul\":10697:10886   */\n      pop\n      pop\n      jump\t// out\n        /* \"#utility.yul\":10892:11078   */\n    tag_117:\n        /* \"#utility.yul\":10952:11072   */\n    tag_244:\n        /* \"#utility.yul\":10969:10972   */\n      dup2\n        /* \"#utility.yul\":10962:10967   */\n      dup2\n        /* \"#utility.yul\":10959:10973   */\n      lt\n        /* \"#utility.yul\":10952:11072   */\n      iszero\n      tag_246\n      jumpi\n        /* \"#utility.yul\":11023:11062   */\n      tag_247\n        /* \"#utility.yul\":11060:11061   */\n      0x00\n        /* \"#utility.yul\":11053:11058   */\n      dup3\n        /* \"#utility.yul\":11023:11062   */\n      tag_116\n      jump\t// in\n    tag_247:\n        /* \"#utility.yul\":10996:10997   */\n      0x01\n        /* \"#utility.yul\":10989:10994   */\n      dup2\n        /* \"#utility.yul\":10985:10998   */\n      add\n        /* \"#utility.yul\":10976:10998   */\n      swap1\n      pop\n        /* \"#utility.yul\":10952:11072   */\n      jump(tag_244)\n    tag_246:\n        /* \"#utility.yul\":10892:11078   */\n      pop\n      pop\n      jump\t// out\n        /* \"#utility.yul\":11084:11627   */\n    tag_118:\n        /* \"#utility.yul\":11185:11187   */\n      0x1f\n        /* \"#utility.yul\":11180:11183   */\n      dup3\n        /* \"#utility.yul\":11177:11188   */\n      gt\n        /* \"#utility.yul\":11174:11620   */\n      iszero\n      tag_249\n      jumpi\n        /* \"#utility.yul\":11219:11257   */\n      tag_250\n        /* \"#utility.yul\":11251:11256   */\n      dup2\n        /* \"#utility.yul\":11219:11257   */\n      tag_106\n      jump\t// in\n    tag_250:\n        /* \"#utility.yul\":11303:11332   */\n      tag_251\n        /* \"#utility.yul\":11321:11331   */\n      dup5\n        /* \"#utility.yul\":11303:11332   */\n      tag_108\n      jump\t// in\n    tag_251:\n        /* \"#utility.yul\":11293:11301   */\n      dup2\n        /* \"#utility.yul\":11289:11333   */\n      add\n        /* \"#utility.yul\":11486:11488   */\n      0x20\n        /* \"#utility.yul\":11474:11484   */\n      dup6\n        /* \"#utility.yul\":11471:11489   */\n      lt\n        /* \"#utility.yul\":11468:11517   */\n      iszero\n      tag_252\n      jumpi\n        /* \"#utility.yul\":11507:11515   */\n      dup2\n        /* \"#utility.yul\":11492:11515   */\n      swap1\n      pop\n        /* \"#utility.yul\":11468:11517   */\n    tag_252:\n        /* \"#utility.yul\":11530:11610   */\n      tag_253\n        /* \"#utility.yul\":11586:11608   */\n      tag_254\n        /* \"#utility.yul\":11604:11607   */\n      dup6\n        /* \"#utility.yul\":11586:11608   */\n      tag_108\n      jump\t// in\n    tag_254:\n        /* \"#utility.yul\":11576:11584   */\n      dup4\n        /* \"#utility.yul\":11572:11609   */\n      add\n        /* \"#utility.yul\":11559:11570   */\n      dup3\n        /* \"#utility.yul\":11530:11610   */\n      tag_117\n      jump\t// in\n    tag_253:\n        /* \"#utility.yul\":11189:11620   */\n      pop\n      pop\n        /* \"#utility.yul\":11174:11620   */\n    tag_249:\n        /* \"#utility.yul\":11084:11627   */\n      pop\n      pop\n      pop\n      jump\t// out\n        /* \"#utility.yul\":11633:11750   */\n    tag_119:\n        /* \"#utility.yul\":11687:11695   */\n      0x00\n        /* \"#utility.yul\":11737:11742   */\n      dup3\n        /* \"#utility.yul\":11731:11735   */\n      dup3\n        /* \"#utility.yul\":11727:11743   */\n      shr\n        /* \"#utility.yul\":11706:11743   */\n      swap1\n      pop\n        /* \"#utility.yul\":11633:11750   */\n      swap3\n      swap2\n      pop\n      pop\n      jump\t// out\n        /* \"#utility.yul\":11756:11925   */\n    tag_120:\n        /* \"#utility.yul\":11800:11806   */\n      0x00\n        /* \"#utility.yul\":11833:11884   */\n      tag_257\n        /* \"#utility.yul\":11881:11882   */\n      0x00\n        /* \"#utility.yul\":11877:11883   */\n      not\n        /* \"#utility.yul\":11869:11874   */\n      dup5\n        /* \"#utility.yul\":11866:11867   */\n      0x08\n        /* \"#utility.yul\":11862:11875   */\n      mul\n        /* \"#utility.yul\":11833:11884   */\n      tag_119\n      jump\t// in\n    tag_257:\n        /* \"#utility.yul\":11829:11885   */\n      not\n        /* \"#utility.yul\":11914:11918   */\n      dup1\n        /* \"#utility.yul\":11908:11912   */\n      dup4\n        /* \"#utility.yul\":11904:11919   */\n      and\n        /* \"#utility.yul\":11894:11919   */\n      swap2\n      pop\n        /* \"#utility.yul\":11807:11925   */\n      pop\n        /* \"#utility.yul\":11756:11925   */\n      swap3\n      swap2\n      pop\n      pop\n      jump\t// out\n        /* \"#utility.yul\":11930:12225   */\n    tag_121:\n        /* \"#utility.yul\":12006:12010   */\n      0x00\n        /* \"#utility.yul\":12152:12181   */\n      tag_259\n        /* \"#utility.yul\":12177:12180   */\n      dup4\n        /* \"#utility.yul\":12171:12175   */\n      dup4\n        /* \"#utility.yul\":12152:12181   */\n      tag_120\n      jump\t// in\n    tag_259:\n        /* \"#utility.yul\":12144:12181   */\n      swap2\n      pop\n        /* \"#utility.yul\":12214:12217   */\n      dup3\n        /* \"#utility.yul\":12211:12212   */\n      0x02\n        /* \"#utility.yul\":12207:12218   */\n      mul\n        /* \"#utility.yul\":12201:12205   */\n      dup3\n        /* \"#utility.yul\":12198:12219   */\n      or\n        /* \"#utility.yul\":12190:12219   */\n      swap1\n      pop\n        /* \"#utility.yul\":11930:12225   */\n      swap3\n      swap2\n      pop\n      pop\n      jump\t// out\n        /* \"#utility.yul\":12230:13625   */\n    tag_71:\n        /* \"#utility.yul\":12347:12384   */\n      tag_261\n        /* \"#utility.yul\":12380:12383   */\n      dup3\n        /* \"#utility.yul\":12347:12384   */\n      tag_99\n      jump\t// in\n    tag_261:\n        /* \"#utility.yul\":12449:12467   */\n      0xffffffffffffffff\n        /* \"#utility.yul\":12441:12447   */\n      dup2\n        /* \"#utility.yul\":12438:12468   */\n      gt\n        /* \"#utility.yul\":12435:12491   */\n      iszero\n      tag_262\n      jumpi\n        /* \"#utility.yul\":12471:12489   */\n      tag_263\n      tag_85\n      jump\t// in\n    tag_263:\n        /* \"#utility.yul\":12435:12491   */\n    tag_262:\n        /* \"#utility.yul\":12515:12553   */\n      tag_264\n        /* \"#utility.yul\":12547:12551   */\n      dup3\n        /* \"#utility.yul\":12541:12552   */\n      sload\n        /* \"#utility.yul\":12515:12553   */\n      tag_43\n      jump\t// in\n    tag_264:\n        /* \"#utility.yul\":12600:12667   */\n      tag_265\n        /* \"#utility.yul\":12660:12666   */\n      dup3\n        /* \"#utility.yul\":12652:12658   */\n      dup3\n        /* \"#utility.yul\":12646:12650   */\n      dup6\n        /* \"#utility.yul\":12600:12667   */\n      tag_118\n      jump\t// in\n    tag_265:\n        /* \"#utility.yul\":12694:12695   */\n      0x00\n        /* \"#utility.yul\":12718:12722   */\n      0x20\n        /* \"#utility.yul\":12705:12722   */\n      swap1\n      pop\n        /* \"#utility.yul\":12750:12752   */\n      0x1f\n        /* \"#utility.yul\":12742:12748   */\n      dup4\n        /* \"#utility.yul\":12739:12753   */\n      gt\n        /* \"#utility.yul\":12767:12768   */\n      0x01\n        /* \"#utility.yul\":12762:13380   */\n      dup2\n      eq\n      tag_267\n      jumpi\n        /* \"#utility.yul\":13424:13425   */\n      0x00\n        /* \"#utility.yul\":13441:13447   */\n      dup5\n        /* \"#utility.yul\":13438:13515   */\n      iszero\n      tag_268\n      jumpi\n        /* \"#utility.yul\":13490:13499   */\n      dup3\n        /* \"#utility.yul\":13485:13488   */\n      dup8\n        /* \"#utility.yul\":13481:13500   */\n      add\n        /* \"#utility.yul\":13475:13501   */\n      mload\n        /* \"#utility.yul\":13466:13501   */\n      swap1\n      pop\n        /* \"#utility.yul\":13438:13515   */\n    tag_268:\n        /* \"#utility.yul\":13541:13608   */\n      tag_269\n        /* \"#utility.yul\":13601:13607   */\n      dup6\n        /* \"#utility.yul\":13594:13599   */\n      dup3\n        /* \"#utility.yul\":13541:13608   */\n      tag_121\n      jump\t// in\n    tag_269:\n        /* \"#utility.yul\":13535:13539   */\n      dup7\n        /* \"#utility.yul\":13528:13609   */\n      sstore\n        /* \"#utility.yul\":13397:13619   */\n      pop\n        /* \"#utility.yul\":12732:13619   */\n      jump(tag_266)\n        /* \"#utility.yul\":12762:13380   */\n    tag_267:\n        /* \"#utility.yul\":12814:12818   */\n      0x1f\n        /* \"#utility.yul\":12810:12819   */\n      not\n        /* \"#utility.yul\":12802:12808   */\n      dup5\n        /* \"#utility.yul\":12798:12820   */\n      and\n        /* \"#utility.yul\":12848:12885   */\n      tag_270\n        /* \"#utility.yul\":12880:12884   */\n      dup7\n        /* \"#utility.yul\":12848:12885   */\n      tag_106\n      jump\t// in\n    tag_270:\n        /* \"#utility.yul\":12907:12908   */\n      0x00\n        /* \"#utility.yul\":12921:13129   */\n    tag_271:\n        /* \"#utility.yul\":12935:12942   */\n      dup3\n        /* \"#utility.yul\":12932:12933   */\n      dup2\n        /* \"#utility.yul\":12929:12943   */\n      lt\n        /* \"#utility.yul\":12921:13129   */\n      iszero\n      tag_273\n      jumpi\n        /* \"#utility.yul\":13014:13023   */\n      dup5\n        /* \"#utility.yul\":13009:13012   */\n      dup10\n        /* \"#utility.yul\":13005:13024   */\n      add\n        /* \"#utility.yul\":12999:13025   */\n      mload\n        /* \"#utility.yul\":12991:12997   */\n      dup3\n        /* \"#utility.yul\":12984:13026   */\n      sstore\n        /* \"#utility.yul\":13065:13066   */\n      0x01\n        /* \"#utility.yul\":13057:13063   */\n      dup3\n        /* \"#utility.yul\":13053:13067   */\n      add\n        /* \"#utility.yul\":13043:13067   */\n      swap2\n      pop\n        /* \"#utility.yul\":13112:13114   */\n      0x20\n        /* \"#utility.yul\":13101:13110   */\n      dup6\n        /* \"#utility.yul\":13097:13115   */\n      add\n        /* \"#utility.yul\":13084:13115   */\n      swap5\n      pop\n        /* \"#utility.yul\":12958:12962   */\n      0x20\n        /* \"#utility.yul\":12955:12956   */\n      dup2\n        /* \"#utility.yul\":12951:12963   */\n      add\n        /* \"#utility.yul\":12946:12963   */\n      swap1\n      pop\n        /* \"#utility.yul\":12921:13129   */\n      jump(tag_271)\n    tag_273:\n        /* \"#utility.yul\":13157:13163   */\n      dup7\n        /* \"#utility.yul\":13148:13155   */\n      dup4\n        /* \"#utility.yul\":13145:13164   */\n      lt\n        /* \"#utility.yul\":13142:13321   */\n      iszero\n      tag_274\n      jumpi\n        /* \"#utility.yul\":13215:13224   */\n      dup5\n        /* \"#utility.yul\":13210:13213   */\n      dup10\n        /* \"#utility.yul\":13206:13225   */\n      add\n        /* \"#utility.yul\":13200:13226   */\n      mload\n        /* \"#utility.yul\":13258:13306   */\n      tag_275\n        /* \"#utility.yul\":13300:13304   */\n      0x1f\n        /* \"#utility.yul\":13292:13298   */\n      dup10\n        /* \"#utility.yul\":13288:13305   */\n      and\n        /* \"#utility.yul\":13277:13286   */\n      dup3\n        /* \"#utility.yul\":13258:13306   */\n      tag_120\n      jump\t// in\n    tag_275:\n        /* \"#utility.yul\":13250:13256   */\n      dup4\n        /* \"#utility.yul\":13243:13307   */\n      sstore\n        /* \"#utility.yul\":13165:13321   */\n      pop\n        /* \"#utility.yul\":13142:13321   */\n    tag_274:\n        /* \"#utility.yul\":13367:13368   */\n      0x01\n        /* \"#utility.yul\":13363:13364   */\n      0x02\n        /* \"#utility.yul\":13355:13361   */\n      dup9\n        /* \"#utility.yul\":13351:13365   */\n      mul\n        /* \"#utility.yul\":13347:13369   */\n      add\n        /* \"#utility.yul\":13341:13345   */\n      dup9\n        /* \"#utility.yul\":13334:13370   */\n      sstore\n        /* \"#utility.yul\":12769:13380   */\n      pop\n      pop\n      pop\n        /* \"#utility.yul\":12732:13619   */\n    tag_266:\n      pop\n        /* \"#utility.yul\":12322:13625   */\n      pop\n      pop\n      pop\n        /* \"#utility.yul\":12230:13625   */\n      pop\n      pop\n      jump\t// out\n        /* \"#utility.yul\":13631:13811   */\n    tag_122:\n        /* \"#utility.yul\":13679:13756   */\n      0x4e487b7100000000000000000000000000000000000000000000000000000000\n        /* \"#utility.yul\":13676:13677   */\n      0x00\n        /* \"#utility.yul\":13669:13757   */\n      mstore\n        /* \"#utility.yul\":13776:13780   */\n      0x11\n        /* \"#utility.yul\":13773:13774   */\n      0x04\n        /* \"#utility.yul\":13766:13781   */\n      mstore\n        /* \"#utility.yul\":13800:13804   */\n      0x24\n        /* \"#utility.yul\":13797:13798   */\n      0x00\n        /* \"#utility.yul\":13790:13805   */\n      revert\n        /* \"#utility.yul\":13817:14048   */\n    tag_78:\n        /* \"#utility.yul\":13855:13858   */\n      0x00\n        /* \"#utility.yul\":13878:13901   */\n      tag_278\n        /* \"#utility.yul\":13895:13900   */\n      dup3\n        /* \"#utility.yul\":13878:13901   */\n      tag_94\n      jump\t// in\n    tag_278:\n        /* \"#utility.yul\":13869:13901   */\n      swap2\n      pop\n        /* \"#utility.yul\":13923:13989   */\n      0x7fffffffffffffffffffffffffffffffffffffffffffffffffffffffffffffff\n        /* \"#utility.yul\":13916:13921   */\n      dup3\n        /* \"#utility.yul\":13913:13990   */\n      sub\n        /* \"#utility.yul\":13910:14013   */\n      tag_279\n      jumpi\n        /* \"#utility.yul\":13993:14011   */\n      tag_280\n      tag_122\n      jump\t// in\n    tag_280:\n        /* \"#utility.yul\":13910:14013   */\n    tag_279:\n        /* \"#utility.yul\":14040:14041   */\n      0x01\n        /* \"#utility.yul\":14033:14038   */\n      dup3\n        /* \"#utility.yul\":14029:14042   */\n      add\n        /* \"#utility.yul\":14022:14042   */\n      swap1\n      pop\n        /* \"#utility.yul\":13817:14048   */\n      swap2\n      swap1\n      pop\n      jump\t// out\n\n    auxdata: 0xa26469706673582212203b9acbcf4dd0b424bfe25429aa3f9de529502c88b22604a4965f28c51efc102a64736f6c634300081e0033\n}\n",
				"bytecode": {
					"linkReferences": {},
					"object": "6080604052348015600e575f5ffd5b50610c3c8061001c5f395ff3fe608060405234801561000f575f5ffd5b5060043610610060575f3560e01c806339bfeae31461006457806373d70d4d14610094578063805265e5146100c45780638287e42f146100f4578063b9830ff114610124578063e8d5940d1461012e575b5f5ffd5b61007e600480360381019061007991906105b4565b61015e565b60405161008b9190610615565b60405180910390f35b6100ae60048036038101906100a991906105b4565b610193565b6040516100bb9190610646565b60405180910390f35b6100de60048036038101906100d991906105b4565b6101bf565b6040516100eb9190610646565b60405180910390f35b61010e60048036038101906101099190610692565b6101e5565b60405161011b919061071d565b60405180910390f35b61012c61028b565b005b6101486004803603810190610143919061073d565b6102ea565b6040516101559190610615565b60405180910390f35b6001818051602081018201805184825260208301602085012081835280955050505050505f915054906101000a900460ff1681565b5f818051602081018201805184825260208301602085012081835280955050505050505f915090505481565b5f5f826040516101cf91906107ed565b9081526020016040518091039020549050919050565b600281815481106101f4575f80fd5b905f5260205f20015f91509050805461020c90610830565b80601f016020809104026020016040519081016040528092919081815260200182805461023890610830565b80156102835780601f1061025a57610100808354040283529160200191610283565b820191905f5260205f20905b81548152906001019060200180831161026657829003601f168201915b505050505081565b5f5f90505b6002805490508110156102e7575f5f600283815481106102b3576102b2610860565b5b905f5260205f20016040516102c8919061091f565b9081526020016040518091039020819055508080600101915050610290565b50565b5f5f600190505f5f90505b600280549050811015610385578360405160200161031391906107ed565b604051602081830303815290604052805190602001206002828154811061033d5761033c610860565b5b905f5260205f2001604051602001610355919061091f565b6040516020818303038152906040528051906020012003610378575f9150610385565b80806001019150506102f5565b5080156103bf57600283908060018154018082558091505060019003905f5260205f20015f9091909190915090816103bd9190610ac3565b505b6001846040516103cf91906107ed565b90815260200160405180910390205f9054906101000a900460ff16156103f8575f915050610461565b6001808560405161040991906107ed565b90815260200160405180910390205f6101000a81548160ff0219169083151502179055505f8360405161043c91906107ed565b90815260200160405180910390205f81548092919061045a90610bbf565b9190505550505b92915050565b5f604051905090565b5f5ffd5b5f5ffd5b5f5ffd5b5f5ffd5b5f601f19601f8301169050919050565b7f4e487b71000000000000000000000000000000000000000000000000000000005f52604160045260245ffd5b6104c682610480565b810181811067ffffffffffffffff821117156104e5576104e4610490565b5b80604052505050565b5f6104f7610467565b905061050382826104bd565b919050565b5f67ffffffffffffffff82111561052257610521610490565b5b61052b82610480565b9050602081019050919050565b828183375f83830152505050565b5f61055861055384610508565b6104ee565b9050828152602081018484840111156105745761057361047c565b5b61057f848285610538565b509392505050565b5f82601f83011261059b5761059a610478565b5b81356105ab848260208601610546565b91505092915050565b5f602082840312156105c9576105c8610470565b5b5f82013567ffffffffffffffff8111156105e6576105e5610474565b5b6105f284828501610587565b91505092915050565b5f8115159050919050565b61060f816105fb565b82525050565b5f6020820190506106285f830184610606565b92915050565b5f819050919050565b6106408161062e565b82525050565b5f6020820190506106595f830184610637565b92915050565b5f819050919050565b6106718161065f565b811461067b575f5ffd5b50565b5f8135905061068c81610668565b92915050565b5f602082840312156106a7576106a6610470565b5b5f6106b48482850161067e565b91505092915050565b5f81519050919050565b5f82825260208201905092915050565b8281835e5f83830152505050565b5f6106ef826106bd565b6106f981856106c7565b93506107098185602086016106d7565b61071281610480565b840191505092915050565b5f6020820190508181035f83015261073581846106e5565b905092915050565b5f5f6040838503121561075357610752610470565b5b5f83013567ffffffffffffffff8111156107705761076f610474565b5b61077c85828601610587565b925050602083013567ffffffffffffffff81111561079d5761079c610474565b5b6107a985828601610587565b9150509250929050565b5f81905092915050565b5f6107c7826106bd565b6107d181856107b3565b93506107e18185602086016106d7565b80840191505092915050565b5f6107f882846107bd565b915081905092915050565b7f4e487b71000000000000000000000000000000000000000000000000000000005f52602260045260245ffd5b5f600282049050600182168061084757607f821691505b60208210810361085a57610859610803565b5b50919050565b7f4e487b71000000000000000000000000000000000000000000000000000000005f52603260045260245ffd5b5f819050815f5260205f209050919050565b5f81546108ab81610830565b6108b581866107b3565b9450600182165f81146108cf57600181146108e457610916565b60ff1983168652811515820286019350610916565b6108ed8561088d565b5f5b8381101561090e578154818901526001820191506020810190506108ef565b838801955050505b50505092915050565b5f61092a828461089f565b915081905092915050565b5f6020601f8301049050919050565b5f82821b905092915050565b5f6008830261097f7fffffffffffffffffffffffffffffffffffffffffffffffffffffffffffffffff82610944565b6109898683610944565b95508019841693508086168417925050509392505050565b5f819050919050565b5f6109c46109bf6109ba8461065f565b6109a1565b61065f565b9050919050565b5f819050919050565b6109dd836109aa565b6109f16109e9826109cb565b848454610950565b825550505050565b5f5f905090565b610a086109f9565b610a138184846109d4565b505050565b5b81811015610a3657610a2b5f82610a00565b600181019050610a19565b5050565b601f821115610a7b57610a4c8161088d565b610a5584610935565b81016020851015610a64578190505b610a78610a7085610935565b830182610a18565b50505b505050565b5f82821c905092915050565b5f610a9b5f1984600802610a80565b1980831691505092915050565b5f610ab38383610a8c565b9150826002028217905092915050565b610acc826106bd565b67ffffffffffffffff811115610ae557610ae4610490565b5b610aef8254610830565b610afa828285610a3a565b5f60209050601f831160018114610b2b575f8415610b19578287015190505b610b238582610aa8565b865550610b8a565b601f198416610b398661088d565b5f5b82811015610b6057848901518255600182019150602085019450602081019050610b3b565b86831015610b7d5784890151610b79601f891682610a8c565b8355505b6001600288020188555050505b505050505050565b7f4e487b71000000000000000000000000000000000000000000000000000000005f52601160045260245ffd5b5f610bc98261062e565b91507f7fffffffffffffffffffffffffffffffffffffffffffffffffffffffffffffff8203610bfb57610bfa610b92565b5b60018201905091905056fea26469706673582212203b9acbcf4dd0b424bfe25429aa3f9de529502c88b22604a4965f28c51efc102a64736f6c634300081e0033",
					"opcodes": "PUSH1 0x80 PUSH1 0x40 MSTORE CALLVALUE DUP1 ISZERO PUSH1 0xE JUMPI PUSH0 PUSH0 REVERT JUMPDEST POP PUSH2 0xC3C DUP1 PUSH2 0x1C PUSH0 CODECOPY PUSH0 RETURN INVALID PUSH1 0x80 PUSH1 0x40 MSTORE CALLVALUE DUP1 ISZERO PUSH2 0xF JUMPI PUSH0 PUSH0 REVERT JUMPDEST POP PUSH1 0x4 CALLDATASIZE LT PUSH2 0x60 JUMPI PUSH0 CALLDATALOAD PUSH1 0xE0 SHR DUP1 PUSH4 0x39BFEAE3 EQ PUSH2 0x64 JUMPI DUP1 PUSH4 0x73D70D4D EQ PUSH2 0x94 JUMPI DUP1 PUSH4 0x805265E5 EQ PUSH2 0xC4 JUMPI DUP1 PUSH4 0x8287E42F EQ PUSH2 0xF4 JUMPI DUP1 PUSH4 0xB9830FF1 EQ PUSH2 0x124 JUMPI DUP1 PUSH4 0xE8D5940D EQ PUSH2 0x12E JUMPI JUMPDEST PUSH0 PUSH0 REVERT JUMPDEST PUSH2 0x7E PUSH1 0x4 DUP1 CALLDATASIZE SUB DUP2 ADD SWAP1 PUSH2 0x79 SWAP2 SWAP1 PUSH2 0x5B4 JUMP JUMPDEST PUSH2 0x15E JUMP JUMPDEST PUSH1 0x40 MLOAD PUSH2 0x8B SWAP2 SWAP1 PUSH2 0x615 JUMP JUMPDEST PUSH1 0x40 MLOAD DUP1 SWAP2 SUB SWAP1 RETURN JUMPDEST PUSH2 0xAE PUSH1 0x4 DUP1 CALLDATASIZE SUB DUP2 ADD SWAP1 PUSH2 0xA9 SWAP2 SWAP1 PUSH2 0x5B4 JUMP JUMPDEST PUSH2 0x193 JUMP JUMPDEST PUSH1 0x40 MLOAD PUSH2 0xBB SWAP2 SWAP1 PUSH2 0x646 JUMP JUMPDEST PUSH1 0x40 MLOAD DUP1 SWAP2 SUB SWAP1 RETURN JUMPDEST PUSH2 0xDE PUSH1 0x4 DUP1 CALLDATASIZE SUB DUP2 ADD SWAP1 PUSH2 0xD9 SWAP2 SWAP1 PUSH2 0x5B4 JUMP JUMPDEST PUSH2 0x1BF JUMP JUMPDEST PUSH1 0x40 MLOAD PUSH2 0xEB SWAP2 SWAP1 PUSH2 0x646 JUMP JUMPDEST PUSH1 0x40 MLOAD DUP1 SWAP2 SUB SWAP1 RETURN JUMPDEST PUSH2 0x10E PUSH1 0x4 DUP1 CALLDATASIZE SUB DUP2 ADD SWAP1 PUSH2 0x109 SWAP2 SWAP1 PUSH2 0x692 JUMP JUMPDEST PUSH2 0x1E5 JUMP JUMPDEST PUSH1 0x40 MLOAD PUSH2 0x11B SWAP2 SWAP1 PUSH2 0x71D JUMP JUMPDEST PUSH1 0x40 MLOAD DUP1 SWAP2 SUB SWAP1 RETURN JUMPDEST PUSH2 0x12C PUSH2 0x28B JUMP JUMPDEST STOP JUMPDEST PUSH2 0x148 PUSH1 0x4 DUP1 CALLDATASIZE SUB DUP2 ADD SWAP1 PUSH2 0x143 SWAP2 SWAP1 PUSH2 0x73D JUMP JUMPDEST PUSH2 0x2EA JUMP JUMPDEST PUSH1 0x40 MLOAD PUSH2 0x155 SWAP2 SWAP1 PUSH2 0x615 JUMP JUMPDEST PUSH1 0x40 MLOAD DUP1 SWAP2 SUB SWAP1 RETURN JUMPDEST PUSH1 0x1 DUP2 DUP1 MLOAD PUSH1 0x20 DUP2 ADD DUP3 ADD DUP1 MLOAD DUP5 DUP3 MSTORE PUSH1 0x20 DUP4 ADD PUSH1 0x20 DUP6 ADD KECCAK256 DUP2 DUP4 MSTORE DUP1 SWAP6 POP POP POP POP POP POP PUSH0 SWAP2 POP SLOAD SWAP1 PUSH2 0x100 EXP SWAP1 DIV PUSH1 0xFF AND DUP2 JUMP JUMPDEST PUSH0 DUP2 DUP1 MLOAD PUSH1 0x20 DUP2 ADD DUP3 ADD DUP1 MLOAD DUP5 DUP3 MSTORE PUSH1 0x20 DUP4 ADD PUSH1 0x20 DUP6 ADD KECCAK256 DUP2 DUP4 MSTORE DUP1 SWAP6 POP POP POP POP POP POP PUSH0 SWAP2 POP SWAP1 POP SLOAD DUP2 JUMP JUMPDEST PUSH0 PUSH0 DUP3 PUSH1 0x40 MLOAD PUSH2 0x1CF SWAP2 SWAP1 PUSH2 0x7ED JUMP JUMPDEST SWAP1 DUP2 MSTORE PUSH1 0x20 ADD PUSH1 0x40 MLOAD DUP1 SWAP2 SUB SWAP1 KECCAK256 SLOAD SWAP1 POP SWAP2 SWAP1 POP JUMP JUMPDEST PUSH1 0x2 DUP2 DUP2 SLOAD DUP2 LT PUSH2 0x1F4 JUMPI PUSH0 DUP1 REVERT JUMPDEST SWAP1 PUSH0 MSTORE PUSH1 0x20 PUSH0 KECCAK256 ADD PUSH0 SWAP2 POP SWAP1 POP DUP1 SLOAD PUSH2 0x20C SWAP1 PUSH2 0x830 JUMP JUMPDEST DUP1 PUSH1 0x1F ADD PUSH1 0x20 DUP1 SWAP2 DIV MUL PUSH1 0x20 ADD PUSH1 0x40 MLOAD SWAP1 DUP2 ADD PUSH1 0x40 MSTORE DUP1 SWAP3 SWAP2 SWAP1 DUP2 DUP2 MSTORE PUSH1 0x20 ADD DUP3 DUP1 SLOAD PUSH2 0x238 SWAP1 PUSH2 0x830 JUMP JUMPDEST DUP1 ISZERO PUSH2 0x283 JUMPI DUP1 PUSH1 0x1F LT PUSH2 0x25A JUMPI PUSH2 0x100 DUP1 DUP4 SLOAD DIV MUL DUP4 MSTORE SWAP2 PUSH1 0x20 ADD SWAP2 PUSH2 0x283 JUMP JUMPDEST DUP3 ADD SWAP2 SWAP1 PUSH0 MSTORE PUSH1 0x20 PUSH0 KECCAK256 SWAP1 JUMPDEST DUP2 SLOAD DUP2 MSTORE SWAP1 PUSH1 0x1 ADD SWAP1 PUSH1 0x20 ADD DUP1 DUP4 GT PUSH2 0x266 JUMPI DUP3 SWAP1 SUB PUSH1 0x1F AND DUP3 ADD SWAP2 JUMPDEST POP POP POP POP POP DUP2 JUMP JUMPDEST PUSH0 PUSH0 SWAP1 POP JUMPDEST PUSH1 0x2 DUP1 SLOAD SWAP1 POP DUP2 LT ISZERO PUSH2 0x2E7 JUMPI PUSH0 PUSH0 PUSH1 0x2 DUP4 DUP2 SLOAD DUP2 LT PUSH2 0x2B3 JUMPI PUSH2 0x2B2 PUSH2 0x860 JUMP JUMPDEST JUMPDEST SWAP1 PUSH0 MSTORE PUSH1 0x20 PUSH0 KECCAK256 ADD PUSH1 0x40 MLOAD PUSH2 0x2C8 SWAP2 SWAP1 PUSH2 0x91F JUMP JUMPDEST SWAP1 DUP2 MSTORE PUSH1 0x20 ADD PUSH1 0x40 MLOAD DUP1 SWAP2 SUB SWAP1 KECCAK256 DUP2 SWAP1 SSTORE POP DUP1 DUP1 PUSH1 0x1 ADD SWAP2 POP POP PUSH2 0x290 JUMP JUMPDEST POP JUMP JUMPDEST PUSH0 PUSH0 PUSH1 0x1 SWAP1 POP PUSH0 PUSH0 SWAP1 POP JUMPDEST PUSH1 0x2 DUP1 SLOAD SWAP1 POP DUP2 LT ISZERO PUSH2 0x385 JUMPI DUP4 PUSH1 0x40 MLOAD PUSH1 0x20 ADD PUSH2 0x313 SWAP2 SWAP1 PUSH2 0x7ED JUMP JUMPDEST PUSH1 0x40 MLOAD PUSH1 0x20 DUP2 DUP4 SUB SUB DUP2 MSTORE SWAP1 PUSH1 0x40 MSTORE DUP1 MLOAD SWAP1 PUSH1 0x20 ADD KECCAK256 PUSH1 0x2 DUP3 DUP2 SLOAD DUP2 LT PUSH2 0x33D JUMPI PUSH2 0x33C PUSH2 0x860 JUMP JUMPDEST JUMPDEST SWAP1 PUSH0 MSTORE PUSH1 0x20 PUSH0 KECCAK256 ADD PUSH1 0x40 MLOAD PUSH1 0x20 ADD PUSH2 0x355 SWAP2 SWAP1 PUSH2 0x91F JUMP JUMPDEST PUSH1 0x40 MLOAD PUSH1 0x20 DUP2 DUP4 SUB SUB DUP2 MSTORE SWAP1 PUSH1 0x40 MSTORE DUP1 MLOAD SWAP1 PUSH1 0x20 ADD KECCAK256 SUB PUSH2 0x378 JUMPI PUSH0 SWAP2 POP PUSH2 0x385 JUMP JUMPDEST DUP1 DUP1 PUSH1 0x1 ADD SWAP2 POP POP PUSH2 0x2F5 JUMP JUMPDEST POP DUP1 ISZERO PUSH2 0x3BF JUMPI PUSH1 0x2 DUP4 SWAP1 DUP1 PUSH1 0x1 DUP2 SLOAD ADD DUP1 DUP3 SSTORE DUP1 SWAP2 POP POP PUSH1 0x1 SWAP1 SUB SWAP1 PUSH0 MSTORE PUSH1 0x20 PUSH0 KECCAK256 ADD PUSH0 SWAP1 SWAP2 SWAP1 SWAP2 SWAP1 SWAP2 POP SWAP1 DUP2 PUSH2 0x3BD SWAP2 SWAP1 PUSH2 0xAC3 JUMP JUMPDEST POP JUMPDEST PUSH1 0x1 DUP5 PUSH1 0x40 MLOAD PUSH2 0x3CF SWAP2 SWAP1 PUSH2 0x7ED JUMP JUMPDEST SWAP1 DUP2 MSTORE PUSH1 0x20 ADD PUSH1 0x40 MLOAD DUP1 SWAP2 SUB SWAP1 KECCAK256 PUSH0 SWAP1 SLOAD SWAP1 PUSH2 0x100 EXP SWAP1 DIV PUSH1 0xFF AND ISZERO PUSH2 0x3F8 JUMPI PUSH0 SWAP2 POP POP PUSH2 0x461 JUMP JUMPDEST PUSH1 0x1 DUP1 DUP6 PUSH1 0x40 MLOAD PUSH2 0x409 SWAP2 SWAP1 PUSH2 0x7ED JUMP JUMPDEST SWAP1 DUP2 MSTORE PUSH1 0x20 ADD PUSH1 0x40 MLOAD DUP1 SWAP2 SUB SWAP1 KECCAK256 PUSH0 PUSH2 0x100 EXP DUP2 SLOAD DUP2 PUSH1 0xFF MUL NOT AND SWAP1 DUP4 ISZERO ISZERO MUL OR SWAP1 SSTORE POP PUSH0 DUP4 PUSH1 0x40 MLOAD PUSH2 0x43C SWAP2 SWAP1 PUSH2 0x7ED JUMP JUMPDEST SWAP1 DUP2 MSTORE PUSH1 0x20 ADD PUSH1 0x40 MLOAD DUP1 SWAP2 SUB SWAP1 KECCAK256 PUSH0 DUP2 SLOAD DUP1 SWAP3 SWAP2 SWAP1 PUSH2 0x45A SWAP1 PUSH2 0xBBF JUMP JUMPDEST SWAP2 SWAP1 POP SSTORE POP POP JUMPDEST SWAP3 SWAP2 POP POP JUMP JUMPDEST PUSH0 PUSH1 0x40 MLOAD SWAP1 POP SWAP1 JUMP JUMPDEST PUSH0 PUSH0 REVERT JUMPDEST PUSH0 PUSH0 REVERT JUMPDEST PUSH0 PUSH0 REVERT JUMPDEST PUSH0 PUSH0 REVERT JUMPDEST PUSH0 PUSH1 0x1F NOT PUSH1 0x1F DUP4 ADD AND SWAP1 POP SWAP2 SWAP1 POP JUMP JUMPDEST PUSH32 0x4E487B7100000000000000000000000000000000000000000000000000000000 PUSH0 MSTORE PUSH1 0x41 PUSH1 0x4 MSTORE PUSH1 0x24 PUSH0 REVERT JUMPDEST PUSH2 0x4C6 DUP3 PUSH2 0x480 JUMP JUMPDEST DUP2 ADD DUP2 DUP2 LT PUSH8 0xFFFFFFFFFFFFFFFF DUP3 GT OR ISZERO PUSH2 0x4E5 JUMPI PUSH2 0x4E4 PUSH2 0x490 JUMP JUMPDEST JUMPDEST DUP1 PUSH1 0x40 MSTORE POP POP POP JUMP JUMPDEST PUSH0 PUSH2 0x4F7 PUSH2 0x467 JUMP JUMPDEST SWAP1 POP PUSH2 0x503 DUP3 DUP3 PUSH2 0x4BD JUMP JUMPDEST SWAP2 SWAP1 POP JUMP JUMPDEST PUSH0 PUSH8 0xFFFFFFFFFFFFFFFF DUP3 GT ISZERO PUSH2 0x522 JUMPI PUSH2 0x521 PUSH2 0x490 JUMP JUMPDEST JUMPDEST PUSH2 0x52B DUP3 PUSH2 0x480 JUMP JUMPDEST SWAP1 POP PUSH1 0x20 DUP2 ADD SWAP1 POP SWAP2 SWAP1 POP JUMP JUMPDEST DUP3 DUP2 DUP4 CALLDATACOPY PUSH0 DUP4 DUP4 ADD MSTORE POP POP POP JUMP JUMPDEST PUSH0 PUSH2 0x558 PUSH2 0x553 DUP5 PUSH2 0x508 JUMP JUMPDEST PUSH2 0x4EE JUMP JUMPDEST SWAP1 POP DUP3 DUP2 MSTORE PUSH1 0x20 DUP2 ADD DUP5 DUP5 DUP5 ADD GT ISZERO PUSH2 0x574 JUMPI PUSH2 0x573 PUSH2 0x47C JUMP JUMPDEST JUMPDEST PUSH2 0x57F DUP5 DUP3 DUP6 PUSH2 0x538 JUMP JUMPDEST POP SWAP4 SWAP3 POP POP POP JUMP JUMPDEST PUSH0 DUP3 PUSH1 0x1F DUP4 ADD SLT PUSH2 0x59B JUMPI PUSH2 0x59A PUSH2 0x478 JUMP JUMPDEST JUMPDEST DUP2 CALLDATALOAD PUSH2 0x5AB DUP5 DUP3 PUSH1 0x20 DUP7 ADD PUSH2 0x546 JUMP JUMPDEST SWAP2 POP POP SWAP3 SWAP2 POP POP JUMP JUMPDEST PUSH0 PUSH1 0x20 DUP3 DUP5 SUB SLT ISZERO PUSH2 0x5C9 JUMPI PUSH2 0x5C8 PUSH2 0x470 JUMP JUMPDEST JUMPDEST PUSH0 DUP3 ADD CALLDATALOAD PUSH8 0xFFFFFFFFFFFFFFFF DUP2 GT ISZERO PUSH2 0x5E6 JUMPI PUSH2 0x5E5 PUSH2 0x474 JUMP JUMPDEST JUMPDEST PUSH2 0x5F2 DUP5 DUP3 DUP6 ADD PUSH2 0x587 JUMP JUMPDEST SWAP2 POP POP SWAP3 SWAP2 POP POP JUMP JUMPDEST PUSH0 DUP2 ISZERO ISZERO SWAP1 POP SWAP2 SWAP1 POP JUMP JUMPDEST PUSH2 0x60F DUP2 PUSH2 0x5FB JUMP JUMPDEST DUP3 MSTORE POP POP JUMP JUMPDEST PUSH0 PUSH1 0x20 DUP3 ADD SWAP1 POP PUSH2 0x628 PUSH0 DUP4 ADD DUP5 PUSH2 0x606 JUMP JUMPDEST SWAP3 SWAP2 POP POP JUMP JUMPDEST PUSH0 DUP2 SWAP1 POP SWAP2 SWAP1 POP JUMP JUMPDEST PUSH2 0x640 DUP2 PUSH2 0x62E JUMP JUMPDEST DUP3 MSTORE POP POP JUMP JUMPDEST PUSH0 PUSH1 0x20 DUP3 ADD SWAP1 POP PUSH2 0x659 PUSH0 DUP4 ADD DUP5 PUSH2 0x637 JUMP JUMPDEST SWAP3 SWAP2 POP POP JUMP JUMPDEST PUSH0 DUP2 SWAP1 POP SWAP2 SWAP1 POP JUMP JUMPDEST PUSH2 0x671 DUP2 PUSH2 0x65F JUMP JUMPDEST DUP2 EQ PUSH2 0x67B JUMPI PUSH0 PUSH0 REVERT JUMPDEST POP JUMP JUMPDEST PUSH0 DUP2 CALLDATALOAD SWAP1 POP PUSH2 0x68C DUP2 PUSH2 0x668 JUMP JUMPDEST SWAP3 SWAP2 POP POP JUMP JUMPDEST PUSH0 PUSH1 0x20 DUP3 DUP5 SUB SLT ISZERO PUSH2 0x6A7 JUMPI PUSH2 0x6A6 PUSH2 0x470 JUMP JUMPDEST JUMPDEST PUSH0 PUSH2 0x6B4 DUP5 DUP3 DUP6 ADD PUSH2 0x67E JUMP JUMPDEST SWAP2 POP POP SWAP3 SWAP2 POP POP JUMP JUMPDEST PUSH0 DUP2 MLOAD SWAP1 POP SWAP2 SWAP1 POP JUMP JUMPDEST PUSH0 DUP3 DUP3 MSTORE PUSH1 0x20 DUP3 ADD SWAP1 POP SWAP3 SWAP2 POP POP JUMP JUMPDEST DUP3 DUP2 DUP4 MCOPY PUSH0 DUP4 DUP4 ADD MSTORE POP POP POP JUMP JUMPDEST PUSH0 PUSH2 0x6EF DUP3 PUSH2 0x6BD JUMP JUMPDEST PUSH2 0x6F9 DUP2 DUP6 PUSH2 0x6C7 JUMP JUMPDEST SWAP4 POP PUSH2 0x709 DUP2 DUP6 PUSH1 0x20 DUP7 ADD PUSH2 0x6D7 JUMP JUMPDEST PUSH2 0x712 DUP2 PUSH2 0x480 JUMP JUMPDEST DUP5 ADD SWAP2 POP POP SWAP3 SWAP2 POP POP JUMP JUMPDEST PUSH0 PUSH1 0x20 DUP3 ADD SWAP1 POP DUP2 DUP2 SUB PUSH0 DUP4 ADD MSTORE PUSH2 0x735 DUP2 DUP5 PUSH2 0x6E5 JUMP JUMPDEST SWAP1 POP SWAP3 SWAP2 POP POP JUMP JUMPDEST PUSH0 PUSH0 PUSH1 0x40 DUP4 DUP6 SUB SLT ISZERO PUSH2 0x753 JUMPI PUSH2 0x752 PUSH2 0x470 JUMP JUMPDEST JUMPDEST PUSH0 DUP4 ADD CALLDATALOAD PUSH8 0xFFFFFFFFFFFFFFFF DUP2 GT ISZERO PUSH2 0x770 JUMPI PUSH2 0x76F PUSH2 0x474 JUMP JUMPDEST JUMPDEST PUSH2 0x77C DUP6 DUP3 DUP7 ADD PUSH2 0x587 JUMP JUMPDEST SWAP3 POP POP PUSH1 0x20 DUP4 ADD CALLDATALOAD PUSH8 0xFFFFFFFFFFFFFFFF DUP2 GT ISZERO PUSH2 0x79D JUMPI PUSH2 0x79C PUSH2 0x474 JUMP JUMPDEST JUMPDEST PUSH2 0x7A9 DUP6 DUP3 DUP7 ADD PUSH2 0x587 JUMP JUMPDEST SWAP2 POP POP SWAP3 POP SWAP3 SWAP1 POP JUMP JUMPDEST PUSH0 DUP2 SWAP1 POP SWAP3 SWAP2 POP POP JUMP JUMPDEST PUSH0 PUSH2 0x7C7 DUP3 PUSH2 0x6BD JUMP JUMPDEST PUSH2 0x7D1 DUP2 DUP6 PUSH2 0x7B3 JUMP JUMPDEST SWAP4 POP PUSH2 0x7E1 DUP2 DUP6 PUSH1 0x20 DUP7 ADD PUSH2 0x6D7 JUMP JUMPDEST DUP1 DUP5 ADD SWAP2 POP POP SWAP3 SWAP2 POP POP JUMP JUMPDEST PUSH0 PUSH2 0x7F8 DUP3 DUP5 PUSH2 0x7BD JUMP JUMPDEST SWAP2 POP DUP2 SWAP1 POP SWAP3 SWAP2 POP POP JUMP JUMPDEST PUSH32 0x4E487B7100000000000000000000000000000000000000000000000000000000 PUSH0 MSTORE PUSH1 0x22 PUSH1 0x4 MSTORE PUSH1 0x24 PUSH0 REVERT JUMPDEST PUSH0 PUSH1 0x2 DUP3 DIV SWAP1 POP PUSH1 0x1 DUP3 AND DUP1 PUSH2 0x847 JUMPI PUSH1 0x7F DUP3 AND SWAP2 POP JUMPDEST PUSH1 0x20 DUP3 LT DUP2 SUB PUSH2 0x85A JUMPI PUSH2 0x859 PUSH2 0x803 JUMP JUMPDEST JUMPDEST POP SWAP2 SWAP1 POP JUMP JUMPDEST PUSH32 0x4E487B7100000000000000000000000000000000000000000000000000000000 PUSH0 MSTORE PUSH1 0x32 PUSH1 0x4 MSTORE PUSH1 0x24 PUSH0 REVERT JUMPDEST PUSH0 DUP2 SWAP1 POP DUP2 PUSH0 MSTORE PUSH1 0x20 PUSH0 KECCAK256 SWAP1 POP SWAP2 SWAP1 POP JUMP JUMPDEST PUSH0 DUP2 SLOAD PUSH2 0x8AB DUP2 PUSH2 0x830 JUMP JUMPDEST PUSH2 0x8B5 DUP2 DUP7 PUSH2 0x7B3 JUMP JUMPDEST SWAP5 POP PUSH1 0x1 DUP3 AND PUSH0 DUP2 EQ PUSH2 0x8CF JUMPI PUSH1 0x1 DUP2 EQ PUSH2 0x8E4 JUMPI PUSH2 0x916 JUMP JUMPDEST PUSH1 0xFF NOT DUP4 AND DUP7 MSTORE DUP2 ISZERO ISZERO DUP3 MUL DUP7 ADD SWAP4 POP PUSH2 0x916 JUMP JUMPDEST PUSH2 0x8ED DUP6 PUSH2 0x88D JUMP JUMPDEST PUSH0 JUMPDEST DUP4 DUP2 LT ISZERO PUSH2 0x90E JUMPI DUP2 SLOAD DUP2 DUP10 ADD MSTORE PUSH1 0x1 DUP3 ADD SWAP2 POP PUSH1 0x20 DUP2 ADD SWAP1 POP PUSH2 0x8EF JUMP JUMPDEST DUP4 DUP9 ADD SWAP6 POP POP POP JUMPDEST POP POP POP SWAP3 SWAP2 POP POP JUMP JUMPDEST PUSH0 PUSH2 0x92A DUP3 DUP5 PUSH2 0x89F JUMP JUMPDEST SWAP2 POP DUP2 SWAP1 POP SWAP3 SWAP2 POP POP JUMP JUMPDEST PUSH0 PUSH1 0x20 PUSH1 0x1F DUP4 ADD DIV SWAP1 POP SWAP2 SWAP1 POP JUMP JUMPDEST PUSH0 DUP3 DUP3 SHL SWAP1 POP SWAP3 SWAP2 POP POP JUMP JUMPDEST PUSH0 PUSH1 0x8 DUP4 MUL PUSH2 0x97F PUSH32 0xFFFFFFFFFFFFFFFFFFFFFFFFFFFFFFFFFFFFFFFFFFFFFFFFFFFFFFFFFFFFFFFF DUP3 PUSH2 0x944 JUMP JUMPDEST PUSH2 0x989 DUP7 DUP4 PUSH2 0x944 JUMP JUMPDEST SWAP6 POP DUP1 NOT DUP5 AND SWAP4 POP DUP1 DUP7 AND DUP5 OR SWAP3 POP POP POP SWAP4 SWAP3 POP POP POP JUMP JUMPDEST PUSH0 DUP2 SWAP1 POP SWAP2 SWAP1 POP JUMP JUMPDEST PUSH0 PUSH2 0x9C4 PUSH2 0x9BF PUSH2 0x9BA DUP5 PUSH2 0x65F JUMP JUMPDEST PUSH2 0x9A1 JUMP JUMPDEST PUSH2 0x65F JUMP JUMPDEST SWAP1 POP SWAP2 SWAP1 POP JUMP JUMPDEST PUSH0 DUP2 SWAP1 POP SWAP2 SWAP1 POP JUMP JUMPDEST PUSH2 0x9DD DUP4 PUSH2 0x9AA JUMP JUMPDEST PUSH2 0x9F1 PUSH2 0x9E9 DUP3 PUSH2 0x9CB JUMP JUMPDEST DUP5 DUP5 SLOAD PUSH2 0x950 JUMP JUMPDEST DUP3 SSTORE POP POP POP POP JUMP JUMPDEST PUSH0 PUSH0 SWAP1 POP SWAP1 JUMP JUMPDEST PUSH2 0xA08 PUSH2 0x9F9 JUMP JUMPDEST PUSH2 0xA13 DUP2 DUP5 DUP5 PUSH2 0x9D4 JUMP JUMPDEST POP POP POP JUMP JUMPDEST JUMPDEST DUP2 DUP2 LT ISZERO PUSH2 0xA36 JUMPI PUSH2 0xA2B PUSH0 DUP3 PUSH2 0xA00 JUMP JUMPDEST PUSH1 0x1 DUP2 ADD SWAP1 POP PUSH2 0xA19 JUMP JUMPDEST POP POP JUMP JUMPDEST PUSH1 0x1F DUP3 GT ISZERO PUSH2 0xA7B JUMPI PUSH2 0xA4C DUP2 PUSH2 0x88D JUMP JUMPDEST PUSH2 0xA55 DUP5 PUSH2 0x935 JUMP JUMPDEST DUP2 ADD PUSH1 0x20 DUP6 LT ISZERO PUSH2 0xA64 JUMPI DUP2 SWAP1 POP JUMPDEST PUSH2 0xA78 PUSH2 0xA70 DUP6 PUSH2 0x935 JUMP JUMPDEST DUP4 ADD DUP3 PUSH2 0xA18 JUMP JUMPDEST POP POP JUMPDEST POP POP POP JUMP JUMPDEST PUSH0 DUP3 DUP3 SHR SWAP1 POP SWAP3 SWAP2 POP POP JUMP JUMPDEST PUSH0 PUSH2 0xA9B PUSH0 NOT DUP5 PUSH1 0x8 MUL PUSH2 0xA80 JUMP JUMPDEST NOT DUP1 DUP4 AND SWAP2 POP POP SWAP3 SWAP2 POP POP JUMP JUMPDEST PUSH0 PUSH2 0xAB3 DUP4 DUP4 PUSH2 0xA8C JUMP JUMPDEST SWAP2 POP DUP3 PUSH1 0x2 MUL DUP3 OR SWAP1 POP SWAP3 SWAP2 POP POP JUMP JUMPDEST PUSH2 0xACC DUP3 PUSH2 0x6BD JUMP JUMPDEST PUSH8 0xFFFFFFFFFFFFFFFF DUP2 GT ISZERO PUSH2 0xAE5 JUMPI PUSH2 0xAE4 PUSH2 0x490 JUMP JUMPDEST JUMPDEST PUSH2 0xAEF DUP3 SLOAD PUSH2 0x830 JUMP JUMPDEST PUSH2 0xAFA DUP3 DUP3 DUP6 PUSH2 0xA3A JUMP JUMPDEST PUSH0 PUSH1 0x20 SWAP1 POP PUSH1 0x1F DUP4 GT PUSH1 0x1 DUP2 EQ PUSH2 0xB2B JUMPI PUSH0 DUP5 ISZERO PUSH2 0xB19 JUMPI DUP3 DUP8 ADD MLOAD SWAP1 POP JUMPDEST PUSH2 0xB23 DUP6 DUP3 PUSH2 0xAA8 JUMP JUMPDEST DUP7 SSTORE POP PUSH2 0xB8A JUMP JUMPDEST PUSH1 0x1F NOT DUP5 AND PUSH2 0xB39 DUP7 PUSH2 0x88D JUMP JUMPDEST PUSH0 JUMPDEST DUP3 DUP2 LT ISZERO PUSH2 0xB60 JUMPI DUP5 DUP10 ADD MLOAD DUP3 SSTORE PUSH1 0x1 DUP3 ADD SWAP2 POP PUSH1 0x20 DUP6 ADD SWAP5 POP PUSH1 0x20 DUP2 ADD SWAP1 POP PUSH2 0xB3B JUMP JUMPDEST DUP7 DUP4 LT ISZERO PUSH2 0xB7D JUMPI DUP5 DUP10 ADD MLOAD PUSH2 0xB79 PUSH1 0x1F DUP10 AND DUP3 PUSH2 0xA8C JUMP JUMPDEST DUP4 SSTORE POP JUMPDEST PUSH1 0x1 PUSH1 0x2 DUP9 MUL ADD DUP9 SSTORE POP POP POP JUMPDEST POP POP POP POP POP POP JUMP JUMPDEST PUSH32 0x4E487B7100000000000000000000000000000000000000000000000000000000 PUSH0 MSTORE PUSH1 0x11 PUSH1 0x4 MSTORE PUSH1 0x24 PUSH0 REVERT JUMPDEST PUSH0 PUSH2 0xBC9 DUP3 PUSH2 0x62E JUMP JUMPDEST SWAP2 POP PUSH32 0x7FFFFFFFFFFFFFFFFFFFFFFFFFFFFFFFFFFFFFFFFFFFFFFFFFFFFFFFFFFFFFFF DUP3 SUB PUSH2 0xBFB JUMPI PUSH2 0xBFA PUSH2 0xB92 JUMP JUMPDEST JUMPDEST PUSH1 0x1 DUP3 ADD SWAP1 POP SWAP2 SWAP1 POP JUMP INVALID LOG2 PUSH5 0x6970667358 0x22 SLT KECCAK256 EXTCODESIZE SWAP11 0xCB 0xCF 0x4D 0xD0 0xB4 0x24 0xBF 0xE2 SLOAD 0x29 0xAA EXTCODEHASH SWAP14 JUMPF 0x2950 0x2C DUP9 0xB2 0x26 DIV LOG4 SWAP7 PUSH0 0x28 0xC5 0x1E 0xFC LT 0x2A PUSH5 0x736F6C6343 STOP ADDMOD 0x1E STOP CALLER "
				},
				"gasEstimates": {
					"creation": {
						"codeDepositCost": "626400",
						"executionCost": "655",
						"totalCost": "627055"
					},
					"external": {
						"candidateNames(uint256)": "infinite",
						"candidatesMapping(string)": "infinite",
						"getVotes(string)": "infinite",
						"hasVoted(string)": "infinite",
						"resetVotes()": "infinite",
						"vote(string,string)": "infinite"
					}
				},
				"methodIdentifiers": {
					"candidateNames(uint256)": "8287e42f",
					"candidatesMapping(string)": "73d70d4d",
					"getVotes(string)": "805265e5",
					"hasVoted(string)": "39bfeae3",
					"resetVotes()": "b9830ff1",
					"vote(string,string)": "e8d5940d"
				}
			},
			"storageLayout": {
				"storage": [
					{
						"astId": 5,
						"contract": "artifacts/Voting.sol:Voting",
						"label": "candidatesMapping",
						"offset": 0,
						"slot": "0",
						"type": "t_mapping(t_string_memory_ptr,t_int256)"
					},
					{
						"astId": 9,
						"contract": "artifacts/Voting.sol:Voting",
						"label": "hasVoted",
						"offset": 0,
						"slot": "1",
						"type": "t_mapping(t_string_memory_ptr,t_bool)"
					},
					{
						"astId": 12,
						"contract": "artifacts/Voting.sol:Voting",
						"label": "candidateNames",
						"offset": 0,
						"slot": "2",
						"type": "t_array(t_string_storage)dyn_storage"
					}
				],
				"types": {
					"t_array(t_string_storage)dyn_storage": {
						"base": "t_string_storage",
						"encoding": "dynamic_array",
						"label": "string[]",
						"numberOfBytes": "32"
					},
					"t_bool": {
						"encoding": "inplace",
						"label": "bool",
						"numberOfBytes": "1"
					},
					"t_int256": {
						"encoding": "inplace",
						"label": "int256",
						"numberOfBytes": "32"
					},
					"t_mapping(t_string_memory_ptr,t_bool)": {
						"encoding": "mapping",
						"key": "t_string_memory_ptr",
						"label": "mapping(string => bool)",
						"numberOfBytes": "32",
						"value": "t_bool"
					},
					"t_mapping(t_string_memory_ptr,t_int256)": {
						"encoding": "mapping",
						"key": "t_string_memory_ptr",
						"label": "mapping(string => int256)",
						"numberOfBytes": "32",
						"value": "t_int256"
					},
					"t_string_memory_ptr": {
						"encoding": "bytes",
						"label": "string",
						"numberOfBytes": "32"
					},
					"t_string_storage": {
						"encoding": "bytes",
						"label": "string",
						"numberOfBytes": "32"
					}
				}
			},
			"userdoc": {
				"kind": "user",
				"methods": {},
				"version": 1
			}
		}
	}
}