{
	"BinarySearch.sol": {
		"BinarySearch": {
			"abi": [
				{
					"inputs": [
						{
							"internalType": "uint256[]",
							"name": "arr",
							"type": "uint256[]"
						},
						{
							"internalType": "uint256",
							"name": "target",
							"type": "uint256"
						}
					],
					"name": "binarySearch",
					"outputs": [
						{
							"internalType": "int256",
							"name": "",
							"type": "int256"
						}
					],
					"stateMutability": "view",
					"type": "function"
				}
			],
			"devdoc": {
				"kind": "dev",
				"methods": {},
				"version": 1
			},
			"evm": {
				"assembly": "    /* \"BinarySearch.sol\":120:990  contract BinarySearch {... */\n  mstore(0x40, 0x80)\n  callvalue\n  dup1\n  iszero\n  tag_1\n  jumpi\n  revert(0x00, 0x00)\ntag_1:\n  pop\n  dataSize(sub_0)\n  dup1\n  dataOffset(sub_0)\n  0x00\n  codecopy\n  0x00\n  return\nstop\n\nsub_0: assembly {\n        /* \"BinarySearch.sol\":120:990  contract BinarySearch {... */\n      mstore(0x40, 0x80)\n      callvalue\n      dup1\n      iszero\n      tag_1\n      jumpi\n      revert(0x00, 0x00)\n    tag_1:\n      pop\n      jumpi(tag_2, lt(calldatasize, 0x04))\n      shr(0xe0, calldataload(0x00))\n      dup1\n      0xb12601da\n      eq\n      tag_3\n      jumpi\n    tag_2:\n      revert(0x00, 0x00)\n        /* \"BinarySearch.sol\":154:987  function binarySearch(uint[] memory arr, uint target) public view returns (int256) {... */\n    tag_3:\n      tag_4\n      0x04\n      dup1\n      calldatasize\n      sub\n      dup2\n      add\n      swap1\n      tag_5\n      swap2\n      swap1\n      tag_6\n      jump\t// in\n    tag_5:\n      tag_7\n      jump\t// in\n    tag_4:\n      mload(0x40)\n      tag_8\n      swap2\n      swap1\n      tag_9\n      jump\t// in\n    tag_8:\n      mload(0x40)\n      dup1\n      swap2\n      sub\n      swap1\n      return\n    tag_7:\n        /* \"BinarySearch.sol\":229:235  int256 */\n      0x00\n        /* \"BinarySearch.sol\":269:270  0 */\n      0x00\n        /* \"BinarySearch.sol\":256:259  arr */\n      dup4\n        /* \"BinarySearch.sol\":256:266  arr.length */\n      mload\n        /* \"BinarySearch.sol\":256:270  arr.length > 0 */\n      gt\n        /* \"BinarySearch.sol\":248:286  require(arr.length > 0, \"Empty array\") */\n      tag_11\n      jumpi\n      mload(0x40)\n      0x08c379a000000000000000000000000000000000000000000000000000000000\n      dup2\n      mstore\n      0x04\n      add\n      tag_12\n      swap1\n      tag_13\n      jump\t// in\n    tag_12:\n      mload(0x40)\n      dup1\n      swap2\n      sub\n      swap1\n      revert\n    tag_11:\n        /* \"BinarySearch.sol\":307:318  int256 left */\n      0x00\n        /* \"BinarySearch.sol\":321:322  0 */\n      0x00\n        /* \"BinarySearch.sol\":307:322  int256 left = 0 */\n      swap1\n      pop\n        /* \"BinarySearch.sol\":333:345  int256 right */\n      0x00\n        /* \"BinarySearch.sol\":369:370  1 */\n      0x01\n        /* \"BinarySearch.sol\":355:358  arr */\n      dup6\n        /* \"BinarySearch.sol\":355:365  arr.length */\n      mload\n        /* \"BinarySearch.sol\":348:370  int256(arr.length) - 1 */\n      tag_14\n      swap2\n      swap1\n      tag_15\n      jump\t// in\n    tag_14:\n        /* \"BinarySearch.sol\":333:370  int256 right = int256(arr.length) - 1 */\n      swap1\n      pop\n        /* \"BinarySearch.sol\":391:950  while (left <= right) {... */\n    tag_16:\n        /* \"BinarySearch.sol\":406:411  right */\n      dup1\n        /* \"BinarySearch.sol\":398:402  left */\n      dup3\n        /* \"BinarySearch.sol\":398:411  left <= right */\n      sgt\n        /* \"BinarySearch.sol\":391:950  while (left <= right) {... */\n      tag_17\n      jumpi\n        /* \"BinarySearch.sol\":481:491  int256 mid */\n      0x00\n        /* \"BinarySearch.sol\":518:519  2 */\n      0x02\n        /* \"BinarySearch.sol\":510:514  left */\n      dup4\n        /* \"BinarySearch.sol\":502:507  right */\n      dup4\n        /* \"BinarySearch.sol\":502:514  right - left */\n      tag_18\n      swap2\n      swap1\n      tag_15\n      jump\t// in\n    tag_18:\n        /* \"BinarySearch.sol\":501:519  (right - left) / 2 */\n      tag_19\n      swap2\n      swap1\n      tag_20\n      jump\t// in\n    tag_19:\n        /* \"BinarySearch.sol\":494:498  left */\n      dup4\n        /* \"BinarySearch.sol\":494:519  left + (right - left) / 2 */\n      tag_21\n      swap2\n      swap1\n      tag_22\n      jump\t// in\n    tag_21:\n        /* \"BinarySearch.sol\":481:519  int256 mid = left + (right - left) / 2 */\n      swap1\n      pop\n        /* \"BinarySearch.sol\":565:568  arr */\n      dup6\n        /* \"BinarySearch.sol\":565:575  arr.length */\n      mload\n        /* \"BinarySearch.sol\":557:560  mid */\n      dup2\n        /* \"BinarySearch.sol\":552:575  uint(mid) >= arr.length */\n      lt\n        /* \"BinarySearch.sol\":548:655  if (uint(mid) >= arr.length) {... */\n      tag_23\n      jumpi\n        /* \"BinarySearch.sol\":603:605  -1 */\n      0xffffffffffffffffffffffffffffffffffffffffffffffffffffffffffffffff\n        /* \"BinarySearch.sol\":596:605  return -1 */\n      swap4\n      pop\n      pop\n      pop\n      pop\n      jump(tag_10)\n        /* \"BinarySearch.sol\":548:655  if (uint(mid) >= arr.length) {... */\n    tag_23:\n        /* \"BinarySearch.sol\":683:694  uint midVal */\n      0x00\n        /* \"BinarySearch.sol\":697:700  arr */\n      dup7\n        /* \"BinarySearch.sol\":706:709  mid */\n      dup3\n        /* \"BinarySearch.sol\":697:711  arr[uint(mid)] */\n      dup2\n      mload\n      dup2\n      lt\n      tag_24\n      jumpi\n      tag_25\n      tag_26\n      jump\t// in\n    tag_25:\n    tag_24:\n      0x20\n      mul\n      0x20\n      add\n      add\n      mload\n        /* \"BinarySearch.sol\":683:711  uint midVal = arr[uint(mid)] */\n      swap1\n      pop\n        /* \"BinarySearch.sol\":754:760  target */\n      dup6\n        /* \"BinarySearch.sol\":744:750  midVal */\n      dup2\n        /* \"BinarySearch.sol\":744:760  midVal == target */\n      sub\n        /* \"BinarySearch.sol\":740:939  if (midVal == target) {... */\n      tag_27\n      jumpi\n        /* \"BinarySearch.sol\":788:791  mid */\n      dup2\n        /* \"BinarySearch.sol\":781:791  return mid */\n      swap5\n      pop\n      pop\n      pop\n      pop\n      pop\n      jump(tag_10)\n        /* \"BinarySearch.sol\":740:939  if (midVal == target) {... */\n    tag_27:\n        /* \"BinarySearch.sol\":826:832  target */\n      dup6\n        /* \"BinarySearch.sol\":817:823  midVal */\n      dup2\n        /* \"BinarySearch.sol\":817:832  midVal < target */\n      lt\n        /* \"BinarySearch.sol\":813:939  if (midVal < target) {... */\n      iszero\n      tag_29\n      jumpi\n        /* \"BinarySearch.sol\":866:867  1 */\n      0x01\n        /* \"BinarySearch.sol\":860:863  mid */\n      dup3\n        /* \"BinarySearch.sol\":860:867  mid + 1 */\n      tag_30\n      swap2\n      swap1\n      tag_22\n      jump\t// in\n    tag_30:\n        /* \"BinarySearch.sol\":853:867  left = mid + 1 */\n      swap4\n      pop\n        /* \"BinarySearch.sol\":813:939  if (midVal < target) {... */\n      jump(tag_31)\n    tag_29:\n        /* \"BinarySearch.sol\":922:923  1 */\n      0x01\n        /* \"BinarySearch.sol\":916:919  mid */\n      dup3\n        /* \"BinarySearch.sol\":916:923  mid - 1 */\n      tag_32\n      swap2\n      swap1\n      tag_15\n      jump\t// in\n    tag_32:\n        /* \"BinarySearch.sol\":908:923  right = mid - 1 */\n      swap3\n      pop\n        /* \"BinarySearch.sol\":813:939  if (midVal < target) {... */\n    tag_31:\n        /* \"BinarySearch.sol\":413:950  {... */\n      pop\n      pop\n        /* \"BinarySearch.sol\":391:950  while (left <= right) {... */\n      jump(tag_16)\n    tag_17:\n        /* \"BinarySearch.sol\":977:979  -1 */\n      0xffffffffffffffffffffffffffffffffffffffffffffffffffffffffffffffff\n        /* \"BinarySearch.sol\":970:979  return -1 */\n      swap3\n      pop\n      pop\n      pop\n        /* \"BinarySearch.sol\":154:987  function binarySearch(uint[] memory arr, uint target) public view returns (int256) {... */\n    tag_10:\n      swap3\n      swap2\n      pop\n      pop\n      jump\t// out\n        /* \"#utility.yul\":7:82   */\n    tag_33:\n        /* \"#utility.yul\":40:46   */\n      0x00\n        /* \"#utility.yul\":73:75   */\n      0x40\n        /* \"#utility.yul\":67:76   */\n      mload\n        /* \"#utility.yul\":57:76   */\n      swap1\n      pop\n        /* \"#utility.yul\":7:82   */\n      swap1\n      jump\t// out\n        /* \"#utility.yul\":88:205   */\n    tag_34:\n        /* \"#utility.yul\":197:198   */\n      0x00\n        /* \"#utility.yul\":194:195   */\n      0x00\n        /* \"#utility.yul\":187:199   */\n      revert\n        /* \"#utility.yul\":211:328   */\n    tag_35:\n        /* \"#utility.yul\":320:321   */\n      0x00\n        /* \"#utility.yul\":317:318   */\n      0x00\n        /* \"#utility.yul\":310:322   */\n      revert\n        /* \"#utility.yul\":334:451   */\n    tag_36:\n        /* \"#utility.yul\":443:444   */\n      0x00\n        /* \"#utility.yul\":440:441   */\n      0x00\n        /* \"#utility.yul\":433:445   */\n      revert\n        /* \"#utility.yul\":457:559   */\n    tag_37:\n        /* \"#utility.yul\":498:504   */\n      0x00\n        /* \"#utility.yul\":549:551   */\n      0x1f\n        /* \"#utility.yul\":545:552   */\n      not\n        /* \"#utility.yul\":540:542   */\n      0x1f\n        /* \"#utility.yul\":533:538   */\n      dup4\n        /* \"#utility.yul\":529:543   */\n      add\n        /* \"#utility.yul\":525:553   */\n      and\n        /* \"#utility.yul\":515:553   */\n      swap1\n      pop\n        /* \"#utility.yul\":457:559   */\n      swap2\n      swap1\n      pop\n      jump\t// out\n        /* \"#utility.yul\":565:745   */\n    tag_38:\n        /* \"#utility.yul\":613:690   */\n      0x4e487b7100000000000000000000000000000000000000000000000000000000\n        /* \"#utility.yul\":610:611   */\n      0x00\n        /* \"#utility.yul\":603:691   */\n      mstore\n        /* \"#utility.yul\":710:714   */\n      0x41\n        /* \"#utility.yul\":707:708   */\n      0x04\n        /* \"#utility.yul\":700:715   */\n      mstore\n        /* \"#utility.yul\":734:738   */\n      0x24\n        /* \"#utility.yul\":731:732   */\n      0x00\n        /* \"#utility.yul\":724:739   */\n      revert\n        /* \"#utility.yul\":751:1032   */\n    tag_39:\n        /* \"#utility.yul\":834:861   */\n      tag_63\n        /* \"#utility.yul\":856:860   */\n      dup3\n        /* \"#utility.yul\":834:861   */\n      tag_37\n      jump\t// in\n    tag_63:\n        /* \"#utility.yul\":826:832   */\n      dup2\n        /* \"#utility.yul\":822:862   */\n      add\n        /* \"#utility.yul\":964:970   */\n      dup2\n        /* \"#utility.yul\":952:962   */\n      dup2\n        /* \"#utility.yul\":949:971   */\n      lt\n        /* \"#utility.yul\":928:946   */\n      0xffffffffffffffff\n        /* \"#utility.yul\":916:926   */\n      dup3\n        /* \"#utility.yul\":913:947   */\n      gt\n        /* \"#utility.yul\":910:972   */\n      or\n        /* \"#utility.yul\":907:995   */\n      iszero\n      tag_64\n      jumpi\n        /* \"#utility.yul\":975:993   */\n      tag_65\n      tag_38\n      jump\t// in\n    tag_65:\n        /* \"#utility.yul\":907:995   */\n    tag_64:\n        /* \"#utility.yul\":1015:1025   */\n      dup1\n        /* \"#utility.yul\":1011:1013   */\n      0x40\n        /* \"#utility.yul\":1004:1026   */\n      mstore\n        /* \"#utility.yul\":794:1032   */\n      pop\n        /* \"#utility.yul\":751:1032   */\n      pop\n      pop\n      jump\t// out\n        /* \"#utility.yul\":1038:1167   */\n    tag_40:\n        /* \"#utility.yul\":1072:1078   */\n      0x00\n        /* \"#utility.yul\":1099:1119   */\n      tag_67\n      tag_33\n      jump\t// in\n    tag_67:\n        /* \"#utility.yul\":1089:1119   */\n      swap1\n      pop\n        /* \"#utility.yul\":1128:1161   */\n      tag_68\n        /* \"#utility.yul\":1156:1160   */\n      dup3\n        /* \"#utility.yul\":1148:1154   */\n      dup3\n        /* \"#utility.yul\":1128:1161   */\n      tag_39\n      jump\t// in\n    tag_68:\n        /* \"#utility.yul\":1038:1167   */\n      swap2\n      swap1\n      pop\n      jump\t// out\n        /* \"#utility.yul\":1173:1484   */\n    tag_41:\n        /* \"#utility.yul\":1250:1254   */\n      0x00\n        /* \"#utility.yul\":1340:1358   */\n      0xffffffffffffffff\n        /* \"#utility.yul\":1332:1338   */\n      dup3\n        /* \"#utility.yul\":1329:1359   */\n      gt\n        /* \"#utility.yul\":1326:1382   */\n      iszero\n      tag_70\n      jumpi\n        /* \"#utility.yul\":1362:1380   */\n      tag_71\n      tag_38\n      jump\t// in\n    tag_71:\n        /* \"#utility.yul\":1326:1382   */\n    tag_70:\n        /* \"#utility.yul\":1412:1416   */\n      0x20\n        /* \"#utility.yul\":1404:1410   */\n      dup3\n        /* \"#utility.yul\":1400:1417   */\n      mul\n        /* \"#utility.yul\":1392:1417   */\n      swap1\n      pop\n        /* \"#utility.yul\":1472:1476   */\n      0x20\n        /* \"#utility.yul\":1466:1470   */\n      dup2\n        /* \"#utility.yul\":1462:1477   */\n      add\n        /* \"#utility.yul\":1454:1477   */\n      swap1\n      pop\n        /* \"#utility.yul\":1173:1484   */\n      swap2\n      swap1\n      pop\n      jump\t// out\n        /* \"#utility.yul\":1490:1607   */\n    tag_42:\n        /* \"#utility.yul\":1599:1600   */\n      0x00\n        /* \"#utility.yul\":1596:1597   */\n      0x00\n        /* \"#utility.yul\":1589:1601   */\n      revert\n        /* \"#utility.yul\":1613:1690   */\n    tag_43:\n        /* \"#utility.yul\":1650:1657   */\n      0x00\n        /* \"#utility.yul\":1679:1684   */\n      dup2\n        /* \"#utility.yul\":1668:1684   */\n      swap1\n      pop\n        /* \"#utility.yul\":1613:1690   */\n      swap2\n      swap1\n      pop\n      jump\t// out\n        /* \"#utility.yul\":1696:1818   */\n    tag_44:\n        /* \"#utility.yul\":1769:1793   */\n      tag_75\n        /* \"#utility.yul\":1787:1792   */\n      dup2\n        /* \"#utility.yul\":1769:1793   */\n      tag_43\n      jump\t// in\n    tag_75:\n        /* \"#utility.yul\":1762:1767   */\n      dup2\n        /* \"#utility.yul\":1759:1794   */\n      eq\n        /* \"#utility.yul\":1749:1812   */\n      tag_76\n      jumpi\n        /* \"#utility.yul\":1808:1809   */\n      0x00\n        /* \"#utility.yul\":1805:1806   */\n      0x00\n        /* \"#utility.yul\":1798:1810   */\n      revert\n        /* \"#utility.yul\":1749:1812   */\n    tag_76:\n        /* \"#utility.yul\":1696:1818   */\n      pop\n      jump\t// out\n        /* \"#utility.yul\":1824:1963   */\n    tag_45:\n        /* \"#utility.yul\":1870:1875   */\n      0x00\n        /* \"#utility.yul\":1908:1914   */\n      dup2\n        /* \"#utility.yul\":1895:1915   */\n      calldataload\n        /* \"#utility.yul\":1886:1915   */\n      swap1\n      pop\n        /* \"#utility.yul\":1924:1957   */\n      tag_78\n        /* \"#utility.yul\":1951:1956   */\n      dup2\n        /* \"#utility.yul\":1924:1957   */\n      tag_44\n      jump\t// in\n    tag_78:\n        /* \"#utility.yul\":1824:1963   */\n      swap3\n      swap2\n      pop\n      pop\n      jump\t// out\n        /* \"#utility.yul\":1986:2696   */\n    tag_46:\n        /* \"#utility.yul\":2082:2087   */\n      0x00\n        /* \"#utility.yul\":2107:2188   */\n      tag_80\n        /* \"#utility.yul\":2123:2187   */\n      tag_81\n        /* \"#utility.yul\":2180:2186   */\n      dup5\n        /* \"#utility.yul\":2123:2187   */\n      tag_41\n      jump\t// in\n    tag_81:\n        /* \"#utility.yul\":2107:2188   */\n      tag_40\n      jump\t// in\n    tag_80:\n        /* \"#utility.yul\":2098:2188   */\n      swap1\n      pop\n        /* \"#utility.yul\":2208:2213   */\n      dup1\n        /* \"#utility.yul\":2237:2243   */\n      dup4\n        /* \"#utility.yul\":2230:2235   */\n      dup3\n        /* \"#utility.yul\":2223:2244   */\n      mstore\n        /* \"#utility.yul\":2271:2275   */\n      0x20\n        /* \"#utility.yul\":2264:2269   */\n      dup3\n        /* \"#utility.yul\":2260:2276   */\n      add\n        /* \"#utility.yul\":2253:2276   */\n      swap1\n      pop\n        /* \"#utility.yul\":2324:2328   */\n      0x20\n        /* \"#utility.yul\":2316:2322   */\n      dup5\n        /* \"#utility.yul\":2312:2329   */\n      mul\n        /* \"#utility.yul\":2304:2310   */\n      dup4\n        /* \"#utility.yul\":2300:2330   */\n      add\n        /* \"#utility.yul\":2353:2356   */\n      dup6\n        /* \"#utility.yul\":2345:2351   */\n      dup2\n        /* \"#utility.yul\":2342:2357   */\n      gt\n        /* \"#utility.yul\":2339:2461   */\n      iszero\n      tag_82\n      jumpi\n        /* \"#utility.yul\":2372:2451   */\n      tag_83\n      tag_42\n      jump\t// in\n    tag_83:\n        /* \"#utility.yul\":2339:2461   */\n    tag_82:\n        /* \"#utility.yul\":2487:2493   */\n      dup4\n        /* \"#utility.yul\":2470:2690   */\n    tag_84:\n        /* \"#utility.yul\":2504:2510   */\n      dup2\n        /* \"#utility.yul\":2499:2502   */\n      dup2\n        /* \"#utility.yul\":2496:2511   */\n      lt\n        /* \"#utility.yul\":2470:2690   */\n      iszero\n      tag_86\n      jumpi\n        /* \"#utility.yul\":2579:2582   */\n      dup1\n        /* \"#utility.yul\":2608:2645   */\n      tag_87\n        /* \"#utility.yul\":2641:2644   */\n      dup9\n        /* \"#utility.yul\":2629:2639   */\n      dup3\n        /* \"#utility.yul\":2608:2645   */\n      tag_45\n      jump\t// in\n    tag_87:\n        /* \"#utility.yul\":2603:2606   */\n      dup5\n        /* \"#utility.yul\":2596:2646   */\n      mstore\n        /* \"#utility.yul\":2675:2679   */\n      0x20\n        /* \"#utility.yul\":2670:2673   */\n      dup5\n        /* \"#utility.yul\":2666:2680   */\n      add\n        /* \"#utility.yul\":2659:2680   */\n      swap4\n      pop\n        /* \"#utility.yul\":2546:2690   */\n      pop\n        /* \"#utility.yul\":2530:2534   */\n      0x20\n        /* \"#utility.yul\":2525:2528   */\n      dup2\n        /* \"#utility.yul\":2521:2535   */\n      add\n        /* \"#utility.yul\":2514:2535   */\n      swap1\n      pop\n        /* \"#utility.yul\":2470:2690   */\n      jump(tag_84)\n    tag_86:\n        /* \"#utility.yul\":2474:2495   */\n      pop\n        /* \"#utility.yul\":2088:2696   */\n      pop\n      pop\n        /* \"#utility.yul\":1986:2696   */\n      swap4\n      swap3\n      pop\n      pop\n      pop\n      jump\t// out\n        /* \"#utility.yul\":2719:3089   */\n    tag_47:\n        /* \"#utility.yul\":2790:2795   */\n      0x00\n        /* \"#utility.yul\":2839:2842   */\n      dup3\n        /* \"#utility.yul\":2832:2836   */\n      0x1f\n        /* \"#utility.yul\":2824:2830   */\n      dup4\n        /* \"#utility.yul\":2820:2837   */\n      add\n        /* \"#utility.yul\":2816:2843   */\n      slt\n        /* \"#utility.yul\":2806:2928   */\n      tag_89\n      jumpi\n        /* \"#utility.yul\":2847:2926   */\n      tag_90\n      tag_36\n      jump\t// in\n    tag_90:\n        /* \"#utility.yul\":2806:2928   */\n    tag_89:\n        /* \"#utility.yul\":2964:2970   */\n      dup2\n        /* \"#utility.yul\":2951:2971   */\n      calldataload\n        /* \"#utility.yul\":2989:3083   */\n      tag_91\n        /* \"#utility.yul\":3079:3082   */\n      dup5\n        /* \"#utility.yul\":3071:3077   */\n      dup3\n        /* \"#utility.yul\":3064:3068   */\n      0x20\n        /* \"#utility.yul\":3056:3062   */\n      dup7\n        /* \"#utility.yul\":3052:3069   */\n      add\n        /* \"#utility.yul\":2989:3083   */\n      tag_46\n      jump\t// in\n    tag_91:\n        /* \"#utility.yul\":2980:3083   */\n      swap2\n      pop\n        /* \"#utility.yul\":2796:3089   */\n      pop\n        /* \"#utility.yul\":2719:3089   */\n      swap3\n      swap2\n      pop\n      pop\n      jump\t// out\n        /* \"#utility.yul\":3095:3779   */\n    tag_6:\n        /* \"#utility.yul\":3188:3194   */\n      0x00\n        /* \"#utility.yul\":3196:3202   */\n      0x00\n        /* \"#utility.yul\":3245:3247   */\n      0x40\n        /* \"#utility.yul\":3233:3242   */\n      dup4\n        /* \"#utility.yul\":3224:3231   */\n      dup6\n        /* \"#utility.yul\":3220:3243   */\n      sub\n        /* \"#utility.yul\":3216:3248   */\n      slt\n        /* \"#utility.yul\":3213:3332   */\n      iszero\n      tag_93\n      jumpi\n        /* \"#utility.yul\":3251:3330   */\n      tag_94\n      tag_34\n      jump\t// in\n    tag_94:\n        /* \"#utility.yul\":3213:3332   */\n    tag_93:\n        /* \"#utility.yul\":3399:3400   */\n      0x00\n        /* \"#utility.yul\":3388:3397   */\n      dup4\n        /* \"#utility.yul\":3384:3401   */\n      add\n        /* \"#utility.yul\":3371:3402   */\n      calldataload\n        /* \"#utility.yul\":3429:3447   */\n      0xffffffffffffffff\n        /* \"#utility.yul\":3421:3427   */\n      dup2\n        /* \"#utility.yul\":3418:3448   */\n      gt\n        /* \"#utility.yul\":3415:3532   */\n      iszero\n      tag_95\n      jumpi\n        /* \"#utility.yul\":3451:3530   */\n      tag_96\n      tag_35\n      jump\t// in\n    tag_96:\n        /* \"#utility.yul\":3415:3532   */\n    tag_95:\n        /* \"#utility.yul\":3556:3634   */\n      tag_97\n        /* \"#utility.yul\":3626:3633   */\n      dup6\n        /* \"#utility.yul\":3617:3623   */\n      dup3\n        /* \"#utility.yul\":3606:3615   */\n      dup7\n        /* \"#utility.yul\":3602:3624   */\n      add\n        /* \"#utility.yul\":3556:3634   */\n      tag_47\n      jump\t// in\n    tag_97:\n        /* \"#utility.yul\":3546:3634   */\n      swap3\n      pop\n        /* \"#utility.yul\":3342:3644   */\n      pop\n        /* \"#utility.yul\":3683:3685   */\n      0x20\n        /* \"#utility.yul\":3709:3762   */\n      tag_98\n        /* \"#utility.yul\":3754:3761   */\n      dup6\n        /* \"#utility.yul\":3745:3751   */\n      dup3\n        /* \"#utility.yul\":3734:3743   */\n      dup7\n        /* \"#utility.yul\":3730:3752   */\n      add\n        /* \"#utility.yul\":3709:3762   */\n      tag_45\n      jump\t// in\n    tag_98:\n        /* \"#utility.yul\":3699:3762   */\n      swap2\n      pop\n        /* \"#utility.yul\":3654:3772   */\n      pop\n        /* \"#utility.yul\":3095:3779   */\n      swap3\n      pop\n      swap3\n      swap1\n      pop\n      jump\t// out\n        /* \"#utility.yul\":3785:3861   */\n    tag_48:\n        /* \"#utility.yul\":3821:3828   */\n      0x00\n        /* \"#utility.yul\":3850:3855   */\n      dup2\n        /* \"#utility.yul\":3839:3855   */\n      swap1\n      pop\n        /* \"#utility.yul\":3785:3861   */\n      swap2\n      swap1\n      pop\n      jump\t// out\n        /* \"#utility.yul\":3867:3982   */\n    tag_49:\n        /* \"#utility.yul\":3952:3975   */\n      tag_101\n        /* \"#utility.yul\":3969:3974   */\n      dup2\n        /* \"#utility.yul\":3952:3975   */\n      tag_48\n      jump\t// in\n    tag_101:\n        /* \"#utility.yul\":3947:3950   */\n      dup3\n        /* \"#utility.yul\":3940:3976   */\n      mstore\n        /* \"#utility.yul\":3867:3982   */\n      pop\n      pop\n      jump\t// out\n        /* \"#utility.yul\":3988:4206   */\n    tag_9:\n        /* \"#utility.yul\":4079:4083   */\n      0x00\n        /* \"#utility.yul\":4117:4119   */\n      0x20\n        /* \"#utility.yul\":4106:4115   */\n      dup3\n        /* \"#utility.yul\":4102:4120   */\n      add\n        /* \"#utility.yul\":4094:4120   */\n      swap1\n      pop\n        /* \"#utility.yul\":4130:4199   */\n      tag_103\n        /* \"#utility.yul\":4196:4197   */\n      0x00\n        /* \"#utility.yul\":4185:4194   */\n      dup4\n        /* \"#utility.yul\":4181:4198   */\n      add\n        /* \"#utility.yul\":4172:4178   */\n      dup5\n        /* \"#utility.yul\":4130:4199   */\n      tag_49\n      jump\t// in\n    tag_103:\n        /* \"#utility.yul\":3988:4206   */\n      swap3\n      swap2\n      pop\n      pop\n      jump\t// out\n        /* \"#utility.yul\":4212:4381   */\n    tag_50:\n        /* \"#utility.yul\":4296:4307   */\n      0x00\n        /* \"#utility.yul\":4330:4336   */\n      dup3\n        /* \"#utility.yul\":4325:4328   */\n      dup3\n        /* \"#utility.yul\":4318:4337   */\n      mstore\n        /* \"#utility.yul\":4370:4374   */\n      0x20\n        /* \"#utility.yul\":4365:4368   */\n      dup3\n        /* \"#utility.yul\":4361:4375   */\n      add\n        /* \"#utility.yul\":4346:4375   */\n      swap1\n      pop\n        /* \"#utility.yul\":4212:4381   */\n      swap3\n      swap2\n      pop\n      pop\n      jump\t// out\n        /* \"#utility.yul\":4387:4548   */\n    tag_51:\n        /* \"#utility.yul\":4527:4540   */\n      0x456d707479206172726179000000000000000000000000000000000000000000\n        /* \"#utility.yul\":4523:4524   */\n      0x00\n        /* \"#utility.yul\":4515:4521   */\n      dup3\n        /* \"#utility.yul\":4511:4525   */\n      add\n        /* \"#utility.yul\":4504:4541   */\n      mstore\n        /* \"#utility.yul\":4387:4548   */\n      pop\n      jump\t// out\n        /* \"#utility.yul\":4554:4920   */\n    tag_52:\n        /* \"#utility.yul\":4696:4699   */\n      0x00\n        /* \"#utility.yul\":4717:4784   */\n      tag_107\n        /* \"#utility.yul\":4781:4783   */\n      0x0b\n        /* \"#utility.yul\":4776:4779   */\n      dup4\n        /* \"#utility.yul\":4717:4784   */\n      tag_50\n      jump\t// in\n    tag_107:\n        /* \"#utility.yul\":4710:4784   */\n      swap2\n      pop\n        /* \"#utility.yul\":4793:4886   */\n      tag_108\n        /* \"#utility.yul\":4882:4885   */\n      dup3\n        /* \"#utility.yul\":4793:4886   */\n      tag_51\n      jump\t// in\n    tag_108:\n        /* \"#utility.yul\":4911:4913   */\n      0x20\n        /* \"#utility.yul\":4906:4909   */\n      dup3\n        /* \"#utility.yul\":4902:4914   */\n      add\n        /* \"#utility.yul\":4895:4914   */\n      swap1\n      pop\n        /* \"#utility.yul\":4554:4920   */\n      swap2\n      swap1\n      pop\n      jump\t// out\n        /* \"#utility.yul\":4926:5345   */\n    tag_13:\n        /* \"#utility.yul\":5092:5096   */\n      0x00\n        /* \"#utility.yul\":5130:5132   */\n      0x20\n        /* \"#utility.yul\":5119:5128   */\n      dup3\n        /* \"#utility.yul\":5115:5133   */\n      add\n        /* \"#utility.yul\":5107:5133   */\n      swap1\n      pop\n        /* \"#utility.yul\":5179:5188   */\n      dup2\n        /* \"#utility.yul\":5173:5177   */\n      dup2\n        /* \"#utility.yul\":5169:5189   */\n      sub\n        /* \"#utility.yul\":5165:5166   */\n      0x00\n        /* \"#utility.yul\":5154:5163   */\n      dup4\n        /* \"#utility.yul\":5150:5167   */\n      add\n        /* \"#utility.yul\":5143:5190   */\n      mstore\n        /* \"#utility.yul\":5207:5338   */\n      tag_110\n        /* \"#utility.yul\":5333:5337   */\n      dup2\n        /* \"#utility.yul\":5207:5338   */\n      tag_52\n      jump\t// in\n    tag_110:\n        /* \"#utility.yul\":5199:5338   */\n      swap1\n      pop\n        /* \"#utility.yul\":4926:5345   */\n      swap2\n      swap1\n      pop\n      jump\t// out\n        /* \"#utility.yul\":5351:5531   */\n    tag_53:\n        /* \"#utility.yul\":5399:5476   */\n      0x4e487b7100000000000000000000000000000000000000000000000000000000\n        /* \"#utility.yul\":5396:5397   */\n      0x00\n        /* \"#utility.yul\":5389:5477   */\n      mstore\n        /* \"#utility.yul\":5496:5500   */\n      0x11\n        /* \"#utility.yul\":5493:5494   */\n      0x04\n        /* \"#utility.yul\":5486:5501   */\n      mstore\n        /* \"#utility.yul\":5520:5524   */\n      0x24\n        /* \"#utility.yul\":5517:5518   */\n      0x00\n        /* \"#utility.yul\":5510:5525   */\n      revert\n        /* \"#utility.yul\":5537:5909   */\n    tag_15:\n        /* \"#utility.yul\":5576:5580   */\n      0x00\n        /* \"#utility.yul\":5596:5615   */\n      tag_113\n        /* \"#utility.yul\":5613:5614   */\n      dup3\n        /* \"#utility.yul\":5596:5615   */\n      tag_48\n      jump\t// in\n    tag_113:\n        /* \"#utility.yul\":5591:5615   */\n      swap2\n      pop\n        /* \"#utility.yul\":5629:5648   */\n      tag_114\n        /* \"#utility.yul\":5646:5647   */\n      dup4\n        /* \"#utility.yul\":5629:5648   */\n      tag_48\n      jump\t// in\n    tag_114:\n        /* \"#utility.yul\":5624:5648   */\n      swap3\n      pop\n        /* \"#utility.yul\":5672:5673   */\n      dup3\n        /* \"#utility.yul\":5669:5670   */\n      dup3\n        /* \"#utility.yul\":5665:5674   */\n      sub\n        /* \"#utility.yul\":5657:5674   */\n      swap1\n      pop\n        /* \"#utility.yul\":5866:5867   */\n      dup2\n        /* \"#utility.yul\":5860:5864   */\n      dup2\n        /* \"#utility.yul\":5856:5868   */\n      slt\n        /* \"#utility.yul\":5852:5853   */\n      0x00\n        /* \"#utility.yul\":5849:5850   */\n      dup5\n        /* \"#utility.yul\":5845:5854   */\n      slt\n        /* \"#utility.yul\":5841:5869   */\n      and\n        /* \"#utility.yul\":5824:5825   */\n      dup3\n        /* \"#utility.yul\":5818:5822   */\n      dup3\n        /* \"#utility.yul\":5814:5826   */\n      sgt\n        /* \"#utility.yul\":5809:5810   */\n      0x00\n        /* \"#utility.yul\":5806:5807   */\n      dup6\n        /* \"#utility.yul\":5802:5811   */\n      slt\n        /* \"#utility.yul\":5795:5812   */\n      iszero\n        /* \"#utility.yul\":5791:5827   */\n      and\n        /* \"#utility.yul\":5775:5879   */\n      or\n        /* \"#utility.yul\":5772:5902   */\n      iszero\n      tag_115\n      jumpi\n        /* \"#utility.yul\":5882:5900   */\n      tag_116\n      tag_53\n      jump\t// in\n    tag_116:\n        /* \"#utility.yul\":5772:5902   */\n    tag_115:\n        /* \"#utility.yul\":5537:5909   */\n      swap3\n      swap2\n      pop\n      pop\n      jump\t// out\n        /* \"#utility.yul\":5915:6095   */\n    tag_54:\n        /* \"#utility.yul\":5963:6040   */\n      0x4e487b7100000000000000000000000000000000000000000000000000000000\n        /* \"#utility.yul\":5960:5961   */\n      0x00\n        /* \"#utility.yul\":5953:6041   */\n      mstore\n        /* \"#utility.yul\":6060:6064   */\n      0x12\n        /* \"#utility.yul\":6057:6058   */\n      0x04\n        /* \"#utility.yul\":6050:6065   */\n      mstore\n        /* \"#utility.yul\":6084:6088   */\n      0x24\n        /* \"#utility.yul\":6081:6082   */\n      0x00\n        /* \"#utility.yul\":6074:6089   */\n      revert\n        /* \"#utility.yul\":6101:6486   */\n    tag_20:\n        /* \"#utility.yul\":6140:6141   */\n      0x00\n        /* \"#utility.yul\":6157:6176   */\n      tag_119\n        /* \"#utility.yul\":6174:6175   */\n      dup3\n        /* \"#utility.yul\":6157:6176   */\n      tag_48\n      jump\t// in\n    tag_119:\n        /* \"#utility.yul\":6152:6176   */\n      swap2\n      pop\n        /* \"#utility.yul\":6190:6209   */\n      tag_120\n        /* \"#utility.yul\":6207:6208   */\n      dup4\n        /* \"#utility.yul\":6190:6209   */\n      tag_48\n      jump\t// in\n    tag_120:\n        /* \"#utility.yul\":6185:6209   */\n      swap3\n      pop\n        /* \"#utility.yul\":6228:6229   */\n      dup3\n        /* \"#utility.yul\":6218:6253   */\n      tag_121\n      jumpi\n        /* \"#utility.yul\":6233:6251   */\n      tag_122\n      tag_54\n      jump\t// in\n    tag_122:\n        /* \"#utility.yul\":6218:6253   */\n    tag_121:\n        /* \"#utility.yul\":6419:6420   */\n      0x01\n        /* \"#utility.yul\":6416:6417   */\n      0x00\n        /* \"#utility.yul\":6412:6421   */\n      sub\n        /* \"#utility.yul\":6409:6410   */\n      dup4\n        /* \"#utility.yul\":6406:6422   */\n      eq\n        /* \"#utility.yul\":6325:6391   */\n      0x8000000000000000000000000000000000000000000000000000000000000000\n        /* \"#utility.yul\":6322:6323   */\n      dup4\n        /* \"#utility.yul\":6319:6392   */\n      eq\n        /* \"#utility.yul\":6302:6432   */\n      and\n        /* \"#utility.yul\":6299:6455   */\n      iszero\n      tag_123\n      jumpi\n        /* \"#utility.yul\":6435:6453   */\n      tag_124\n      tag_53\n      jump\t// in\n    tag_124:\n        /* \"#utility.yul\":6299:6455   */\n    tag_123:\n        /* \"#utility.yul\":6478:6479   */\n      dup3\n        /* \"#utility.yul\":6475:6476   */\n      dup3\n        /* \"#utility.yul\":6470:6480   */\n      sdiv\n        /* \"#utility.yul\":6465:6480   */\n      swap1\n      pop\n        /* \"#utility.yul\":6101:6486   */\n      swap3\n      swap2\n      pop\n      pop\n      jump\t// out\n        /* \"#utility.yul\":6492:6867   */\n    tag_22:\n        /* \"#utility.yul\":6531:6534   */\n      0x00\n        /* \"#utility.yul\":6550:6569   */\n      tag_126\n        /* \"#utility.yul\":6567:6568   */\n      dup3\n        /* \"#utility.yul\":6550:6569   */\n      tag_48\n      jump\t// in\n    tag_126:\n        /* \"#utility.yul\":6545:6569   */\n      swap2\n      pop\n        /* \"#utility.yul\":6583:6602   */\n      tag_127\n        /* \"#utility.yul\":6600:6601   */\n      dup4\n        /* \"#utility.yul\":6583:6602   */\n      tag_48\n      jump\t// in\n    tag_127:\n        /* \"#utility.yul\":6578:6602   */\n      swap3\n      pop\n        /* \"#utility.yul\":6625:6626   */\n      dup3\n        /* \"#utility.yul\":6622:6623   */\n      dup3\n        /* \"#utility.yul\":6618:6627   */\n      add\n        /* \"#utility.yul\":6611:6627   */\n      swap1\n      pop\n        /* \"#utility.yul\":6823:6824   */\n      dup3\n        /* \"#utility.yul\":6818:6821   */\n      dup2\n        /* \"#utility.yul\":6814:6825   */\n      slt\n        /* \"#utility.yul\":6807:6826   */\n      iszero\n        /* \"#utility.yul\":6803:6804   */\n      0x00\n        /* \"#utility.yul\":6800:6801   */\n      dup4\n        /* \"#utility.yul\":6796:6805   */\n      slt\n        /* \"#utility.yul\":6792:6827   */\n      and\n        /* \"#utility.yul\":6775:6776   */\n      dup4\n        /* \"#utility.yul\":6770:6773   */\n      dup3\n        /* \"#utility.yul\":6766:6777   */\n      slt\n        /* \"#utility.yul\":6761:6762   */\n      0x00\n        /* \"#utility.yul\":6758:6759   */\n      dup5\n        /* \"#utility.yul\":6754:6763   */\n      slt\n        /* \"#utility.yul\":6747:6764   */\n      iszero\n        /* \"#utility.yul\":6743:6778   */\n      and\n        /* \"#utility.yul\":6727:6837   */\n      or\n        /* \"#utility.yul\":6724:6860   */\n      iszero\n      tag_128\n      jumpi\n        /* \"#utility.yul\":6840:6858   */\n      tag_129\n      tag_53\n      jump\t// in\n    tag_129:\n        /* \"#utility.yul\":6724:6860   */\n    tag_128:\n        /* \"#utility.yul\":6492:6867   */\n      swap3\n      swap2\n      pop\n      pop\n      jump\t// out\n        /* \"#utility.yul\":6873:7053   */\n    tag_26:\n        /* \"#utility.yul\":6921:6998   */\n      0x4e487b7100000000000000000000000000000000000000000000000000000000\n        /* \"#utility.yul\":6918:6919   */\n      0x00\n        /* \"#utility.yul\":6911:6999   */\n      mstore\n        /* \"#utility.yul\":7018:7022   */\n      0x32\n        /* \"#utility.yul\":7015:7016   */\n      0x04\n        /* \"#utility.yul\":7008:7023   */\n      mstore\n        /* \"#utility.yul\":7042:7046   */\n      0x24\n        /* \"#utility.yul\":7039:7040   */\n      0x00\n        /* \"#utility.yul\":7032:7047   */\n      revert\n\n    auxdata: 0xa26469706673582212209dad3344aca559075d35ecf8d355d541143fbecd09880a03579dd74cc3eec17764736f6c634300081e0033\n}\n",
				"bytecode": {
					"linkReferences": {},
					"object": "6080604052348015600e575f5ffd5b506105e48061001c5f395ff3fe608060405234801561000f575f5ffd5b5060043610610029575f3560e01c8063b12601da1461002d575b5f5ffd5b6100476004803603810190610042919061033b565b61005d565b60405161005491906103ad565b60405180910390f35b5f5f8351116100a1576040517f08c379a000000000000000000000000000000000000000000000000000000000815260040161009890610420565b60405180910390fd5b5f5f90505f600185516100b4919061046b565b90505b80821361017b575f600283836100cd919061046b565b6100d791906104d8565b836100e29190610540565b905085518110610117577fffffffffffffffffffffffffffffffffffffffffffffffffffffffffffffffff93505050506101a1565b5f86828151811061012b5761012a610581565b5b6020026020010151905085810361014857819450505050506101a1565b858110156101645760018261015d9190610540565b9350610174565b600182610171919061046b565b92505b50506100b7565b7fffffffffffffffffffffffffffffffffffffffffffffffffffffffffffffffff925050505b92915050565b5f604051905090565b5f5ffd5b5f5ffd5b5f5ffd5b5f601f19601f8301169050919050565b7f4e487b71000000000000000000000000000000000000000000000000000000005f52604160045260245ffd5b610202826101bc565b810181811067ffffffffffffffff82111715610221576102206101cc565b5b80604052505050565b5f6102336101a7565b905061023f82826101f9565b919050565b5f67ffffffffffffffff82111561025e5761025d6101cc565b5b602082029050602081019050919050565b5f5ffd5b5f819050919050565b61028581610273565b811461028f575f5ffd5b50565b5f813590506102a08161027c565b92915050565b5f6102b86102b384610244565b61022a565b905080838252602082019050602084028301858111156102db576102da61026f565b5b835b8181101561030457806102f08882610292565b8452602084019350506020810190506102dd565b5050509392505050565b5f82601f830112610322576103216101b8565b5b81356103328482602086016102a6565b91505092915050565b5f5f60408385031215610351576103506101b0565b5b5f83013567ffffffffffffffff81111561036e5761036d6101b4565b5b61037a8582860161030e565b925050602061038b85828601610292565b9150509250929050565b5f819050919050565b6103a781610395565b82525050565b5f6020820190506103c05f83018461039e565b92915050565b5f82825260208201905092915050565b7f456d7074792061727261790000000000000000000000000000000000000000005f82015250565b5f61040a600b836103c6565b9150610415826103d6565b602082019050919050565b5f6020820190508181035f830152610437816103fe565b9050919050565b7f4e487b71000000000000000000000000000000000000000000000000000000005f52601160045260245ffd5b5f61047582610395565b915061048083610395565b925082820390508181125f8412168282135f8512151617156104a5576104a461043e565b5b92915050565b7f4e487b71000000000000000000000000000000000000000000000000000000005f52601260045260245ffd5b5f6104e282610395565b91506104ed83610395565b9250826104fd576104fc6104ab565b5b60015f0383147f8000000000000000000000000000000000000000000000000000000000000000831416156105355761053461043e565b5b828205905092915050565b5f61054a82610395565b915061055583610395565b92508282019050828112155f8312168382125f84121516171561057b5761057a61043e565b5b92915050565b7f4e487b71000000000000000000000000000000000000000000000000000000005f52603260045260245ffdfea26469706673582212209dad3344aca559075d35ecf8d355d541143fbecd09880a03579dd74cc3eec17764736f6c634300081e0033",
					"opcodes": "PUSH1 0x80 PUSH1 0x40 MSTORE CALLVALUE DUP1 ISZERO PUSH1 0xE JUMPI PUSH0 PUSH0 REVERT JUMPDEST POP PUSH2 0x5E4 DUP1 PUSH2 0x1C PUSH0 CODECOPY PUSH0 RETURN INVALID PUSH1 0x80 PUSH1 0x40 MSTORE CALLVALUE DUP1 ISZERO PUSH2 0xF JUMPI PUSH0 PUSH0 REVERT JUMPDEST POP PUSH1 0x4 CALLDATASIZE LT PUSH2 0x29 JUMPI PUSH0 CALLDATALOAD PUSH1 0xE0 SHR DUP1 PUSH4 0xB12601DA EQ PUSH2 0x2D JUMPI JUMPDEST PUSH0 PUSH0 REVERT JUMPDEST PUSH2 0x47 PUSH1 0x4 DUP1 CALLDATASIZE SUB DUP2 ADD SWAP1 PUSH2 0x42 SWAP2 SWAP1 PUSH2 0x33B JUMP JUMPDEST PUSH2 0x5D JUMP JUMPDEST PUSH1 0x40 MLOAD PUSH2 0x54 SWAP2 SWAP1 PUSH2 0x3AD JUMP JUMPDEST PUSH1 0x40 MLOAD DUP1 SWAP2 SUB SWAP1 RETURN JUMPDEST PUSH0 PUSH0 DUP4 MLOAD GT PUSH2 0xA1 JUMPI PUSH1 0x40 MLOAD PUSH32 0x8C379A000000000000000000000000000000000000000000000000000000000 DUP2 MSTORE PUSH1 0x4 ADD PUSH2 0x98 SWAP1 PUSH2 0x420 JUMP JUMPDEST PUSH1 0x40 MLOAD DUP1 SWAP2 SUB SWAP1 REVERT JUMPDEST PUSH0 PUSH0 SWAP1 POP PUSH0 PUSH1 0x1 DUP6 MLOAD PUSH2 0xB4 SWAP2 SWAP1 PUSH2 0x46B JUMP JUMPDEST SWAP1 POP JUMPDEST DUP1 DUP3 SGT PUSH2 0x17B JUMPI PUSH0 PUSH1 0x2 DUP4 DUP4 PUSH2 0xCD SWAP2 SWAP1 PUSH2 0x46B JUMP JUMPDEST PUSH2 0xD7 SWAP2 SWAP1 PUSH2 0x4D8 JUMP JUMPDEST DUP4 PUSH2 0xE2 SWAP2 SWAP1 PUSH2 0x540 JUMP JUMPDEST SWAP1 POP DUP6 MLOAD DUP2 LT PUSH2 0x117 JUMPI PUSH32 0xFFFFFFFFFFFFFFFFFFFFFFFFFFFFFFFFFFFFFFFFFFFFFFFFFFFFFFFFFFFFFFFF SWAP4 POP POP POP POP PUSH2 0x1A1 JUMP JUMPDEST PUSH0 DUP7 DUP3 DUP2 MLOAD DUP2 LT PUSH2 0x12B JUMPI PUSH2 0x12A PUSH2 0x581 JUMP JUMPDEST JUMPDEST PUSH1 0x20 MUL PUSH1 0x20 ADD ADD MLOAD SWAP1 POP DUP6 DUP2 SUB PUSH2 0x148 JUMPI DUP2 SWAP5 POP POP POP POP POP PUSH2 0x1A1 JUMP JUMPDEST DUP6 DUP2 LT ISZERO PUSH2 0x164 JUMPI PUSH1 0x1 DUP3 PUSH2 0x15D SWAP2 SWAP1 PUSH2 0x540 JUMP JUMPDEST SWAP4 POP PUSH2 0x174 JUMP JUMPDEST PUSH1 0x1 DUP3 PUSH2 0x171 SWAP2 SWAP1 PUSH2 0x46B JUMP JUMPDEST SWAP3 POP JUMPDEST POP POP PUSH2 0xB7 JUMP JUMPDEST PUSH32 0xFFFFFFFFFFFFFFFFFFFFFFFFFFFFFFFFFFFFFFFFFFFFFFFFFFFFFFFFFFFFFFFF SWAP3 POP POP POP JUMPDEST SWAP3 SWAP2 POP POP JUMP JUMPDEST PUSH0 PUSH1 0x40 MLOAD SWAP1 POP SWAP1 JUMP JUMPDEST PUSH0 PUSH0 REVERT JUMPDEST PUSH0 PUSH0 REVERT JUMPDEST PUSH0 PUSH0 REVERT JUMPDEST PUSH0 PUSH1 0x1F NOT PUSH1 0x1F DUP4 ADD AND SWAP1 POP SWAP2 SWAP1 POP JUMP JUMPDEST PUSH32 0x4E487B7100000000000000000000000000000000000000000000000000000000 PUSH0 MSTORE PUSH1 0x41 PUSH1 0x4 MSTORE PUSH1 0x24 PUSH0 REVERT JUMPDEST PUSH2 0x202 DUP3 PUSH2 0x1BC JUMP JUMPDEST DUP2 ADD DUP2 DUP2 LT PUSH8 0xFFFFFFFFFFFFFFFF DUP3 GT OR ISZERO PUSH2 0x221 JUMPI PUSH2 0x220 PUSH2 0x1CC JUMP JUMPDEST JUMPDEST DUP1 PUSH1 0x40 MSTORE POP POP POP JUMP JUMPDEST PUSH0 PUSH2 0x233 PUSH2 0x1A7 JUMP JUMPDEST SWAP1 POP PUSH2 0x23F DUP3 DUP3 PUSH2 0x1F9 JUMP JUMPDEST SWAP2 SWAP1 POP JUMP JUMPDEST PUSH0 PUSH8 0xFFFFFFFFFFFFFFFF DUP3 GT ISZERO PUSH2 0x25E JUMPI PUSH2 0x25D PUSH2 0x1CC JUMP JUMPDEST JUMPDEST PUSH1 0x20 DUP3 MUL SWAP1 POP PUSH1 0x20 DUP2 ADD SWAP1 POP SWAP2 SWAP1 POP JUMP JUMPDEST PUSH0 PUSH0 REVERT JUMPDEST PUSH0 DUP2 SWAP1 POP SWAP2 SWAP1 POP JUMP JUMPDEST PUSH2 0x285 DUP2 PUSH2 0x273 JUMP JUMPDEST DUP2 EQ PUSH2 0x28F JUMPI PUSH0 PUSH0 REVERT JUMPDEST POP JUMP JUMPDEST PUSH0 DUP2 CALLDATALOAD SWAP1 POP PUSH2 0x2A0 DUP2 PUSH2 0x27C JUMP JUMPDEST SWAP3 SWAP2 POP POP JUMP JUMPDEST PUSH0 PUSH2 0x2B8 PUSH2 0x2B3 DUP5 PUSH2 0x244 JUMP JUMPDEST PUSH2 0x22A JUMP JUMPDEST SWAP1 POP DUP1 DUP4 DUP3 MSTORE PUSH1 0x20 DUP3 ADD SWAP1 POP PUSH1 0x20 DUP5 MUL DUP4 ADD DUP6 DUP2 GT ISZERO PUSH2 0x2DB JUMPI PUSH2 0x2DA PUSH2 0x26F JUMP JUMPDEST JUMPDEST DUP4 JUMPDEST DUP2 DUP2 LT ISZERO PUSH2 0x304 JUMPI DUP1 PUSH2 0x2F0 DUP9 DUP3 PUSH2 0x292 JUMP JUMPDEST DUP5 MSTORE PUSH1 0x20 DUP5 ADD SWAP4 POP POP PUSH1 0x20 DUP2 ADD SWAP1 POP PUSH2 0x2DD JUMP JUMPDEST POP POP POP SWAP4 SWAP3 POP POP POP JUMP JUMPDEST PUSH0 DUP3 PUSH1 0x1F DUP4 ADD SLT PUSH2 0x322 JUMPI PUSH2 0x321 PUSH2 0x1B8 JUMP JUMPDEST JUMPDEST DUP2 CALLDATALOAD PUSH2 0x332 DUP5 DUP3 PUSH1 0x20 DUP7 ADD PUSH2 0x2A6 JUMP JUMPDEST SWAP2 POP POP SWAP3 SWAP2 POP POP JUMP JUMPDEST PUSH0 PUSH0 PUSH1 0x40 DUP4 DUP6 SUB SLT ISZERO PUSH2 0x351 JUMPI PUSH2 0x350 PUSH2 0x1B0 JUMP JUMPDEST JUMPDEST PUSH0 DUP4 ADD CALLDATALOAD PUSH8 0xFFFFFFFFFFFFFFFF DUP2 GT ISZERO PUSH2 0x36E JUMPI PUSH2 0x36D PUSH2 0x1B4 JUMP JUMPDEST JUMPDEST PUSH2 0x37A DUP6 DUP3 DUP7 ADD PUSH2 0x30E JUMP JUMPDEST SWAP3 POP POP PUSH1 0x20 PUSH2 0x38B DUP6 DUP3 DUP7 ADD PUSH2 0x292 JUMP JUMPDEST SWAP2 POP POP SWAP3 POP SWAP3 SWAP1 POP JUMP JUMPDEST PUSH0 DUP2 SWAP1 POP SWAP2 SWAP1 POP JUMP JUMPDEST PUSH2 0x3A7 DUP2 PUSH2 0x395 JUMP JUMPDEST DUP3 MSTORE POP POP JUMP JUMPDEST PUSH0 PUSH1 0x20 DUP3 ADD SWAP1 POP PUSH2 0x3C0 PUSH0 DUP4 ADD DUP5 PUSH2 0x39E JUMP JUMPDEST SWAP3 SWAP2 POP POP JUMP JUMPDEST PUSH0 DUP3 DUP3 MSTORE PUSH1 0x20 DUP3 ADD SWAP1 POP SWAP3 SWAP2 POP POP JUMP JUMPDEST PUSH32 0x456D707479206172726179000000000000000000000000000000000000000000 PUSH0 DUP3 ADD MSTORE POP JUMP JUMPDEST PUSH0 PUSH2 0x40A PUSH1 0xB DUP4 PUSH2 0x3C6 JUMP JUMPDEST SWAP2 POP PUSH2 0x415 DUP3 PUSH2 0x3D6 JUMP JUMPDEST PUSH1 0x20 DUP3 ADD SWAP1 POP SWAP2 SWAP1 POP JUMP JUMPDEST PUSH0 PUSH1 0x20 DUP3 ADD SWAP1 POP DUP2 DUP2 SUB PUSH0 DUP4 ADD MSTORE PUSH2 0x437 DUP2 PUSH2 0x3FE JUMP JUMPDEST SWAP1 POP SWAP2 SWAP1 POP JUMP JUMPDEST PUSH32 0x4E487B7100000000000000000000000000000000000000000000000000000000 PUSH0 MSTORE PUSH1 0x11 PUSH1 0x4 MSTORE PUSH1 0x24 PUSH0 REVERT JUMPDEST PUSH0 PUSH2 0x475 DUP3 PUSH2 0x395 JUMP JUMPDEST SWAP2 POP PUSH2 0x480 DUP4 PUSH2 0x395 JUMP JUMPDEST SWAP3 POP DUP3 DUP3 SUB SWAP1 POP DUP2 DUP2 SLT PUSH0 DUP5 SLT AND DUP3 DUP3 SGT PUSH0 DUP6 SLT ISZERO AND OR ISZERO PUSH2 0x4A5 JUMPI PUSH2 0x4A4 PUSH2 0x43E JUMP JUMPDEST JUMPDEST SWAP3 SWAP2 POP POP JUMP JUMPDEST PUSH32 0x4E487B7100000000000000000000000000000000000000000000000000000000 PUSH0 MSTORE PUSH1 0x12 PUSH1 0x4 MSTORE PUSH1 0x24 PUSH0 REVERT JUMPDEST PUSH0 PUSH2 0x4E2 DUP3 PUSH2 0x395 JUMP JUMPDEST SWAP2 POP PUSH2 0x4ED DUP4 PUSH2 0x395 JUMP JUMPDEST SWAP3 POP DUP3 PUSH2 0x4FD JUMPI PUSH2 0x4FC PUSH2 0x4AB JUMP JUMPDEST JUMPDEST PUSH1 0x1 PUSH0 SUB DUP4 EQ PUSH32 0x8000000000000000000000000000000000000000000000000000000000000000 DUP4 EQ AND ISZERO PUSH2 0x535 JUMPI PUSH2 0x534 PUSH2 0x43E JUMP JUMPDEST JUMPDEST DUP3 DUP3 SDIV SWAP1 POP SWAP3 SWAP2 POP POP JUMP JUMPDEST PUSH0 PUSH2 0x54A DUP3 PUSH2 0x395 JUMP JUMPDEST SWAP2 POP PUSH2 0x555 DUP4 PUSH2 0x395 JUMP JUMPDEST SWAP3 POP DUP3 DUP3 ADD SWAP1 POP DUP3 DUP2 SLT ISZERO PUSH0 DUP4 SLT AND DUP4 DUP3 SLT PUSH0 DUP5 SLT ISZERO AND OR ISZERO PUSH2 0x57B JUMPI PUSH2 0x57A PUSH2 0x43E JUMP JUMPDEST JUMPDEST SWAP3 SWAP2 POP POP JUMP JUMPDEST PUSH32 0x4E487B7100000000000000000000000000000000000000000000000000000000 PUSH0 MSTORE PUSH1 0x32 PUSH1 0x4 MSTORE PUSH1 0x24 PUSH0 REVERT INVALID LOG2 PUSH5 0x6970667358 0x22 SLT KECCAK256 SWAP14 0xAD CALLER PREVRANDAO 0xAC 0xA5 MSIZE SMOD TSTORE CALLDATALOAD EOFCREATE 0xF8 0xD3 SSTORE 0xD5 COINBASE EQ EXTCODEHASH 0xBE 0xCD MULMOD DUP9 EXP SUB JUMPI SWAP14 0xD7 0x4C 0xC3 RETURNCONTRACT 0xC1 PUSH24 0x64736F6C634300081E003300000000000000000000000000 "
				},
				"gasEstimates": {
					"creation": {
						"codeDepositCost": "301600",
						"executionCost": "341",
						"totalCost": "301941"
					},
					"external": {
						"binarySearch(uint256[],uint256)": "infinite"
					}
				},
				"methodIdentifiers": {
					"binarySearch(uint256[],uint256)": "b12601da"
				}
			},
			"storageLayout": {
				"storage": [],
				"types": null
			},
			"userdoc": {
				"kind": "user",
				"methods": {},
				"version": 1
			}
		}
	}
}