{
	"MergeSortedArrays.sol": {
		"MergeSortedArrays": {
			"abi": [
				{
					"inputs": [
						{
							"internalType": "uint256[]",
							"name": "nums1",
							"type": "uint256[]"
						},
						{
							"internalType": "uint256",
							"name": "m",
							"type": "uint256"
						},
						{
							"internalType": "uint256[]",
							"name": "nums2",
							"type": "uint256[]"
						},
						{
							"internalType": "uint256",
							"name": "n",
							"type": "uint256"
						}
					],
					"name": "merge",
					"outputs": [],
					"stateMutability": "nonpayable",
					"type": "function"
				}
			],
			"devdoc": {
				"kind": "dev",
				"methods": {},
				"version": 1
			},
			"evm": {
				"assembly": "    /* \"MergeSortedArrays.sol\":129:926  contract MergeSortedArrays {... */\n  mstore(0x40, 0x80)\n  callvalue\n  dup1\n  iszero\n  tag_1\n  jumpi\n  revert(0x00, 0x00)\ntag_1:\n  pop\n  dataSize(sub_0)\n  dup1\n  dataOffset(sub_0)\n  0x00\n  codecopy\n  0x00\n  return\nstop\n\nsub_0: assembly {\n        /* \"MergeSortedArrays.sol\":129:926  contract MergeSortedArrays {... */\n      mstore(0x40, 0x80)\n      callvalue\n      dup1\n      iszero\n      tag_1\n      jumpi\n      revert(0x00, 0x00)\n    tag_1:\n      pop\n      jumpi(tag_2, lt(calldatasize, 0x04))\n      shr(0xe0, calldataload(0x00))\n      dup1\n      0xd0c42f1a\n      eq\n      tag_3\n      jumpi\n    tag_2:\n      revert(0x00, 0x00)\n        /* \"MergeSortedArrays.sol\":163:923  function merge(uint[] memory nums1, uint m, uint[] memory nums2, uint n) public {... */\n    tag_3:\n      tag_4\n      0x04\n      dup1\n      calldatasize\n      sub\n      dup2\n      add\n      swap1\n      tag_5\n      swap2\n      swap1\n      tag_6\n      jump\t// in\n    tag_5:\n      tag_7\n      jump\t// in\n    tag_4:\n      stop\n    tag_7:\n        /* \"MergeSortedArrays.sol\":303:309  uint i */\n      0x00\n        /* \"MergeSortedArrays.sol\":316:317  1 */\n      0x01\n        /* \"MergeSortedArrays.sol\":312:313  m */\n      dup5\n        /* \"MergeSortedArrays.sol\":312:317  m - 1 */\n      tag_9\n      swap2\n      swap1\n      tag_10\n      jump\t// in\n    tag_9:\n        /* \"MergeSortedArrays.sol\":303:317  uint i = m - 1 */\n      swap1\n      pop\n        /* \"MergeSortedArrays.sol\":356:362  uint j */\n      0x00\n        /* \"MergeSortedArrays.sol\":369:370  1 */\n      0x01\n        /* \"MergeSortedArrays.sol\":365:366  n */\n      dup4\n        /* \"MergeSortedArrays.sol\":365:370  n - 1 */\n      tag_11\n      swap2\n      swap1\n      tag_10\n      jump\t// in\n    tag_11:\n        /* \"MergeSortedArrays.sol\":356:370  uint j = n - 1 */\n      swap1\n      pop\n        /* \"MergeSortedArrays.sol\":397:403  uint k */\n      0x00\n        /* \"MergeSortedArrays.sol\":414:415  1 */\n      0x01\n        /* \"MergeSortedArrays.sol\":410:411  n */\n      dup5\n        /* \"MergeSortedArrays.sol\":406:407  m */\n      dup8\n        /* \"MergeSortedArrays.sol\":406:411  m + n */\n      tag_12\n      swap2\n      swap1\n      tag_13\n      jump\t// in\n    tag_12:\n        /* \"MergeSortedArrays.sol\":406:415  m + n - 1 */\n      tag_14\n      swap2\n      swap1\n      tag_10\n      jump\t// in\n    tag_14:\n        /* \"MergeSortedArrays.sol\":397:415  uint k = m + n - 1 */\n      swap1\n      pop\n        /* \"MergeSortedArrays.sol\":487:739  while (i >= 0 && j >= 0) {... */\n    tag_15:\n        /* \"MergeSortedArrays.sol\":499:500  0 */\n      0x00\n        /* \"MergeSortedArrays.sol\":494:495  i */\n      dup4\n        /* \"MergeSortedArrays.sol\":494:500  i >= 0 */\n      lt\n      iszero\n        /* \"MergeSortedArrays.sol\":494:510  i >= 0 && j >= 0 */\n      dup1\n      iszero\n      tag_17\n      jumpi\n      pop\n        /* \"MergeSortedArrays.sol\":509:510  0 */\n      0x00\n        /* \"MergeSortedArrays.sol\":504:505  j */\n      dup3\n        /* \"MergeSortedArrays.sol\":504:510  j >= 0 */\n      lt\n      iszero\n        /* \"MergeSortedArrays.sol\":494:510  i >= 0 && j >= 0 */\n    tag_17:\n        /* \"MergeSortedArrays.sol\":487:739  while (i >= 0 && j >= 0) {... */\n      iszero\n      tag_16\n      jumpi\n        /* \"MergeSortedArrays.sol\":542:547  nums2 */\n      dup5\n        /* \"MergeSortedArrays.sol\":548:549  j */\n      dup3\n        /* \"MergeSortedArrays.sol\":542:550  nums2[j] */\n      dup2\n      mload\n      dup2\n      lt\n      tag_18\n      jumpi\n      tag_19\n      tag_20\n      jump\t// in\n    tag_19:\n    tag_18:\n      0x20\n      mul\n      0x20\n      add\n      add\n      mload\n        /* \"MergeSortedArrays.sol\":531:536  nums1 */\n      dup8\n        /* \"MergeSortedArrays.sol\":537:538  i */\n      dup5\n        /* \"MergeSortedArrays.sol\":531:539  nums1[i] */\n      dup2\n      mload\n      dup2\n      lt\n      tag_21\n      jumpi\n      tag_22\n      tag_20\n      jump\t// in\n    tag_22:\n    tag_21:\n      0x20\n      mul\n      0x20\n      add\n      add\n      mload\n        /* \"MergeSortedArrays.sol\":531:550  nums1[i] > nums2[j] */\n      gt\n        /* \"MergeSortedArrays.sol\":527:710  if (nums1[i] > nums2[j]) {... */\n      iszero\n      tag_23\n      jumpi\n        /* \"MergeSortedArrays.sol\":582:587  nums1 */\n      dup7\n        /* \"MergeSortedArrays.sol\":588:589  i */\n      dup4\n        /* \"MergeSortedArrays.sol\":582:590  nums1[i] */\n      dup2\n      mload\n      dup2\n      lt\n      tag_24\n      jumpi\n      tag_25\n      tag_20\n      jump\t// in\n    tag_25:\n    tag_24:\n      0x20\n      mul\n      0x20\n      add\n      add\n      mload\n        /* \"MergeSortedArrays.sol\":571:576  nums1 */\n      dup8\n        /* \"MergeSortedArrays.sol\":577:578  k */\n      dup3\n        /* \"MergeSortedArrays.sol\":571:579  nums1[k] */\n      dup2\n      mload\n      dup2\n      lt\n      tag_26\n      jumpi\n      tag_27\n      tag_20\n      jump\t// in\n    tag_27:\n    tag_26:\n      0x20\n      mul\n      0x20\n      add\n      add\n        /* \"MergeSortedArrays.sol\":571:590  nums1[k] = nums1[i] */\n      dup2\n      dup2\n      mstore\n      pop\n      pop\n        /* \"MergeSortedArrays.sol\":609:612  i-- */\n      dup3\n      dup1\n      tag_28\n      swap1\n      tag_29\n      jump\t// in\n    tag_28:\n      swap4\n      pop\n      pop\n        /* \"MergeSortedArrays.sol\":527:710  if (nums1[i] > nums2[j]) {... */\n      jump(tag_30)\n    tag_23:\n        /* \"MergeSortedArrays.sol\":664:669  nums2 */\n      dup5\n        /* \"MergeSortedArrays.sol\":670:671  j */\n      dup3\n        /* \"MergeSortedArrays.sol\":664:672  nums2[j] */\n      dup2\n      mload\n      dup2\n      lt\n      tag_31\n      jumpi\n      tag_32\n      tag_20\n      jump\t// in\n    tag_32:\n    tag_31:\n      0x20\n      mul\n      0x20\n      add\n      add\n      mload\n        /* \"MergeSortedArrays.sol\":653:658  nums1 */\n      dup8\n        /* \"MergeSortedArrays.sol\":659:660  k */\n      dup3\n        /* \"MergeSortedArrays.sol\":653:661  nums1[k] */\n      dup2\n      mload\n      dup2\n      lt\n      tag_33\n      jumpi\n      tag_34\n      tag_20\n      jump\t// in\n    tag_34:\n    tag_33:\n      0x20\n      mul\n      0x20\n      add\n      add\n        /* \"MergeSortedArrays.sol\":653:672  nums1[k] = nums2[j] */\n      dup2\n      dup2\n      mstore\n      pop\n      pop\n        /* \"MergeSortedArrays.sol\":691:694  j-- */\n      dup2\n      dup1\n      tag_35\n      swap1\n      tag_29\n      jump\t// in\n    tag_35:\n      swap3\n      pop\n      pop\n        /* \"MergeSortedArrays.sol\":527:710  if (nums1[i] > nums2[j]) {... */\n    tag_30:\n        /* \"MergeSortedArrays.sol\":724:727  k-- */\n      dup1\n      dup1\n      tag_36\n      swap1\n      tag_29\n      jump\t// in\n    tag_36:\n      swap2\n      pop\n      pop\n        /* \"MergeSortedArrays.sol\":487:739  while (i >= 0 && j >= 0) {... */\n      jump(tag_15)\n    tag_16:\n        /* \"MergeSortedArrays.sol\":819:916  while (j >= 0) {... */\n    tag_37:\n        /* \"MergeSortedArrays.sol\":831:832  0 */\n      0x00\n        /* \"MergeSortedArrays.sol\":826:827  j */\n      dup3\n        /* \"MergeSortedArrays.sol\":826:832  j >= 0 */\n      lt\n        /* \"MergeSortedArrays.sol\":819:916  while (j >= 0) {... */\n      tag_38\n      jumpi\n        /* \"MergeSortedArrays.sol\":860:865  nums2 */\n      dup5\n        /* \"MergeSortedArrays.sol\":866:867  j */\n      dup3\n        /* \"MergeSortedArrays.sol\":860:868  nums2[j] */\n      dup2\n      mload\n      dup2\n      lt\n      tag_39\n      jumpi\n      tag_40\n      tag_20\n      jump\t// in\n    tag_40:\n    tag_39:\n      0x20\n      mul\n      0x20\n      add\n      add\n      mload\n        /* \"MergeSortedArrays.sol\":849:854  nums1 */\n      dup8\n        /* \"MergeSortedArrays.sol\":855:856  k */\n      dup3\n        /* \"MergeSortedArrays.sol\":849:857  nums1[k] */\n      dup2\n      mload\n      dup2\n      lt\n      tag_41\n      jumpi\n      tag_42\n      tag_20\n      jump\t// in\n    tag_42:\n    tag_41:\n      0x20\n      mul\n      0x20\n      add\n      add\n        /* \"MergeSortedArrays.sol\":849:868  nums1[k] = nums2[j] */\n      dup2\n      dup2\n      mstore\n      pop\n      pop\n        /* \"MergeSortedArrays.sol\":883:886  j-- */\n      dup2\n      dup1\n      tag_43\n      swap1\n      tag_29\n      jump\t// in\n    tag_43:\n      swap3\n      pop\n      pop\n        /* \"MergeSortedArrays.sol\":901:904  k-- */\n      dup1\n      dup1\n      tag_44\n      swap1\n      tag_29\n      jump\t// in\n    tag_44:\n      swap2\n      pop\n      pop\n        /* \"MergeSortedArrays.sol\":819:916  while (j >= 0) {... */\n      jump(tag_37)\n    tag_38:\n        /* \"MergeSortedArrays.sol\":243:923  {... */\n      pop\n      pop\n      pop\n        /* \"MergeSortedArrays.sol\":163:923  function merge(uint[] memory nums1, uint m, uint[] memory nums2, uint n) public {... */\n      pop\n      pop\n      pop\n      pop\n      jump\t// out\n        /* \"#utility.yul\":7:82   */\n    tag_45:\n        /* \"#utility.yul\":40:46   */\n      0x00\n        /* \"#utility.yul\":73:75   */\n      0x40\n        /* \"#utility.yul\":67:76   */\n      mload\n        /* \"#utility.yul\":57:76   */\n      swap1\n      pop\n        /* \"#utility.yul\":7:82   */\n      swap1\n      jump\t// out\n        /* \"#utility.yul\":88:205   */\n    tag_46:\n        /* \"#utility.yul\":197:198   */\n      0x00\n        /* \"#utility.yul\":194:195   */\n      0x00\n        /* \"#utility.yul\":187:199   */\n      revert\n        /* \"#utility.yul\":211:328   */\n    tag_47:\n        /* \"#utility.yul\":320:321   */\n      0x00\n        /* \"#utility.yul\":317:318   */\n      0x00\n        /* \"#utility.yul\":310:322   */\n      revert\n        /* \"#utility.yul\":334:451   */\n    tag_48:\n        /* \"#utility.yul\":443:444   */\n      0x00\n        /* \"#utility.yul\":440:441   */\n      0x00\n        /* \"#utility.yul\":433:445   */\n      revert\n        /* \"#utility.yul\":457:559   */\n    tag_49:\n        /* \"#utility.yul\":498:504   */\n      0x00\n        /* \"#utility.yul\":549:551   */\n      0x1f\n        /* \"#utility.yul\":545:552   */\n      not\n        /* \"#utility.yul\":540:542   */\n      0x1f\n        /* \"#utility.yul\":533:538   */\n      dup4\n        /* \"#utility.yul\":529:543   */\n      add\n        /* \"#utility.yul\":525:553   */\n      and\n        /* \"#utility.yul\":515:553   */\n      swap1\n      pop\n        /* \"#utility.yul\":457:559   */\n      swap2\n      swap1\n      pop\n      jump\t// out\n        /* \"#utility.yul\":565:745   */\n    tag_50:\n        /* \"#utility.yul\":613:690   */\n      0x4e487b7100000000000000000000000000000000000000000000000000000000\n        /* \"#utility.yul\":610:611   */\n      0x00\n        /* \"#utility.yul\":603:691   */\n      mstore\n        /* \"#utility.yul\":710:714   */\n      0x41\n        /* \"#utility.yul\":707:708   */\n      0x04\n        /* \"#utility.yul\":700:715   */\n      mstore\n        /* \"#utility.yul\":734:738   */\n      0x24\n        /* \"#utility.yul\":731:732   */\n      0x00\n        /* \"#utility.yul\":724:739   */\n      revert\n        /* \"#utility.yul\":751:1032   */\n    tag_51:\n        /* \"#utility.yul\":834:861   */\n      tag_69\n        /* \"#utility.yul\":856:860   */\n      dup3\n        /* \"#utility.yul\":834:861   */\n      tag_49\n      jump\t// in\n    tag_69:\n        /* \"#utility.yul\":826:832   */\n      dup2\n        /* \"#utility.yul\":822:862   */\n      add\n        /* \"#utility.yul\":964:970   */\n      dup2\n        /* \"#utility.yul\":952:962   */\n      dup2\n        /* \"#utility.yul\":949:971   */\n      lt\n        /* \"#utility.yul\":928:946   */\n      0xffffffffffffffff\n        /* \"#utility.yul\":916:926   */\n      dup3\n        /* \"#utility.yul\":913:947   */\n      gt\n        /* \"#utility.yul\":910:972   */\n      or\n        /* \"#utility.yul\":907:995   */\n      iszero\n      tag_70\n      jumpi\n        /* \"#utility.yul\":975:993   */\n      tag_71\n      tag_50\n      jump\t// in\n    tag_71:\n        /* \"#utility.yul\":907:995   */\n    tag_70:\n        /* \"#utility.yul\":1015:1025   */\n      dup1\n        /* \"#utility.yul\":1011:1013   */\n      0x40\n        /* \"#utility.yul\":1004:1026   */\n      mstore\n        /* \"#utility.yul\":794:1032   */\n      pop\n        /* \"#utility.yul\":751:1032   */\n      pop\n      pop\n      jump\t// out\n        /* \"#utility.yul\":1038:1167   */\n    tag_52:\n        /* \"#utility.yul\":1072:1078   */\n      0x00\n        /* \"#utility.yul\":1099:1119   */\n      tag_73\n      tag_45\n      jump\t// in\n    tag_73:\n        /* \"#utility.yul\":1089:1119   */\n      swap1\n      pop\n        /* \"#utility.yul\":1128:1161   */\n      tag_74\n        /* \"#utility.yul\":1156:1160   */\n      dup3\n        /* \"#utility.yul\":1148:1154   */\n      dup3\n        /* \"#utility.yul\":1128:1161   */\n      tag_51\n      jump\t// in\n    tag_74:\n        /* \"#utility.yul\":1038:1167   */\n      swap2\n      swap1\n      pop\n      jump\t// out\n        /* \"#utility.yul\":1173:1484   */\n    tag_53:\n        /* \"#utility.yul\":1250:1254   */\n      0x00\n        /* \"#utility.yul\":1340:1358   */\n      0xffffffffffffffff\n        /* \"#utility.yul\":1332:1338   */\n      dup3\n        /* \"#utility.yul\":1329:1359   */\n      gt\n        /* \"#utility.yul\":1326:1382   */\n      iszero\n      tag_76\n      jumpi\n        /* \"#utility.yul\":1362:1380   */\n      tag_77\n      tag_50\n      jump\t// in\n    tag_77:\n        /* \"#utility.yul\":1326:1382   */\n    tag_76:\n        /* \"#utility.yul\":1412:1416   */\n      0x20\n        /* \"#utility.yul\":1404:1410   */\n      dup3\n        /* \"#utility.yul\":1400:1417   */\n      mul\n        /* \"#utility.yul\":1392:1417   */\n      swap1\n      pop\n        /* \"#utility.yul\":1472:1476   */\n      0x20\n        /* \"#utility.yul\":1466:1470   */\n      dup2\n        /* \"#utility.yul\":1462:1477   */\n      add\n        /* \"#utility.yul\":1454:1477   */\n      swap1\n      pop\n        /* \"#utility.yul\":1173:1484   */\n      swap2\n      swap1\n      pop\n      jump\t// out\n        /* \"#utility.yul\":1490:1607   */\n    tag_54:\n        /* \"#utility.yul\":1599:1600   */\n      0x00\n        /* \"#utility.yul\":1596:1597   */\n      0x00\n        /* \"#utility.yul\":1589:1601   */\n      revert\n        /* \"#utility.yul\":1613:1690   */\n    tag_55:\n        /* \"#utility.yul\":1650:1657   */\n      0x00\n        /* \"#utility.yul\":1679:1684   */\n      dup2\n        /* \"#utility.yul\":1668:1684   */\n      swap1\n      pop\n        /* \"#utility.yul\":1613:1690   */\n      swap2\n      swap1\n      pop\n      jump\t// out\n        /* \"#utility.yul\":1696:1818   */\n    tag_56:\n        /* \"#utility.yul\":1769:1793   */\n      tag_81\n        /* \"#utility.yul\":1787:1792   */\n      dup2\n        /* \"#utility.yul\":1769:1793   */\n      tag_55\n      jump\t// in\n    tag_81:\n        /* \"#utility.yul\":1762:1767   */\n      dup2\n        /* \"#utility.yul\":1759:1794   */\n      eq\n        /* \"#utility.yul\":1749:1812   */\n      tag_82\n      jumpi\n        /* \"#utility.yul\":1808:1809   */\n      0x00\n        /* \"#utility.yul\":1805:1806   */\n      0x00\n        /* \"#utility.yul\":1798:1810   */\n      revert\n        /* \"#utility.yul\":1749:1812   */\n    tag_82:\n        /* \"#utility.yul\":1696:1818   */\n      pop\n      jump\t// out\n        /* \"#utility.yul\":1824:1963   */\n    tag_57:\n        /* \"#utility.yul\":1870:1875   */\n      0x00\n        /* \"#utility.yul\":1908:1914   */\n      dup2\n        /* \"#utility.yul\":1895:1915   */\n      calldataload\n        /* \"#utility.yul\":1886:1915   */\n      swap1\n      pop\n        /* \"#utility.yul\":1924:1957   */\n      tag_84\n        /* \"#utility.yul\":1951:1956   */\n      dup2\n        /* \"#utility.yul\":1924:1957   */\n      tag_56\n      jump\t// in\n    tag_84:\n        /* \"#utility.yul\":1824:1963   */\n      swap3\n      swap2\n      pop\n      pop\n      jump\t// out\n        /* \"#utility.yul\":1986:2696   */\n    tag_58:\n        /* \"#utility.yul\":2082:2087   */\n      0x00\n        /* \"#utility.yul\":2107:2188   */\n      tag_86\n        /* \"#utility.yul\":2123:2187   */\n      tag_87\n        /* \"#utility.yul\":2180:2186   */\n      dup5\n        /* \"#utility.yul\":2123:2187   */\n      tag_53\n      jump\t// in\n    tag_87:\n        /* \"#utility.yul\":2107:2188   */\n      tag_52\n      jump\t// in\n    tag_86:\n        /* \"#utility.yul\":2098:2188   */\n      swap1\n      pop\n        /* \"#utility.yul\":2208:2213   */\n      dup1\n        /* \"#utility.yul\":2237:2243   */\n      dup4\n        /* \"#utility.yul\":2230:2235   */\n      dup3\n        /* \"#utility.yul\":2223:2244   */\n      mstore\n        /* \"#utility.yul\":2271:2275   */\n      0x20\n        /* \"#utility.yul\":2264:2269   */\n      dup3\n        /* \"#utility.yul\":2260:2276   */\n      add\n        /* \"#utility.yul\":2253:2276   */\n      swap1\n      pop\n        /* \"#utility.yul\":2324:2328   */\n      0x20\n        /* \"#utility.yul\":2316:2322   */\n      dup5\n        /* \"#utility.yul\":2312:2329   */\n      mul\n        /* \"#utility.yul\":2304:2310   */\n      dup4\n        /* \"#utility.yul\":2300:2330   */\n      add\n        /* \"#utility.yul\":2353:2356   */\n      dup6\n        /* \"#utility.yul\":2345:2351   */\n      dup2\n        /* \"#utility.yul\":2342:2357   */\n      gt\n        /* \"#utility.yul\":2339:2461   */\n      iszero\n      tag_88\n      jumpi\n        /* \"#utility.yul\":2372:2451   */\n      tag_89\n      tag_54\n      jump\t// in\n    tag_89:\n        /* \"#utility.yul\":2339:2461   */\n    tag_88:\n        /* \"#utility.yul\":2487:2493   */\n      dup4\n        /* \"#utility.yul\":2470:2690   */\n    tag_90:\n        /* \"#utility.yul\":2504:2510   */\n      dup2\n        /* \"#utility.yul\":2499:2502   */\n      dup2\n        /* \"#utility.yul\":2496:2511   */\n      lt\n        /* \"#utility.yul\":2470:2690   */\n      iszero\n      tag_92\n      jumpi\n        /* \"#utility.yul\":2579:2582   */\n      dup1\n        /* \"#utility.yul\":2608:2645   */\n      tag_93\n        /* \"#utility.yul\":2641:2644   */\n      dup9\n        /* \"#utility.yul\":2629:2639   */\n      dup3\n        /* \"#utility.yul\":2608:2645   */\n      tag_57\n      jump\t// in\n    tag_93:\n        /* \"#utility.yul\":2603:2606   */\n      dup5\n        /* \"#utility.yul\":2596:2646   */\n      mstore\n        /* \"#utility.yul\":2675:2679   */\n      0x20\n        /* \"#utility.yul\":2670:2673   */\n      dup5\n        /* \"#utility.yul\":2666:2680   */\n      add\n        /* \"#utility.yul\":2659:2680   */\n      swap4\n      pop\n        /* \"#utility.yul\":2546:2690   */\n      pop\n        /* \"#utility.yul\":2530:2534   */\n      0x20\n        /* \"#utility.yul\":2525:2528   */\n      dup2\n        /* \"#utility.yul\":2521:2535   */\n      add\n        /* \"#utility.yul\":2514:2535   */\n      swap1\n      pop\n        /* \"#utility.yul\":2470:2690   */\n      jump(tag_90)\n    tag_92:\n        /* \"#utility.yul\":2474:2495   */\n      pop\n        /* \"#utility.yul\":2088:2696   */\n      pop\n      pop\n        /* \"#utility.yul\":1986:2696   */\n      swap4\n      swap3\n      pop\n      pop\n      pop\n      jump\t// out\n        /* \"#utility.yul\":2719:3089   */\n    tag_59:\n        /* \"#utility.yul\":2790:2795   */\n      0x00\n        /* \"#utility.yul\":2839:2842   */\n      dup3\n        /* \"#utility.yul\":2832:2836   */\n      0x1f\n        /* \"#utility.yul\":2824:2830   */\n      dup4\n        /* \"#utility.yul\":2820:2837   */\n      add\n        /* \"#utility.yul\":2816:2843   */\n      slt\n        /* \"#utility.yul\":2806:2928   */\n      tag_95\n      jumpi\n        /* \"#utility.yul\":2847:2926   */\n      tag_96\n      tag_48\n      jump\t// in\n    tag_96:\n        /* \"#utility.yul\":2806:2928   */\n    tag_95:\n        /* \"#utility.yul\":2964:2970   */\n      dup2\n        /* \"#utility.yul\":2951:2971   */\n      calldataload\n        /* \"#utility.yul\":2989:3083   */\n      tag_97\n        /* \"#utility.yul\":3079:3082   */\n      dup5\n        /* \"#utility.yul\":3071:3077   */\n      dup3\n        /* \"#utility.yul\":3064:3068   */\n      0x20\n        /* \"#utility.yul\":3056:3062   */\n      dup7\n        /* \"#utility.yul\":3052:3069   */\n      add\n        /* \"#utility.yul\":2989:3083   */\n      tag_58\n      jump\t// in\n    tag_97:\n        /* \"#utility.yul\":2980:3083   */\n      swap2\n      pop\n        /* \"#utility.yul\":2796:3089   */\n      pop\n        /* \"#utility.yul\":2719:3089   */\n      swap3\n      swap2\n      pop\n      pop\n      jump\t// out\n        /* \"#utility.yul\":3095:4280   */\n    tag_6:\n        /* \"#utility.yul\":3231:3237   */\n      0x00\n        /* \"#utility.yul\":3239:3245   */\n      0x00\n        /* \"#utility.yul\":3247:3253   */\n      0x00\n        /* \"#utility.yul\":3255:3261   */\n      0x00\n        /* \"#utility.yul\":3304:3307   */\n      0x80\n        /* \"#utility.yul\":3292:3301   */\n      dup6\n        /* \"#utility.yul\":3283:3290   */\n      dup8\n        /* \"#utility.yul\":3279:3302   */\n      sub\n        /* \"#utility.yul\":3275:3308   */\n      slt\n        /* \"#utility.yul\":3272:3392   */\n      iszero\n      tag_99\n      jumpi\n        /* \"#utility.yul\":3311:3390   */\n      tag_100\n      tag_46\n      jump\t// in\n    tag_100:\n        /* \"#utility.yul\":3272:3392   */\n    tag_99:\n        /* \"#utility.yul\":3459:3460   */\n      0x00\n        /* \"#utility.yul\":3448:3457   */\n      dup6\n        /* \"#utility.yul\":3444:3461   */\n      add\n        /* \"#utility.yul\":3431:3462   */\n      calldataload\n        /* \"#utility.yul\":3489:3507   */\n      0xffffffffffffffff\n        /* \"#utility.yul\":3481:3487   */\n      dup2\n        /* \"#utility.yul\":3478:3508   */\n      gt\n        /* \"#utility.yul\":3475:3592   */\n      iszero\n      tag_101\n      jumpi\n        /* \"#utility.yul\":3511:3590   */\n      tag_102\n      tag_47\n      jump\t// in\n    tag_102:\n        /* \"#utility.yul\":3475:3592   */\n    tag_101:\n        /* \"#utility.yul\":3616:3694   */\n      tag_103\n        /* \"#utility.yul\":3686:3693   */\n      dup8\n        /* \"#utility.yul\":3677:3683   */\n      dup3\n        /* \"#utility.yul\":3666:3675   */\n      dup9\n        /* \"#utility.yul\":3662:3684   */\n      add\n        /* \"#utility.yul\":3616:3694   */\n      tag_59\n      jump\t// in\n    tag_103:\n        /* \"#utility.yul\":3606:3694   */\n      swap5\n      pop\n        /* \"#utility.yul\":3402:3704   */\n      pop\n        /* \"#utility.yul\":3743:3745   */\n      0x20\n        /* \"#utility.yul\":3769:3822   */\n      tag_104\n        /* \"#utility.yul\":3814:3821   */\n      dup8\n        /* \"#utility.yul\":3805:3811   */\n      dup3\n        /* \"#utility.yul\":3794:3803   */\n      dup9\n        /* \"#utility.yul\":3790:3812   */\n      add\n        /* \"#utility.yul\":3769:3822   */\n      tag_57\n      jump\t// in\n    tag_104:\n        /* \"#utility.yul\":3759:3822   */\n      swap4\n      pop\n        /* \"#utility.yul\":3714:3832   */\n      pop\n        /* \"#utility.yul\":3899:3901   */\n      0x40\n        /* \"#utility.yul\":3888:3897   */\n      dup6\n        /* \"#utility.yul\":3884:3902   */\n      add\n        /* \"#utility.yul\":3871:3903   */\n      calldataload\n        /* \"#utility.yul\":3930:3948   */\n      0xffffffffffffffff\n        /* \"#utility.yul\":3922:3928   */\n      dup2\n        /* \"#utility.yul\":3919:3949   */\n      gt\n        /* \"#utility.yul\":3916:4033   */\n      iszero\n      tag_105\n      jumpi\n        /* \"#utility.yul\":3952:4031   */\n      tag_106\n      tag_47\n      jump\t// in\n    tag_106:\n        /* \"#utility.yul\":3916:4033   */\n    tag_105:\n        /* \"#utility.yul\":4057:4135   */\n      tag_107\n        /* \"#utility.yul\":4127:4134   */\n      dup8\n        /* \"#utility.yul\":4118:4124   */\n      dup3\n        /* \"#utility.yul\":4107:4116   */\n      dup9\n        /* \"#utility.yul\":4103:4125   */\n      add\n        /* \"#utility.yul\":4057:4135   */\n      tag_59\n      jump\t// in\n    tag_107:\n        /* \"#utility.yul\":4047:4135   */\n      swap3\n      pop\n        /* \"#utility.yul\":3842:4145   */\n      pop\n        /* \"#utility.yul\":4184:4186   */\n      0x60\n        /* \"#utility.yul\":4210:4263   */\n      tag_108\n        /* \"#utility.yul\":4255:4262   */\n      dup8\n        /* \"#utility.yul\":4246:4252   */\n      dup3\n        /* \"#utility.yul\":4235:4244   */\n      dup9\n        /* \"#utility.yul\":4231:4253   */\n      add\n        /* \"#utility.yul\":4210:4263   */\n      tag_57\n      jump\t// in\n    tag_108:\n        /* \"#utility.yul\":4200:4263   */\n      swap2\n      pop\n        /* \"#utility.yul\":4155:4273   */\n      pop\n        /* \"#utility.yul\":3095:4280   */\n      swap3\n      swap6\n      swap2\n      swap5\n      pop\n      swap3\n      pop\n      jump\t// out\n        /* \"#utility.yul\":4286:4466   */\n    tag_60:\n        /* \"#utility.yul\":4334:4411   */\n      0x4e487b7100000000000000000000000000000000000000000000000000000000\n        /* \"#utility.yul\":4331:4332   */\n      0x00\n        /* \"#utility.yul\":4324:4412   */\n      mstore\n        /* \"#utility.yul\":4431:4435   */\n      0x11\n        /* \"#utility.yul\":4428:4429   */\n      0x04\n        /* \"#utility.yul\":4421:4436   */\n      mstore\n        /* \"#utility.yul\":4455:4459   */\n      0x24\n        /* \"#utility.yul\":4452:4453   */\n      0x00\n        /* \"#utility.yul\":4445:4460   */\n      revert\n        /* \"#utility.yul\":4472:4666   */\n    tag_10:\n        /* \"#utility.yul\":4512:4516   */\n      0x00\n        /* \"#utility.yul\":4532:4552   */\n      tag_111\n        /* \"#utility.yul\":4550:4551   */\n      dup3\n        /* \"#utility.yul\":4532:4552   */\n      tag_55\n      jump\t// in\n    tag_111:\n        /* \"#utility.yul\":4527:4552   */\n      swap2\n      pop\n        /* \"#utility.yul\":4566:4586   */\n      tag_112\n        /* \"#utility.yul\":4584:4585   */\n      dup4\n        /* \"#utility.yul\":4566:4586   */\n      tag_55\n      jump\t// in\n    tag_112:\n        /* \"#utility.yul\":4561:4586   */\n      swap3\n      pop\n        /* \"#utility.yul\":4610:4611   */\n      dup3\n        /* \"#utility.yul\":4607:4608   */\n      dup3\n        /* \"#utility.yul\":4603:4612   */\n      sub\n        /* \"#utility.yul\":4595:4612   */\n      swap1\n      pop\n        /* \"#utility.yul\":4634:4635   */\n      dup2\n        /* \"#utility.yul\":4628:4632   */\n      dup2\n        /* \"#utility.yul\":4625:4636   */\n      gt\n        /* \"#utility.yul\":4622:4659   */\n      iszero\n      tag_113\n      jumpi\n        /* \"#utility.yul\":4639:4657   */\n      tag_114\n      tag_60\n      jump\t// in\n    tag_114:\n        /* \"#utility.yul\":4622:4659   */\n    tag_113:\n        /* \"#utility.yul\":4472:4666   */\n      swap3\n      swap2\n      pop\n      pop\n      jump\t// out\n        /* \"#utility.yul\":4672:4863   */\n    tag_13:\n        /* \"#utility.yul\":4712:4715   */\n      0x00\n        /* \"#utility.yul\":4731:4751   */\n      tag_116\n        /* \"#utility.yul\":4749:4750   */\n      dup3\n        /* \"#utility.yul\":4731:4751   */\n      tag_55\n      jump\t// in\n    tag_116:\n        /* \"#utility.yul\":4726:4751   */\n      swap2\n      pop\n        /* \"#utility.yul\":4765:4785   */\n      tag_117\n        /* \"#utility.yul\":4783:4784   */\n      dup4\n        /* \"#utility.yul\":4765:4785   */\n      tag_55\n      jump\t// in\n    tag_117:\n        /* \"#utility.yul\":4760:4785   */\n      swap3\n      pop\n        /* \"#utility.yul\":4808:4809   */\n      dup3\n        /* \"#utility.yul\":4805:4806   */\n      dup3\n        /* \"#utility.yul\":4801:4810   */\n      add\n        /* \"#utility.yul\":4794:4810   */\n      swap1\n      pop\n        /* \"#utility.yul\":4829:4832   */\n      dup1\n        /* \"#utility.yul\":4826:4827   */\n      dup3\n        /* \"#utility.yul\":4823:4833   */\n      gt\n        /* \"#utility.yul\":4820:4856   */\n      iszero\n      tag_118\n      jumpi\n        /* \"#utility.yul\":4836:4854   */\n      tag_119\n      tag_60\n      jump\t// in\n    tag_119:\n        /* \"#utility.yul\":4820:4856   */\n    tag_118:\n        /* \"#utility.yul\":4672:4863   */\n      swap3\n      swap2\n      pop\n      pop\n      jump\t// out\n        /* \"#utility.yul\":4869:5049   */\n    tag_20:\n        /* \"#utility.yul\":4917:4994   */\n      0x4e487b7100000000000000000000000000000000000000000000000000000000\n        /* \"#utility.yul\":4914:4915   */\n      0x00\n        /* \"#utility.yul\":4907:4995   */\n      mstore\n        /* \"#utility.yul\":5014:5018   */\n      0x32\n        /* \"#utility.yul\":5011:5012   */\n      0x04\n        /* \"#utility.yul\":5004:5019   */\n      mstore\n        /* \"#utility.yul\":5038:5042   */\n      0x24\n        /* \"#utility.yul\":5035:5036   */\n      0x00\n        /* \"#utility.yul\":5028:5043   */\n      revert\n        /* \"#utility.yul\":5055:5226   */\n    tag_29:\n        /* \"#utility.yul\":5094:5097   */\n      0x00\n        /* \"#utility.yul\":5117:5141   */\n      tag_122\n        /* \"#utility.yul\":5135:5140   */\n      dup3\n        /* \"#utility.yul\":5117:5141   */\n      tag_55\n      jump\t// in\n    tag_122:\n        /* \"#utility.yul\":5108:5141   */\n      swap2\n      pop\n        /* \"#utility.yul\":5163:5167   */\n      0x00\n        /* \"#utility.yul\":5156:5161   */\n      dup3\n        /* \"#utility.yul\":5153:5168   */\n      sub\n        /* \"#utility.yul\":5150:5191   */\n      tag_123\n      jumpi\n        /* \"#utility.yul\":5171:5189   */\n      tag_124\n      tag_60\n      jump\t// in\n    tag_124:\n        /* \"#utility.yul\":5150:5191   */\n    tag_123:\n        /* \"#utility.yul\":5218:5219   */\n      0x01\n        /* \"#utility.yul\":5211:5216   */\n      dup3\n        /* \"#utility.yul\":5207:5220   */\n      sub\n        /* \"#utility.yul\":5200:5220   */\n      swap1\n      pop\n        /* \"#utility.yul\":5055:5226   */\n      swap2\n      swap1\n      pop\n      jump\t// out\n\n    auxdata: 0xa264697066735822122028d012e5ac395926dc237bf4a8132d30d869bb246876f3fe0bc0867d465102e064736f6c634300081e0033\n}\n",
				"bytecode": {
					"linkReferences": {},
					"object": "6080604052348015600e575f5ffd5b506105388061001c5f395ff3fe608060405234801561000f575f5ffd5b5060043610610029575f3560e01c8063d0c42f1a1461002d575b5f5ffd5b6100476004803603810190610042919061037f565b610049565b005b5f6001846100579190610448565b90505f6001836100679190610448565b90505f60018487610078919061047b565b6100829190610448565b90505b5f831015801561009557505f8210155b1561017f578482815181106100ad576100ac6104ae565b5b60200260200101518784815181106100c8576100c76104ae565b5b60200260200101511115610123578683815181106100e9576100e86104ae565b5b6020026020010151878281518110610104576101036104ae565b5b602002602001018181525050828061011b906104db565b93505061016c565b848281518110610136576101356104ae565b5b6020026020010151878281518110610151576101506104ae565b5b6020026020010181815250508180610168906104db565b9250505b8080610177906104db565b915050610085565b5b5f82106101e25784828151811061019a576101996104ae565b5b60200260200101518782815181106101b5576101b46104ae565b5b60200260200101818152505081806101cc906104db565b92505080806101da906104db565b915050610180565b50505050505050565b5f604051905090565b5f5ffd5b5f5ffd5b5f5ffd5b5f601f19601f8301169050919050565b7f4e487b71000000000000000000000000000000000000000000000000000000005f52604160045260245ffd5b61024682610200565b810181811067ffffffffffffffff8211171561026557610264610210565b5b80604052505050565b5f6102776101eb565b9050610283828261023d565b919050565b5f67ffffffffffffffff8211156102a2576102a1610210565b5b602082029050602081019050919050565b5f5ffd5b5f819050919050565b6102c9816102b7565b81146102d3575f5ffd5b50565b5f813590506102e4816102c0565b92915050565b5f6102fc6102f784610288565b61026e565b9050808382526020820190506020840283018581111561031f5761031e6102b3565b5b835b81811015610348578061033488826102d6565b845260208401935050602081019050610321565b5050509392505050565b5f82601f830112610366576103656101fc565b5b81356103768482602086016102ea565b91505092915050565b5f5f5f5f60808587031215610397576103966101f4565b5b5f85013567ffffffffffffffff8111156103b4576103b36101f8565b5b6103c087828801610352565b94505060206103d1878288016102d6565b935050604085013567ffffffffffffffff8111156103f2576103f16101f8565b5b6103fe87828801610352565b925050606061040f878288016102d6565b91505092959194509250565b7f4e487b71000000000000000000000000000000000000000000000000000000005f52601160045260245ffd5b5f610452826102b7565b915061045d836102b7565b92508282039050818111156104755761047461041b565b5b92915050565b5f610485826102b7565b9150610490836102b7565b92508282019050808211156104a8576104a761041b565b5b92915050565b7f4e487b71000000000000000000000000000000000000000000000000000000005f52603260045260245ffd5b5f6104e5826102b7565b91505f82036104f7576104f661041b565b5b60018203905091905056fea264697066735822122028d012e5ac395926dc237bf4a8132d30d869bb246876f3fe0bc0867d465102e064736f6c634300081e0033",
					"opcodes": "PUSH1 0x80 PUSH1 0x40 MSTORE CALLVALUE DUP1 ISZERO PUSH1 0xE JUMPI PUSH0 PUSH0 REVERT JUMPDEST POP PUSH2 0x538 DUP1 PUSH2 0x1C PUSH0 CODECOPY PUSH0 RETURN INVALID PUSH1 0x80 PUSH1 0x40 MSTORE CALLVALUE DUP1 ISZERO PUSH2 0xF JUMPI PUSH0 PUSH0 REVERT JUMPDEST POP PUSH1 0x4 CALLDATASIZE LT PUSH2 0x29 JUMPI PUSH0 CALLDATALOAD PUSH1 0xE0 SHR DUP1 PUSH4 0xD0C42F1A EQ PUSH2 0x2D JUMPI JUMPDEST PUSH0 PUSH0 REVERT JUMPDEST PUSH2 0x47 PUSH1 0x4 DUP1 CALLDATASIZE SUB DUP2 ADD SWAP1 PUSH2 0x42 SWAP2 SWAP1 PUSH2 0x37F JUMP JUMPDEST PUSH2 0x49 JUMP JUMPDEST STOP JUMPDEST PUSH0 PUSH1 0x1 DUP5 PUSH2 0x57 SWAP2 SWAP1 PUSH2 0x448 JUMP JUMPDEST SWAP1 POP PUSH0 PUSH1 0x1 DUP4 PUSH2 0x67 SWAP2 SWAP1 PUSH2 0x448 JUMP JUMPDEST SWAP1 POP PUSH0 PUSH1 0x1 DUP5 DUP8 PUSH2 0x78 SWAP2 SWAP1 PUSH2 0x47B JUMP JUMPDEST PUSH2 0x82 SWAP2 SWAP1 PUSH2 0x448 JUMP JUMPDEST SWAP1 POP JUMPDEST PUSH0 DUP4 LT ISZERO DUP1 ISZERO PUSH2 0x95 JUMPI POP PUSH0 DUP3 LT ISZERO JUMPDEST ISZERO PUSH2 0x17F JUMPI DUP5 DUP3 DUP2 MLOAD DUP2 LT PUSH2 0xAD JUMPI PUSH2 0xAC PUSH2 0x4AE JUMP JUMPDEST JUMPDEST PUSH1 0x20 MUL PUSH1 0x20 ADD ADD MLOAD DUP8 DUP5 DUP2 MLOAD DUP2 LT PUSH2 0xC8 JUMPI PUSH2 0xC7 PUSH2 0x4AE JUMP JUMPDEST JUMPDEST PUSH1 0x20 MUL PUSH1 0x20 ADD ADD MLOAD GT ISZERO PUSH2 0x123 JUMPI DUP7 DUP4 DUP2 MLOAD DUP2 LT PUSH2 0xE9 JUMPI PUSH2 0xE8 PUSH2 0x4AE JUMP JUMPDEST JUMPDEST PUSH1 0x20 MUL PUSH1 0x20 ADD ADD MLOAD DUP8 DUP3 DUP2 MLOAD DUP2 LT PUSH2 0x104 JUMPI PUSH2 0x103 PUSH2 0x4AE JUMP JUMPDEST JUMPDEST PUSH1 0x20 MUL PUSH1 0x20 ADD ADD DUP2 DUP2 MSTORE POP POP DUP3 DUP1 PUSH2 0x11B SWAP1 PUSH2 0x4DB JUMP JUMPDEST SWAP4 POP POP PUSH2 0x16C JUMP JUMPDEST DUP5 DUP3 DUP2 MLOAD DUP2 LT PUSH2 0x136 JUMPI PUSH2 0x135 PUSH2 0x4AE JUMP JUMPDEST JUMPDEST PUSH1 0x20 MUL PUSH1 0x20 ADD ADD MLOAD DUP8 DUP3 DUP2 MLOAD DUP2 LT PUSH2 0x151 JUMPI PUSH2 0x150 PUSH2 0x4AE JUMP JUMPDEST JUMPDEST PUSH1 0x20 MUL PUSH1 0x20 ADD ADD DUP2 DUP2 MSTORE POP POP DUP2 DUP1 PUSH2 0x168 SWAP1 PUSH2 0x4DB JUMP JUMPDEST SWAP3 POP POP JUMPDEST DUP1 DUP1 PUSH2 0x177 SWAP1 PUSH2 0x4DB JUMP JUMPDEST SWAP2 POP POP PUSH2 0x85 JUMP JUMPDEST JUMPDEST PUSH0 DUP3 LT PUSH2 0x1E2 JUMPI DUP5 DUP3 DUP2 MLOAD DUP2 LT PUSH2 0x19A JUMPI PUSH2 0x199 PUSH2 0x4AE JUMP JUMPDEST JUMPDEST PUSH1 0x20 MUL PUSH1 0x20 ADD ADD MLOAD DUP8 DUP3 DUP2 MLOAD DUP2 LT PUSH2 0x1B5 JUMPI PUSH2 0x1B4 PUSH2 0x4AE JUMP JUMPDEST JUMPDEST PUSH1 0x20 MUL PUSH1 0x20 ADD ADD DUP2 DUP2 MSTORE POP POP DUP2 DUP1 PUSH2 0x1CC SWAP1 PUSH2 0x4DB JUMP JUMPDEST SWAP3 POP POP DUP1 DUP1 PUSH2 0x1DA SWAP1 PUSH2 0x4DB JUMP JUMPDEST SWAP2 POP POP PUSH2 0x180 JUMP JUMPDEST POP POP POP POP POP POP POP JUMP JUMPDEST PUSH0 PUSH1 0x40 MLOAD SWAP1 POP SWAP1 JUMP JUMPDEST PUSH0 PUSH0 REVERT JUMPDEST PUSH0 PUSH0 REVERT JUMPDEST PUSH0 PUSH0 REVERT JUMPDEST PUSH0 PUSH1 0x1F NOT PUSH1 0x1F DUP4 ADD AND SWAP1 POP SWAP2 SWAP1 POP JUMP JUMPDEST PUSH32 0x4E487B7100000000000000000000000000000000000000000000000000000000 PUSH0 MSTORE PUSH1 0x41 PUSH1 0x4 MSTORE PUSH1 0x24 PUSH0 REVERT JUMPDEST PUSH2 0x246 DUP3 PUSH2 0x200 JUMP JUMPDEST DUP2 ADD DUP2 DUP2 LT PUSH8 0xFFFFFFFFFFFFFFFF DUP3 GT OR ISZERO PUSH2 0x265 JUMPI PUSH2 0x264 PUSH2 0x210 JUMP JUMPDEST JUMPDEST DUP1 PUSH1 0x40 MSTORE POP POP POP JUMP JUMPDEST PUSH0 PUSH2 0x277 PUSH2 0x1EB JUMP JUMPDEST SWAP1 POP PUSH2 0x283 DUP3 DUP3 PUSH2 0x23D JUMP JUMPDEST SWAP2 SWAP1 POP JUMP JUMPDEST PUSH0 PUSH8 0xFFFFFFFFFFFFFFFF DUP3 GT ISZERO PUSH2 0x2A2 JUMPI PUSH2 0x2A1 PUSH2 0x210 JUMP JUMPDEST JUMPDEST PUSH1 0x20 DUP3 MUL SWAP1 POP PUSH1 0x20 DUP2 ADD SWAP1 POP SWAP2 SWAP1 POP JUMP JUMPDEST PUSH0 PUSH0 REVERT JUMPDEST PUSH0 DUP2 SWAP1 POP SWAP2 SWAP1 POP JUMP JUMPDEST PUSH2 0x2C9 DUP2 PUSH2 0x2B7 JUMP JUMPDEST DUP2 EQ PUSH2 0x2D3 JUMPI PUSH0 PUSH0 REVERT JUMPDEST POP JUMP JUMPDEST PUSH0 DUP2 CALLDATALOAD SWAP1 POP PUSH2 0x2E4 DUP2 PUSH2 0x2C0 JUMP JUMPDEST SWAP3 SWAP2 POP POP JUMP JUMPDEST PUSH0 PUSH2 0x2FC PUSH2 0x2F7 DUP5 PUSH2 0x288 JUMP JUMPDEST PUSH2 0x26E JUMP JUMPDEST SWAP1 POP DUP1 DUP4 DUP3 MSTORE PUSH1 0x20 DUP3 ADD SWAP1 POP PUSH1 0x20 DUP5 MUL DUP4 ADD DUP6 DUP2 GT ISZERO PUSH2 0x31F JUMPI PUSH2 0x31E PUSH2 0x2B3 JUMP JUMPDEST JUMPDEST DUP4 JUMPDEST DUP2 DUP2 LT ISZERO PUSH2 0x348 JUMPI DUP1 PUSH2 0x334 DUP9 DUP3 PUSH2 0x2D6 JUMP JUMPDEST DUP5 MSTORE PUSH1 0x20 DUP5 ADD SWAP4 POP POP PUSH1 0x20 DUP2 ADD SWAP1 POP PUSH2 0x321 JUMP JUMPDEST POP POP POP SWAP4 SWAP3 POP POP POP JUMP JUMPDEST PUSH0 DUP3 PUSH1 0x1F DUP4 ADD SLT PUSH2 0x366 JUMPI PUSH2 0x365 PUSH2 0x1FC JUMP JUMPDEST JUMPDEST DUP2 CALLDATALOAD PUSH2 0x376 DUP5 DUP3 PUSH1 0x20 DUP7 ADD PUSH2 0x2EA JUMP JUMPDEST SWAP2 POP POP SWAP3 SWAP2 POP POP JUMP JUMPDEST PUSH0 PUSH0 PUSH0 PUSH0 PUSH1 0x80 DUP6 DUP8 SUB SLT ISZERO PUSH2 0x397 JUMPI PUSH2 0x396 PUSH2 0x1F4 JUMP JUMPDEST JUMPDEST PUSH0 DUP6 ADD CALLDATALOAD PUSH8 0xFFFFFFFFFFFFFFFF DUP2 GT ISZERO PUSH2 0x3B4 JUMPI PUSH2 0x3B3 PUSH2 0x1F8 JUMP JUMPDEST JUMPDEST PUSH2 0x3C0 DUP8 DUP3 DUP9 ADD PUSH2 0x352 JUMP JUMPDEST SWAP5 POP POP PUSH1 0x20 PUSH2 0x3D1 DUP8 DUP3 DUP9 ADD PUSH2 0x2D6 JUMP JUMPDEST SWAP4 POP POP PUSH1 0x40 DUP6 ADD CALLDATALOAD PUSH8 0xFFFFFFFFFFFFFFFF DUP2 GT ISZERO PUSH2 0x3F2 JUMPI PUSH2 0x3F1 PUSH2 0x1F8 JUMP JUMPDEST JUMPDEST PUSH2 0x3FE DUP8 DUP3 DUP9 ADD PUSH2 0x352 JUMP JUMPDEST SWAP3 POP POP PUSH1 0x60 PUSH2 0x40F DUP8 DUP3 DUP9 ADD PUSH2 0x2D6 JUMP JUMPDEST SWAP2 POP POP SWAP3 SWAP6 SWAP2 SWAP5 POP SWAP3 POP JUMP JUMPDEST PUSH32 0x4E487B7100000000000000000000000000000000000000000000000000000000 PUSH0 MSTORE PUSH1 0x11 PUSH1 0x4 MSTORE PUSH1 0x24 PUSH0 REVERT JUMPDEST PUSH0 PUSH2 0x452 DUP3 PUSH2 0x2B7 JUMP JUMPDEST SWAP2 POP PUSH2 0x45D DUP4 PUSH2 0x2B7 JUMP JUMPDEST SWAP3 POP DUP3 DUP3 SUB SWAP1 POP DUP2 DUP2 GT ISZERO PUSH2 0x475 JUMPI PUSH2 0x474 PUSH2 0x41B JUMP JUMPDEST JUMPDEST SWAP3 SWAP2 POP POP JUMP JUMPDEST PUSH0 PUSH2 0x485 DUP3 PUSH2 0x2B7 JUMP JUMPDEST SWAP2 POP PUSH2 0x490 DUP4 PUSH2 0x2B7 JUMP JUMPDEST SWAP3 POP DUP3 DUP3 ADD SWAP1 POP DUP1 DUP3 GT ISZERO PUSH2 0x4A8 JUMPI PUSH2 0x4A7 PUSH2 0x41B JUMP JUMPDEST JUMPDEST SWAP3 SWAP2 POP POP JUMP JUMPDEST PUSH32 0x4E487B7100000000000000000000000000000000000000000000000000000000 PUSH0 MSTORE PUSH1 0x32 PUSH1 0x4 MSTORE PUSH1 0x24 PUSH0 REVERT JUMPDEST PUSH0 PUSH2 0x4E5 DUP3 PUSH2 0x2B7 JUMP JUMPDEST SWAP2 POP PUSH0 DUP3 SUB PUSH2 0x4F7 JUMPI PUSH2 0x4F6 PUSH2 0x41B JUMP JUMPDEST JUMPDEST PUSH1 0x1 DUP3 SUB SWAP1 POP SWAP2 SWAP1 POP JUMP INVALID LOG2 PUSH5 0x6970667358 0x22 SLT KECCAK256 0x28 0xD0 SLT JUMPF 0xAC39 MSIZE 0x26 0xDC 0x23 PUSH28 0xF4A8132D30D869BB246876F3FE0BC0867D465102E064736F6C634300 ADDMOD 0x1E STOP CALLER "
				},
				"gasEstimates": {
					"creation": {
						"codeDepositCost": "267200",
						"executionCost": "304",
						"totalCost": "267504"
					},
					"external": {
						"merge(uint256[],uint256,uint256[],uint256)": "infinite"
					}
				},
				"methodIdentifiers": {
					"merge(uint256[],uint256,uint256[],uint256)": "d0c42f1a"
				}
			},
			"storageLayout": {
				"storage": [],
				"types": null
			},
			"userdoc": {
				"kind": "user",
				"methods": {},
				"version": 1
			}
		}
	}
}